{
  "contractName": "BridgedToken",
  "abi": [
    {
      "inputs": [
        {
          "internalType": "address",
          "name": "_ethTokenAddr",
          "type": "address"
        },
        {
          "internalType": "string",
          "name": "name",
          "type": "string"
        },
        {
          "internalType": "string",
          "name": "symbol",
          "type": "string"
        },
        {
          "internalType": "uint8",
          "name": "decimals",
          "type": "uint8"
        }
      ],
      "payable": false,
      "stateMutability": "nonpayable",
      "type": "constructor"
    },
    {
      "anonymous": false,
      "inputs": [
        {
          "indexed": true,
          "internalType": "address",
          "name": "owner",
          "type": "address"
        },
        {
          "indexed": true,
          "internalType": "address",
          "name": "spender",
          "type": "address"
        },
        {
          "indexed": false,
          "internalType": "uint256",
          "name": "value",
          "type": "uint256"
        }
      ],
      "name": "Approval",
      "type": "event"
    },
    {
      "anonymous": false,
      "inputs": [
        {
          "indexed": true,
          "internalType": "address",
          "name": "account",
          "type": "address"
        }
      ],
      "name": "MinterAdded",
      "type": "event"
    },
    {
      "anonymous": false,
      "inputs": [
        {
          "indexed": true,
          "internalType": "address",
          "name": "account",
          "type": "address"
        }
      ],
      "name": "MinterRemoved",
      "type": "event"
    },
    {
      "anonymous": false,
      "inputs": [
        {
          "indexed": true,
          "internalType": "address",
          "name": "from",
          "type": "address"
        },
        {
          "indexed": true,
          "internalType": "address",
          "name": "to",
          "type": "address"
        },
        {
          "indexed": false,
          "internalType": "uint256",
          "name": "value",
          "type": "uint256"
        }
      ],
      "name": "Transfer",
      "type": "event"
    },
    {
      "constant": false,
      "inputs": [
        {
          "internalType": "address",
          "name": "account",
          "type": "address"
        }
      ],
      "name": "addMinter",
      "outputs": [],
      "payable": false,
      "stateMutability": "nonpayable",
      "type": "function"
    },
    {
      "constant": true,
      "inputs": [
        {
          "internalType": "address",
          "name": "owner",
          "type": "address"
        },
        {
          "internalType": "address",
          "name": "spender",
          "type": "address"
        }
      ],
      "name": "allowance",
      "outputs": [
        {
          "internalType": "uint256",
          "name": "",
          "type": "uint256"
        }
      ],
      "payable": false,
      "stateMutability": "view",
      "type": "function"
    },
    {
      "constant": false,
      "inputs": [
        {
          "internalType": "address",
          "name": "spender",
          "type": "address"
        },
        {
          "internalType": "uint256",
          "name": "amount",
          "type": "uint256"
        }
      ],
      "name": "approve",
      "outputs": [
        {
          "internalType": "bool",
          "name": "",
          "type": "bool"
        }
      ],
      "payable": false,
      "stateMutability": "nonpayable",
      "type": "function"
    },
    {
      "constant": true,
      "inputs": [
        {
          "internalType": "address",
          "name": "account",
          "type": "address"
        }
      ],
      "name": "balanceOf",
      "outputs": [
        {
          "internalType": "uint256",
          "name": "",
          "type": "uint256"
        }
      ],
      "payable": false,
      "stateMutability": "view",
      "type": "function"
    },
    {
      "constant": false,
      "inputs": [
        {
          "internalType": "uint256",
          "name": "amount",
          "type": "uint256"
        }
      ],
      "name": "burn",
      "outputs": [],
      "payable": false,
      "stateMutability": "nonpayable",
      "type": "function"
    },
    {
      "constant": false,
      "inputs": [
        {
          "internalType": "address",
          "name": "account",
          "type": "address"
        },
        {
          "internalType": "uint256",
          "name": "amount",
          "type": "uint256"
        }
      ],
      "name": "burnFrom",
      "outputs": [],
      "payable": false,
      "stateMutability": "nonpayable",
      "type": "function"
    },
    {
      "constant": true,
      "inputs": [],
      "name": "decimals",
      "outputs": [
        {
          "internalType": "uint8",
          "name": "",
          "type": "uint8"
        }
      ],
      "payable": false,
      "stateMutability": "view",
      "type": "function"
    },
    {
      "constant": false,
      "inputs": [
        {
          "internalType": "address",
          "name": "spender",
          "type": "address"
        },
        {
          "internalType": "uint256",
          "name": "subtractedValue",
          "type": "uint256"
        }
      ],
      "name": "decreaseAllowance",
      "outputs": [
        {
          "internalType": "bool",
          "name": "",
          "type": "bool"
        }
      ],
      "payable": false,
      "stateMutability": "nonpayable",
      "type": "function"
    },
    {
      "constant": true,
      "inputs": [],
      "name": "ethTokenAddr",
      "outputs": [
        {
          "internalType": "address",
          "name": "",
          "type": "address"
        }
      ],
      "payable": false,
      "stateMutability": "view",
      "type": "function"
    },
    {
      "constant": false,
      "inputs": [
        {
          "internalType": "address",
          "name": "spender",
          "type": "address"
        },
        {
          "internalType": "uint256",
          "name": "addedValue",
          "type": "uint256"
        }
      ],
      "name": "increaseAllowance",
      "outputs": [
        {
          "internalType": "bool",
          "name": "",
          "type": "bool"
        }
      ],
      "payable": false,
      "stateMutability": "nonpayable",
      "type": "function"
    },
    {
      "constant": true,
      "inputs": [
        {
          "internalType": "address",
          "name": "account",
          "type": "address"
        }
      ],
      "name": "isMinter",
      "outputs": [
        {
          "internalType": "bool",
          "name": "",
          "type": "bool"
        }
      ],
      "payable": false,
      "stateMutability": "view",
      "type": "function"
    },
    {
      "constant": false,
      "inputs": [
        {
          "internalType": "address",
          "name": "account",
          "type": "address"
        },
        {
          "internalType": "uint256",
          "name": "amount",
          "type": "uint256"
        }
      ],
      "name": "mint",
      "outputs": [
        {
          "internalType": "bool",
          "name": "",
          "type": "bool"
        }
      ],
      "payable": false,
      "stateMutability": "nonpayable",
      "type": "function"
    },
    {
      "constant": true,
      "inputs": [],
      "name": "name",
      "outputs": [
        {
          "internalType": "string",
          "name": "",
          "type": "string"
        }
      ],
      "payable": false,
      "stateMutability": "view",
      "type": "function"
    },
    {
      "constant": false,
      "inputs": [],
      "name": "renounceMinter",
      "outputs": [],
      "payable": false,
      "stateMutability": "nonpayable",
      "type": "function"
    },
    {
      "constant": true,
      "inputs": [],
      "name": "symbol",
      "outputs": [
        {
          "internalType": "string",
          "name": "",
          "type": "string"
        }
      ],
      "payable": false,
      "stateMutability": "view",
      "type": "function"
    },
    {
      "constant": true,
      "inputs": [],
      "name": "totalSupply",
      "outputs": [
        {
          "internalType": "uint256",
          "name": "",
          "type": "uint256"
        }
      ],
      "payable": false,
      "stateMutability": "view",
      "type": "function"
    },
    {
      "constant": false,
      "inputs": [
        {
          "internalType": "address",
          "name": "recipient",
          "type": "address"
        },
        {
          "internalType": "uint256",
          "name": "amount",
          "type": "uint256"
        }
      ],
      "name": "transfer",
      "outputs": [
        {
          "internalType": "bool",
          "name": "",
          "type": "bool"
        }
      ],
      "payable": false,
      "stateMutability": "nonpayable",
      "type": "function"
    },
    {
      "constant": false,
      "inputs": [
        {
          "internalType": "address",
          "name": "sender",
          "type": "address"
        },
        {
          "internalType": "address",
          "name": "recipient",
          "type": "address"
        },
        {
          "internalType": "uint256",
          "name": "amount",
          "type": "uint256"
        }
      ],
      "name": "transferFrom",
      "outputs": [
        {
          "internalType": "bool",
          "name": "",
          "type": "bool"
        }
      ],
      "payable": false,
      "stateMutability": "nonpayable",
      "type": "function"
    }
  ],
  "bytecode": "0x60806040523480156200001157600080fd5b50604051620015f5380380620015f5833981810160405260808110156200003757600080fd5b8151602083018051604051929492938301929190846401000000008211156200005f57600080fd5b9083019060208201858111156200007557600080fd5b82516401000000008111828201881017156200009057600080fd5b82525081516020918201929091019080838360005b83811015620000bf578181015183820152602001620000a5565b50505050905090810190601f168015620000ed5780820380516001836020036101000a031916815260200191505b50604052602001805160405193929190846401000000008211156200011157600080fd5b9083019060208201858111156200012757600080fd5b82516401000000008111828201881017156200014257600080fd5b82525081516020918201929091019080838360005b838110156200017157818101518382015260200162000157565b50505050905090810190601f1680156200019f5780820380516001836020036101000a031916815260200191505b50604052602090810151855190935085925084918491620001c7916003919086019062000389565b508151620001dd90600490602085019062000389565b506005805460ff191660ff9290921691909117905550620002129050620002036200023c565b6001600160e01b036200024116565b5050600780546001600160a01b0319166001600160a01b039390931692909217909155506200042b565b335b90565b6200025c8160066200029360201b62000ea01790919060201c565b6040516001600160a01b038216907f6ae172837ea30b801fbfcdd4108aa1d5bf8ff775444fd70256b44e6bf3dfc3f690600090a250565b620002a882826001600160e01b036200032016565b15620002fb576040805162461bcd60e51b815260206004820152601f60248201527f526f6c65733a206163636f756e7420616c72656164792068617320726f6c6500604482015290519081900360640190fd5b6001600160a01b0316600090815260209190915260409020805460ff19166001179055565b60006001600160a01b038216620003695760405162461bcd60e51b8152600401808060200182810382526022815260200180620015d36022913960400191505060405180910390fd5b506001600160a01b03166000908152602091909152604090205460ff1690565b828054600181600116156101000203166002900490600052602060002090601f016020900481019282601f10620003cc57805160ff1916838001178555620003fc565b82800160010185558215620003fc579182015b82811115620003fc578251825591602001919060010190620003df565b506200040a9291506200040e565b5090565b6200023e91905b808211156200040a576000815560010162000415565b611198806200043b6000396000f3fe608060405234801561001057600080fd5b50600436106101165760003560e01c806370a08231116100a257806398650275116100715780639865027514610361578063a457c2d714610369578063a9059cbb14610395578063aa271e1a146103c1578063dd62ed3e146103e757610116565b806370a08231146102e157806379cc67901461030757806395d89b4114610333578063983b2d561461033b57610116565b806323b872dd116100e957806323b872dd14610216578063313ce5671461024c578063395093511461026a57806340c10f191461029657806342966c68146102c257610116565b806306fdde031461011b578063095ea7b31461019857806311c9adc8146101d857806318160ddd146101fc575b600080fd5b610123610415565b6040805160208082528351818301528351919283929083019185019080838360005b8381101561015d578181015183820152602001610145565b50505050905090810190601f16801561018a5780820380516001836020036101000a031916815260200191505b509250505060405180910390f35b6101c4600480360360408110156101ae57600080fd5b506001600160a01b0381351690602001356104ab565b604080519115158252519081900360200190f35b6101e06104c8565b604080516001600160a01b039092168252519081900360200190f35b6102046104d7565b60408051918252519081900360200190f35b6101c46004803603606081101561022c57600080fd5b506001600160a01b038135811691602081013590911690604001356104dd565b61025461056a565b6040805160ff9092168252519081900360200190f35b6101c46004803603604081101561028057600080fd5b506001600160a01b038135169060200135610573565b6101c4600480360360408110156102ac57600080fd5b506001600160a01b0381351690602001356105c7565b6102df600480360360208110156102d857600080fd5b503561061e565b005b610204600480360360208110156102f757600080fd5b50356001600160a01b0316610632565b6102df6004803603604081101561031d57600080fd5b506001600160a01b03813516906020013561064d565b61012361065b565b6102df6004803603602081101561035157600080fd5b50356001600160a01b03166106bc565b6102df61070b565b6101c46004803603604081101561037f57600080fd5b506001600160a01b03813516906020013561071d565b6101c4600480360360408110156103ab57600080fd5b506001600160a01b03813516906020013561078b565b6101c4600480360360208110156103d757600080fd5b50356001600160a01b031661079f565b610204600480360360408110156103fd57600080fd5b506001600160a01b03813581169160200135166107b8565b60038054604080516020601f60026000196101006001881615020190951694909404938401819004810282018101909252828152606093909290918301828280156104a15780601f10610476576101008083540402835291602001916104a1565b820191906000526020600020905b81548152906001019060200180831161048457829003601f168201915b5050505050905090565b60006104bf6104b86107e3565b84846107e7565b50600192915050565b6007546001600160a01b031681565b60025490565b60006104ea8484846108d3565b610560846104f66107e3565b61055b85604051806060016040528060288152602001611067602891396001600160a01b038a166000908152600160205260408120906105346107e3565b6001600160a01b03168152602081019190915260400160002054919063ffffffff610a2f16565b6107e7565b5060019392505050565b60055460ff1690565b60006104bf6105806107e3565b8461055b85600160006105916107e3565b6001600160a01b03908116825260208083019390935260409182016000908120918c16815292529020549063ffffffff610ac616565b60006105d96105d46107e3565b61079f565b6106145760405162461bcd60e51b81526004018080602001828103825260308152602001806110166030913960400191505060405180910390fd5b6104bf8383610b27565b61062f6106296107e3565b82610c17565b50565b6001600160a01b031660009081526020819052604090205490565b6106578282610d13565b5050565b60048054604080516020601f60026000196101006001881615020190951694909404938401819004810282018101909252828152606093909290918301828280156104a15780601f10610476576101008083540402835291602001916104a1565b6106c76105d46107e3565b6107025760405162461bcd60e51b81526004018080602001828103825260308152602001806110166030913960400191505060405180910390fd5b61062f81610d67565b61071b6107166107e3565b610daf565b565b60006104bf61072a6107e3565b8461055b8560405180606001604052806025815260200161113f60259139600160006107546107e3565b6001600160a01b03908116825260208083019390935260409182016000908120918d1681529252902054919063ffffffff610a2f16565b60006104bf6107986107e3565b84846108d3565b60006107b260068363ffffffff610df716565b92915050565b6001600160a01b03918216600090815260016020908152604080832093909416825291909152205490565b3390565b6001600160a01b03831661082c5760405162461bcd60e51b815260040180806020018281038252602481526020018061111b6024913960400191505060405180910390fd5b6001600160a01b0382166108715760405162461bcd60e51b8152600401808060200182810382526022815260200180610fce6022913960400191505060405180910390fd5b6001600160a01b03808416600081815260016020908152604080832094871680845294825291829020859055815185815291517f8c5be1e5ebec7d5bd14f71427d1e84f3dd0314c0f7b2291e5b200ac8c7c3b9259281900390910190a3505050565b6001600160a01b0383166109185760405162461bcd60e51b81526004018080602001828103825260258152602001806110f66025913960400191505060405180910390fd5b6001600160a01b03821661095d5760405162461bcd60e51b8152600401808060200182810382526023815260200180610f896023913960400191505060405180910390fd5b6109a081604051806060016040528060268152602001610ff0602691396001600160a01b038616600090815260208190526040902054919063ffffffff610a2f16565b6001600160a01b0380851660009081526020819052604080822093909355908416815220546109d5908263ffffffff610ac616565b6001600160a01b038084166000818152602081815260409182902094909455805185815290519193928716927fddf252ad1be2c89b69c2b068fc378daa952ba7f163c4a11628f55a4df523b3ef92918290030190a3505050565b60008184841115610abe5760405162461bcd60e51b81526004018080602001828103825283818151815260200191508051906020019080838360005b83811015610a83578181015183820152602001610a6b565b50505050905090810190601f168015610ab05780820380516001836020036101000a031916815260200191505b509250505060405180910390fd5b505050900390565b600082820183811015610b20576040805162461bcd60e51b815260206004820152601b60248201527f536166654d6174683a206164646974696f6e206f766572666c6f770000000000604482015290519081900360640190fd5b9392505050565b6001600160a01b038216610b82576040805162461bcd60e51b815260206004820152601f60248201527f45524332303a206d696e7420746f20746865207a65726f206164647265737300604482015290519081900360640190fd5b600254610b95908263ffffffff610ac616565b6002556001600160a01b038216600090815260208190526040902054610bc1908263ffffffff610ac616565b6001600160a01b0383166000818152602081815260408083209490945583518581529351929391927fddf252ad1be2c89b69c2b068fc378daa952ba7f163c4a11628f55a4df523b3ef9281900390910190a35050565b6001600160a01b038216610c5c5760405162461bcd60e51b81526004018080602001828103825260218152602001806110d56021913960400191505060405180910390fd5b610c9f81604051806060016040528060228152602001610fac602291396001600160a01b038516600090815260208190526040902054919063ffffffff610a2f16565b6001600160a01b038316600090815260208190526040902055600254610ccb908263ffffffff610e5e16565b6002556040805182815290516000916001600160a01b038516917fddf252ad1be2c89b69c2b068fc378daa952ba7f163c4a11628f55a4df523b3ef9181900360200190a35050565b610d1d8282610c17565b61065782610d296107e3565b61055b846040518060600160405280602481526020016110b1602491396001600160a01b0388166000908152600160205260408120906105346107e3565b610d7860068263ffffffff610ea016565b6040516001600160a01b038216907f6ae172837ea30b801fbfcdd4108aa1d5bf8ff775444fd70256b44e6bf3dfc3f690600090a250565b610dc060068263ffffffff610f2116565b6040516001600160a01b038216907fe94479a9f7e1952cc78f2d6baab678adc1b772d936c6583def489e524cb6669290600090a250565b60006001600160a01b038216610e3e5760405162461bcd60e51b815260040180806020018281038252602281526020018061108f6022913960400191505060405180910390fd5b506001600160a01b03166000908152602091909152604090205460ff1690565b6000610b2083836040518060400160405280601e81526020017f536166654d6174683a207375627472616374696f6e206f766572666c6f770000815250610a2f565b610eaa8282610df7565b15610efc576040805162461bcd60e51b815260206004820152601f60248201527f526f6c65733a206163636f756e7420616c72656164792068617320726f6c6500604482015290519081900360640190fd5b6001600160a01b0316600090815260209190915260409020805460ff19166001179055565b610f2b8282610df7565b610f665760405162461bcd60e51b81526004018080602001828103825260218152602001806110466021913960400191505060405180910390fd5b6001600160a01b0316600090815260209190915260409020805460ff1916905556fe45524332303a207472616e7366657220746f20746865207a65726f206164647265737345524332303a206275726e20616d6f756e7420657863656564732062616c616e636545524332303a20617070726f766520746f20746865207a65726f206164647265737345524332303a207472616e7366657220616d6f756e7420657863656564732062616c616e63654d696e746572526f6c653a2063616c6c657220646f6573206e6f74206861766520746865204d696e74657220726f6c65526f6c65733a206163636f756e7420646f6573206e6f74206861766520726f6c6545524332303a207472616e7366657220616d6f756e74206578636565647320616c6c6f77616e6365526f6c65733a206163636f756e7420697320746865207a65726f206164647265737345524332303a206275726e20616d6f756e74206578636565647320616c6c6f77616e636545524332303a206275726e2066726f6d20746865207a65726f206164647265737345524332303a207472616e736665722066726f6d20746865207a65726f206164647265737345524332303a20617070726f76652066726f6d20746865207a65726f206164647265737345524332303a2064656372656173656420616c6c6f77616e63652062656c6f77207a65726fa265627a7a72315820133bc1f84a1983521676ce4801bc7c3fd67f4363e97ddaa8393f21126cdc606764736f6c63430005110032526f6c65733a206163636f756e7420697320746865207a65726f2061646472657373",
  "source": "pragma solidity 0.5.17;\n\nimport \"@openzeppelin/contracts/token/ERC20/ERC20Detailed.sol\";\nimport \"@openzeppelin/contracts/token/ERC20/ERC20Burnable.sol\";\nimport \"@openzeppelin/contracts/token/ERC20/ERC20Mintable.sol\";\n\ncontract BridgedToken is ERC20Burnable, ERC20Detailed, ERC20Mintable {\n    address public ethTokenAddr;\n    constructor(\n        address _ethTokenAddr,\n        string memory name,\n        string memory symbol,\n        uint8 decimals\n    ) public ERC20Detailed(name, symbol, decimals) {\n        ethTokenAddr = _ethTokenAddr;\n    }\n}",
  "sourcePath": "/Users/yuriy/pro5/ethhmy-bridge.contract/contracts/lib/BridgedToken.sol",
  "compiler": {
    "name": "solc",
    "version": "0.5.17+commit.d19bba13.Emscripten.clang"
  },
  "schemaVersion": "3.2.0",
  "updatedAt": "2020-09-15T21:52:29.111Z",
  "devdoc": {
    "methods": {
      "allowance(address,address)": {
        "details": "See {IERC20-allowance}."
      },
      "approve(address,uint256)": {
        "details": "See {IERC20-approve}.     * Requirements:     * - `spender` cannot be the zero address."
      },
      "balanceOf(address)": {
        "details": "See {IERC20-balanceOf}."
      },
      "burn(uint256)": {
        "details": "Destroys `amount` tokens from the caller.     * See {ERC20-_burn}."
      },
      "burnFrom(address,uint256)": {
        "details": "See {ERC20-_burnFrom}."
      },
      "decimals()": {
        "details": "Returns the number of decimals used to get its user representation. For example, if `decimals` equals `2`, a balance of `505` tokens should be displayed to a user as `5,05` (`505 / 10 ** 2`).     * Tokens usually opt for a value of 18, imitating the relationship between Ether and Wei.     * NOTE: This information is only used for _display_ purposes: it in no way affects any of the arithmetic of the contract, including {IERC20-balanceOf} and {IERC20-transfer}."
      },
      "decreaseAllowance(address,uint256)": {
        "details": "Atomically decreases the allowance granted to `spender` by the caller.     * This is an alternative to {approve} that can be used as a mitigation for problems described in {IERC20-approve}.     * Emits an {Approval} event indicating the updated allowance.     * Requirements:     * - `spender` cannot be the zero address. - `spender` must have allowance for the caller of at least `subtractedValue`."
      },
      "increaseAllowance(address,uint256)": {
        "details": "Atomically increases the allowance granted to `spender` by the caller.     * This is an alternative to {approve} that can be used as a mitigation for problems described in {IERC20-approve}.     * Emits an {Approval} event indicating the updated allowance.     * Requirements:     * - `spender` cannot be the zero address."
      },
      "mint(address,uint256)": {
        "details": "See {ERC20-_mint}.     * Requirements:     * - the caller must have the {MinterRole}."
      },
      "name()": {
        "details": "Returns the name of the token."
      },
      "symbol()": {
        "details": "Returns the symbol of the token, usually a shorter version of the name."
      },
      "totalSupply()": {
        "details": "See {IERC20-totalSupply}."
      },
      "transfer(address,uint256)": {
        "details": "See {IERC20-transfer}.     * Requirements:     * - `recipient` cannot be the zero address. - the caller must have a balance of at least `amount`."
      },
      "transferFrom(address,address,uint256)": {
        "details": "See {IERC20-transferFrom}.     * Emits an {Approval} event indicating the updated allowance. This is not required by the EIP. See the note at the beginning of {ERC20};     * Requirements: - `sender` and `recipient` cannot be the zero address. - `sender` must have a balance of at least `amount`. - the caller must have allowance for `sender`'s tokens of at least `amount`."
      }
    }
  },
  "userdoc": {
    "methods": {}
  }
}