{
  "contractName": "BUSDHmyManager",
  "abi": [
    {
      "inputs": [
        {
          "internalType": "contract IBUSD",
          "name": "busd",
          "type": "address"
        }
      ],
      "payable": false,
      "stateMutability": "nonpayable",
      "type": "constructor"
    },
    {
      "anonymous": false,
      "inputs": [
        {
          "indexed": true,
          "internalType": "address",
          "name": "token",
          "type": "address"
        },
        {
          "indexed": true,
          "internalType": "address",
          "name": "sender",
          "type": "address"
        },
        {
          "indexed": false,
          "internalType": "uint256",
          "name": "amount",
          "type": "uint256"
        },
        {
          "indexed": false,
          "internalType": "address",
          "name": "recipient",
          "type": "address"
        }
      ],
      "name": "Burned",
      "type": "event"
    },
    {
      "anonymous": false,
      "inputs": [
        {
          "indexed": false,
          "internalType": "uint256",
          "name": "amount",
          "type": "uint256"
        },
        {
          "indexed": false,
          "internalType": "address",
          "name": "recipient",
          "type": "address"
        }
      ],
      "name": "Minted",
      "type": "event"
    },
    {
      "constant": true,
      "inputs": [],
      "name": "busd_",
      "outputs": [
        {
          "internalType": "contract IBUSD",
          "name": "",
          "type": "address"
        }
      ],
      "payable": false,
      "stateMutability": "view",
      "type": "function"
    },
    {
      "constant": true,
      "inputs": [
        {
          "internalType": "bytes32",
          "name": "",
          "type": "bytes32"
        }
      ],
      "name": "usedEvents_",
      "outputs": [
        {
          "internalType": "bool",
          "name": "",
          "type": "bool"
        }
      ],
      "payable": false,
      "stateMutability": "view",
      "type": "function"
    },
    {
      "constant": true,
      "inputs": [
        {
          "internalType": "address",
          "name": "",
          "type": "address"
        }
      ],
      "name": "wards",
      "outputs": [
        {
          "internalType": "uint256",
          "name": "",
          "type": "uint256"
        }
      ],
      "payable": false,
      "stateMutability": "view",
      "type": "function"
    },
    {
      "constant": false,
      "inputs": [
        {
          "internalType": "address",
          "name": "guy",
          "type": "address"
        }
      ],
      "name": "rely",
      "outputs": [],
      "payable": false,
      "stateMutability": "nonpayable",
      "type": "function"
    },
    {
      "constant": false,
      "inputs": [
        {
          "internalType": "address",
          "name": "guy",
          "type": "address"
        }
      ],
      "name": "deny",
      "outputs": [],
      "payable": false,
      "stateMutability": "nonpayable",
      "type": "function"
    },
    {
      "constant": false,
      "inputs": [
        {
          "internalType": "uint256",
          "name": "amount",
          "type": "uint256"
        },
        {
          "internalType": "address",
          "name": "recipient",
          "type": "address"
        }
      ],
      "name": "burnToken",
      "outputs": [],
      "payable": false,
      "stateMutability": "nonpayable",
      "type": "function"
    },
    {
      "constant": false,
      "inputs": [
        {
          "internalType": "uint256",
          "name": "amount",
          "type": "uint256"
        },
        {
          "internalType": "address",
          "name": "recipient",
          "type": "address"
        },
        {
          "internalType": "bytes32",
          "name": "receiptId",
          "type": "bytes32"
        }
      ],
      "name": "mintToken",
      "outputs": [],
      "payable": false,
      "stateMutability": "nonpayable",
      "type": "function"
    }
  ],
  "bytecode": "0x608060405234801561001057600080fd5b506040516108783803806108788339818101604052602081101561003357600080fd5b50513360009081526002602052604081206001905580546001600160a01b039092166001600160a01b0319909216919091179055610802806100766000396000f3fe608060405234801561001057600080fd5b506004361061007d5760003560e01c80639c52a7f11161005b5780639c52a7f114610100578063bccc9fcf14610126578063bf353dbb14610157578063dc593ca51461018f5761007d565b80634305a3b61461008257806354e08691146100a657806365fae35e146100da575b600080fd5b61008a6101bb565b604080516001600160a01b039092168252519081900360200190f35b6100d8600480360360608110156100bc57600080fd5b508035906001600160a01b0360208201351690604001356101ca565b005b6100d8600480360360208110156100f057600080fd5b50356001600160a01b031661045b565b6100d86004803603602081101561011657600080fd5b50356001600160a01b03166104d8565b6101436004803603602081101561013c57600080fd5b5035610552565b604080519115158252519081900360200190f35b61017d6004803603602081101561016d57600080fd5b50356001600160a01b0316610567565b60408051918252519081900360200190f35b6100d8600480360360408110156101a557600080fd5b50803590602001356001600160a01b0316610579565b6000546001600160a01b031681565b3360009081526002602052604090205460011461022a576040805162461bcd60e51b8152602060048201526019602482015278121b5e53585b9859d95c8bdb9bdd0b585d5d1a1bdc9a5e9959603a1b604482015290519081900360640190fd5b60008181526001602052604090205460ff16156102785760405162461bcd60e51b815260040180806020018281038252602c8152602001806107a2602c913960400191505060405180910390fd5b6000818152600160208181526040808420805460ff19169093179092558254825163b921e16360e01b81526004810188905292516001600160a01b039091169363b921e163936024808201949392918390030190829087803b1580156102dd57600080fd5b505af11580156102f1573d6000803e3d6000fd5b505050506040513d602081101561030757600080fd5b5051610353576040805162461bcd60e51b8152602060048201526016602482015275121b5e53585b9859d95c8bdb5a5b9d0819985a5b195960521b604482015290519081900360640190fd5b600080546040805163a9059cbb60e01b81526001600160a01b038681166004830152602482018890529151919092169263a9059cbb92604480820193602093909283900390910190829087803b1580156103ac57600080fd5b505af11580156103c0573d6000803e3d6000fd5b505050506040513d60208110156103d657600080fd5b50516104135760405162461bcd60e51b815260040180806020018281038252602581526020018061077d6025913960400191505060405180910390fd5b604080518481526001600160a01b038416602082015281517fb9203d657e9c0ec8274c818292ab0f58b04e1970050716891770eb1bab5d655e929181900390910190a1505050565b336000908152600260205260409020546001146104bb576040805162461bcd60e51b8152602060048201526019602482015278121b5e53585b9859d95c8bdb9bdd0b585d5d1a1bdc9a5e9959603a1b604482015290519081900360640190fd5b6001600160a01b0316600090815260026020526040902060019055565b33600090815260026020526040902054600114610538576040805162461bcd60e51b8152602060048201526019602482015278121b5e53585b9859d95c8bdb9bdd0b585d5d1a1bdc9a5e9959603a1b604482015290519081900360640190fd5b6001600160a01b0316600090815260026020526040812055565b60016020526000908152604090205460ff1681565b60026020526000908152604090205481565b60008054604080516323b872dd60e01b81523360048201523060248201526044810186905290516001600160a01b03909216926323b872dd926064808401936020939083900390910190829087803b1580156105d457600080fd5b505af11580156105e8573d6000803e3d6000fd5b505050506040513d60208110156105fe57600080fd5b505161063b5760405162461bcd60e51b815260040180806020018281038252602e81526020018061074f602e913960400191505060405180910390fd5b6000805460408051634c7297cd60e11b81526004810186905290516001600160a01b03909216926398e52f9a926024808401936020939083900390910190829087803b15801561068a57600080fd5b505af115801561069e573d6000803e3d6000fd5b505050506040513d60208110156106b457600080fd5b5051610700576040805162461bcd60e51b8152602060048201526016602482015275121b5e53585b9859d95c8bd89d5c9b8819985a5b195960521b604482015290519081900360640190fd5b600054604080518481526001600160a01b03848116602083015282513394909116927f47b4128ad231bee46bdb1f8614450b5ffe6eb96340e87519a0c3a8b91ee714ec928290030190a3505056fe486d794d616e616765722f636f756c64206e6f74207472616e7366657220746f6b656e732066726f6d2075736572486d794d616e616765722f7472616e73666572206166746572206d696e74206661696c6564486d794d616e616765722f54686520756e6c6f636b206576656e742063616e6e6f7420626520726575736564a265627a7a723158203e82040bc261a1d51cb2b884ac9584368df977bebe2b1bc4243229f5b51beaa964736f6c63430005110032",
  "source": "pragma solidity ^0.5.0;\nimport \"./IBUSD.sol\";\n\ncontract BUSDHmyManager {\n    IBUSD public busd_;\n\n    mapping(bytes32 => bool) public usedEvents_;\n\n    event Burned(\n        address indexed token,\n        address indexed sender,\n        uint256 amount,\n        address recipient\n    );\n\n    event Minted(uint256 amount, address recipient);\n\n    mapping(address => uint256) public wards;\n\n    function rely(address guy) external auth {\n        wards[guy] = 1;\n    }\n\n    function deny(address guy) external auth {\n        wards[guy] = 0;\n    }\n\n    modifier auth {\n        require(wards[msg.sender] == 1, \"HmyManager/not-authorized\");\n        _;\n    }\n\n    /**\n     * @dev constructor\n     * @param busd token contract address on harmony chain, e.g., hrc20\n     */\n    constructor(IBUSD busd) public {\n        wards[msg.sender] = 1;\n        busd_ = busd;\n    }\n\n    /**\n     * @dev burns tokens on harmony to be unlocked on ethereum\n     * @param amount amount of tokens to burn\n     * @param recipient recipient of the unlock tokens on ethereum\n     */\n    function burnToken(uint256 amount, address recipient) public {\n        require(\n            busd_.transferFrom(msg.sender, address(this), amount),\n            \"HmyManager/could not transfer tokens from user\"\n        );\n        require(busd_.decreaseSupply(amount), \"HmyManager/burn failed\");\n        emit Burned(address(busd_), msg.sender, amount, recipient);\n    }\n\n    /**\n     * @dev mints tokens corresponding to the tokens locked in the ethereum chain\n     * @param amount amount of tokens for minting\n     * @param recipient recipient of the minted tokens (harmony address)\n     * @param receiptId transaction hash of the lock event on ethereum chain\n     */\n    function mintToken(\n        uint256 amount,\n        address recipient,\n        bytes32 receiptId\n    ) public auth {\n        require(\n            !usedEvents_[receiptId],\n            \"HmyManager/The unlock event cannot be reused\"\n        );\n        usedEvents_[receiptId] = true;\n        require(busd_.increaseSupply(amount), \"HmyManager/mint failed\");\n        require(\n            busd_.transfer(recipient, amount),\n            \"HmyManager/transfer after mint failed\"\n        );\n        emit Minted(amount, recipient);\n    }\n}\n",
  "sourcePath": "/Users/yuriy/pro5/ethhmy-bridge/contracts/busd/BUSDHmyManager.sol",
  "compiler": {
    "name": "solc",
    "version": "0.5.17+commit.d19bba13.Emscripten.clang"
  },
  "schemaVersion": "3.2.0",
  "updatedAt": "2020-08-20T12:32:13.772Z",
  "devdoc": {
    "methods": {
      "burnToken(uint256,address)": {
        "details": "burns tokens on harmony to be unlocked on ethereum",
        "params": {
          "amount": "amount of tokens to burn",
          "recipient": "recipient of the unlock tokens on ethereum"
        }
      },
      "constructor": {
        "details": "constructor",
        "params": {
          "busd": "token contract address on harmony chain, e.g., hrc20"
        }
      },
      "mintToken(uint256,address,bytes32)": {
        "details": "mints tokens corresponding to the tokens locked in the ethereum chain",
        "params": {
          "amount": "amount of tokens for minting",
          "receiptId": "transaction hash of the lock event on ethereum chain",
          "recipient": "recipient of the minted tokens (harmony address)"
        }
      }
    }
  },
  "userdoc": {
    "methods": {}
  }
}