{
  "contractName": "BUSDEthManager",
  "abi": [
    {
      "inputs": [
        {
          "internalType": "contract IBUSD",
          "name": "busd",
          "type": "address"
        }
      ],
      "payable": false,
      "stateMutability": "nonpayable",
      "type": "constructor"
    },
    {
      "anonymous": false,
      "inputs": [
        {
          "indexed": true,
          "internalType": "address",
          "name": "token",
          "type": "address"
        },
        {
          "indexed": true,
          "internalType": "address",
          "name": "sender",
          "type": "address"
        },
        {
          "indexed": false,
          "internalType": "uint256",
          "name": "amount",
          "type": "uint256"
        },
        {
          "indexed": false,
          "internalType": "address",
          "name": "recipient",
          "type": "address"
        }
      ],
      "name": "Locked",
      "type": "event"
    },
    {
      "anonymous": false,
      "inputs": [
        {
          "indexed": false,
          "internalType": "uint256",
          "name": "amount",
          "type": "uint256"
        },
        {
          "indexed": false,
          "internalType": "address",
          "name": "recipient",
          "type": "address"
        }
      ],
      "name": "Unlocked",
      "type": "event"
    },
    {
      "constant": true,
      "inputs": [],
      "name": "busd_",
      "outputs": [
        {
          "internalType": "contract IBUSD",
          "name": "",
          "type": "address"
        }
      ],
      "payable": false,
      "stateMutability": "view",
      "type": "function"
    },
    {
      "constant": true,
      "inputs": [
        {
          "internalType": "bytes32",
          "name": "",
          "type": "bytes32"
        }
      ],
      "name": "usedEvents_",
      "outputs": [
        {
          "internalType": "bool",
          "name": "",
          "type": "bool"
        }
      ],
      "payable": false,
      "stateMutability": "view",
      "type": "function"
    },
    {
      "constant": true,
      "inputs": [
        {
          "internalType": "address",
          "name": "",
          "type": "address"
        }
      ],
      "name": "wards",
      "outputs": [
        {
          "internalType": "uint256",
          "name": "",
          "type": "uint256"
        }
      ],
      "payable": false,
      "stateMutability": "view",
      "type": "function"
    },
    {
      "constant": false,
      "inputs": [
        {
          "internalType": "address",
          "name": "guy",
          "type": "address"
        }
      ],
      "name": "rely",
      "outputs": [],
      "payable": false,
      "stateMutability": "nonpayable",
      "type": "function"
    },
    {
      "constant": false,
      "inputs": [
        {
          "internalType": "address",
          "name": "guy",
          "type": "address"
        }
      ],
      "name": "deny",
      "outputs": [],
      "payable": false,
      "stateMutability": "nonpayable",
      "type": "function"
    },
    {
      "constant": false,
      "inputs": [
        {
          "internalType": "uint256",
          "name": "amount",
          "type": "uint256"
        },
        {
          "internalType": "address",
          "name": "recipient",
          "type": "address"
        }
      ],
      "name": "lockToken",
      "outputs": [],
      "payable": false,
      "stateMutability": "nonpayable",
      "type": "function"
    },
    {
      "constant": false,
      "inputs": [
        {
          "internalType": "uint256",
          "name": "amount",
          "type": "uint256"
        },
        {
          "internalType": "address",
          "name": "recipient",
          "type": "address"
        },
        {
          "internalType": "bytes32",
          "name": "receiptId",
          "type": "bytes32"
        }
      ],
      "name": "unlockToken",
      "outputs": [],
      "payable": false,
      "stateMutability": "nonpayable",
      "type": "function"
    }
  ],
  "bytecode": "0x608060405234801561001057600080fd5b506040516106be3803806106be8339818101604052602081101561003357600080fd5b50513360009081526002602052604081206001905580546001600160a01b039092166001600160a01b0319909216919091179055610648806100766000396000f3fe608060405234801561001057600080fd5b506004361061007d5760003560e01c80639c52a7f11161005b5780639c52a7f114610100578063bccc9fcf14610126578063bf353dbb14610157578063cec1460b1461018f5761007d565b80634305a3b6146100825780635ed74114146100a657806365fae35e146100da575b600080fd5b61008a6101bb565b604080516001600160a01b039092168252519081900360200190f35b6100d8600480360360608110156100bc57600080fd5b508035906001600160a01b0360208201351690604001356101ca565b005b6100d8600480360360208110156100f057600080fd5b50356001600160a01b03166103ac565b6100d86004803603602081101561011657600080fd5b50356001600160a01b0316610429565b6101436004803603602081101561013c57600080fd5b50356104a3565b604080519115158252519081900360200190f35b61017d6004803603602081101561016d57600080fd5b50356001600160a01b03166104b8565b60408051918252519081900360200190f35b6100d8600480360360408110156101a557600080fd5b50803590602001356001600160a01b03166104ca565b6000546001600160a01b031681565b3360009081526002602052604090205460011461022a576040805162461bcd60e51b8152602060048201526019602482015278115d1a13585b9859d95c8bdb9bdd0b585d5d1a1bdc9a5e9959603a1b604482015290519081900360640190fd5b60008181526001602052604090205460ff16156102785760405162461bcd60e51b815260040180806020018281038252602a8152602001806105ea602a913960400191505060405180910390fd5b6000818152600160208181526040808420805460ff19169093179092558254825163a9059cbb60e01b81526001600160a01b038781166004830152602482018990529351939091169363a9059cbb93604480840194939192918390030190829087803b1580156102e757600080fd5b505af11580156102fb573d6000803e3d6000fd5b505050506040513d602081101561031157600080fd5b5051610364576040805162461bcd60e51b815260206004820152601860248201527f4574684d616e616765722f756e6c6f636b206661696c65640000000000000000604482015290519081900360640190fd5b604080518481526001600160a01b038416602082015281517fe7536184071702b58fe23a1d7d0df5fb9eed9a3176bbae54cf3e17d45f77ac32929181900390910190a1505050565b3360009081526002602052604090205460011461040c576040805162461bcd60e51b8152602060048201526019602482015278115d1a13585b9859d95c8bdb9bdd0b585d5d1a1bdc9a5e9959603a1b604482015290519081900360640190fd5b6001600160a01b0316600090815260026020526040902060019055565b33600090815260026020526040902054600114610489576040805162461bcd60e51b8152602060048201526019602482015278115d1a13585b9859d95c8bdb9bdd0b585d5d1a1bdc9a5e9959603a1b604482015290519081900360640190fd5b6001600160a01b0316600090815260026020526040812055565b60016020526000908152604090205460ff1681565b60026020526000908152604090205481565b60008054604080516323b872dd60e01b81523360048201523060248201526044810186905290516001600160a01b03909216926323b872dd926064808401936020939083900390910190829087803b15801561052557600080fd5b505af1158015610539573d6000803e3d6000fd5b505050506040513d602081101561054f57600080fd5b505161059b576040805162461bcd60e51b8152602060048201526016602482015275115d1a13585b9859d95c8bdb1bd8dac819985a5b195960521b604482015290519081900360640190fd5b600054604080518481526001600160a01b03848116602083015282513394909116927f4c6ab40ee4cfa212a441d32ee2897945b4a52461284f9369e23fdf8faa6cdd69928290030190a3505056fe4574684d616e616765722f546865206275726e206576656e742063616e6e6f7420626520726575736564a265627a7a72315820c7cec8fd28a16841b02ad45a1f322f77ab598f0bd5caffef7bc92a64a3234fc064736f6c63430005110032",
  "source": "pragma solidity ^0.5.0;\nimport \"./IBUSD.sol\";\n\ncontract BUSDEthManager {\n    IBUSD public busd_;\n\n    mapping(bytes32 => bool) public usedEvents_;\n\n    event Locked(\n        address indexed token,\n        address indexed sender,\n        uint256 amount,\n        address recipient\n    );\n\n    event Unlocked(uint256 amount, address recipient);\n\n    mapping(address => uint256) public wards;\n\n    function rely(address guy) external auth {\n        wards[guy] = 1;\n    }\n\n    function deny(address guy) external auth {\n        wards[guy] = 0;\n    }\n\n    modifier auth {\n        require(wards[msg.sender] == 1, \"EthManager/not-authorized\");\n        _;\n    }\n\n    /**\n     * @dev constructor\n     * @param busd token contract address, e.g., erc20 contract\n     */\n    constructor(IBUSD busd) public {\n        wards[msg.sender] = 1;\n        busd_ = busd;\n    }\n\n    /**\n     * @dev lock tokens to be minted on harmony chain\n     * @param amount amount of tokens to lock\n     * @param recipient recipient address on the harmony chain\n     */\n    function lockToken(uint256 amount, address recipient) public {\n        require(\n            busd_.transferFrom(msg.sender, address(this), amount),\n            \"EthManager/lock failed\"\n        );\n        emit Locked(address(busd_), msg.sender, amount, recipient);\n    }\n\n    /**\n     * @dev unlock tokens after burning them on harmony chain\n     * @param amount amount of unlock tokens\n     * @param recipient recipient of the unlock tokens\n     * @param receiptId transaction hash of the burn event on harmony chain\n     */\n    function unlockToken(\n        uint256 amount,\n        address recipient,\n        bytes32 receiptId\n    ) public auth {\n        require(\n            !usedEvents_[receiptId],\n            \"EthManager/The burn event cannot be reused\"\n        );\n        usedEvents_[receiptId] = true;\n        require(busd_.transfer(recipient, amount), \"EthManager/unlock failed\");\n        emit Unlocked(amount, recipient);\n    }\n}\n",
  "sourcePath": "/Users/yuriy/pro5/ethhmy-bridge/contracts/busd/BUSDEthManager.sol",
  "compiler": {
    "name": "solc",
    "version": "0.5.17+commit.d19bba13.Emscripten.clang"
  },
  "schemaVersion": "3.2.0",
  "updatedAt": "2020-08-20T12:32:13.770Z",
  "devdoc": {
    "methods": {
      "constructor": {
        "details": "constructor",
        "params": {
          "busd": "token contract address, e.g., erc20 contract"
        }
      },
      "lockToken(uint256,address)": {
        "details": "lock tokens to be minted on harmony chain",
        "params": {
          "amount": "amount of tokens to lock",
          "recipient": "recipient address on the harmony chain"
        }
      },
      "unlockToken(uint256,address,bytes32)": {
        "details": "unlock tokens after burning them on harmony chain",
        "params": {
          "amount": "amount of unlock tokens",
          "receiptId": "transaction hash of the burn event on harmony chain",
          "recipient": "recipient of the unlock tokens"
        }
      }
    }
  },
  "userdoc": {
    "methods": {}
  }
}