{
  "contractName": "Deposit",
  "abi": [
    {
      "inputs": [
        {
          "internalType": "address",
          "name": "_wallet",
          "type": "address"
        }
      ],
      "payable": false,
      "stateMutability": "nonpayable",
      "type": "constructor"
    },
    {
      "anonymous": false,
      "inputs": [
        {
          "indexed": true,
          "internalType": "address",
          "name": "sender",
          "type": "address"
        },
        {
          "indexed": false,
          "internalType": "uint256",
          "name": "amount",
          "type": "uint256"
        }
      ],
      "name": "Deposited",
      "type": "event"
    },
    {
      "anonymous": false,
      "inputs": [
        {
          "indexed": true,
          "internalType": "address",
          "name": "previousOwner",
          "type": "address"
        },
        {
          "indexed": true,
          "internalType": "address",
          "name": "newOwner",
          "type": "address"
        }
      ],
      "name": "OwnershipTransferred",
      "type": "event"
    },
    {
      "anonymous": false,
      "inputs": [
        {
          "indexed": true,
          "internalType": "address",
          "name": "recipient",
          "type": "address"
        },
        {
          "indexed": false,
          "internalType": "uint256",
          "name": "amount",
          "type": "uint256"
        }
      ],
      "name": "Returned",
      "type": "event"
    },
    {
      "constant": true,
      "inputs": [],
      "name": "isOwner",
      "outputs": [
        {
          "internalType": "bool",
          "name": "",
          "type": "bool"
        }
      ],
      "payable": false,
      "stateMutability": "view",
      "type": "function"
    },
    {
      "constant": true,
      "inputs": [],
      "name": "owner",
      "outputs": [
        {
          "internalType": "address",
          "name": "",
          "type": "address"
        }
      ],
      "payable": false,
      "stateMutability": "view",
      "type": "function"
    },
    {
      "constant": false,
      "inputs": [],
      "name": "renounceOwnership",
      "outputs": [],
      "payable": false,
      "stateMutability": "nonpayable",
      "type": "function"
    },
    {
      "constant": false,
      "inputs": [
        {
          "internalType": "address",
          "name": "newOwner",
          "type": "address"
        }
      ],
      "name": "transferOwnership",
      "outputs": [],
      "payable": false,
      "stateMutability": "nonpayable",
      "type": "function"
    },
    {
      "constant": true,
      "inputs": [],
      "name": "wallet",
      "outputs": [
        {
          "internalType": "address",
          "name": "",
          "type": "address"
        }
      ],
      "payable": false,
      "stateMutability": "view",
      "type": "function"
    },
    {
      "constant": false,
      "inputs": [
        {
          "internalType": "uint256",
          "name": "amount",
          "type": "uint256"
        }
      ],
      "name": "deposit",
      "outputs": [],
      "payable": true,
      "stateMutability": "payable",
      "type": "function"
    },
    {
      "constant": false,
      "inputs": [
        {
          "internalType": "address payable",
          "name": "recipient",
          "type": "address"
        },
        {
          "internalType": "uint256",
          "name": "amount",
          "type": "uint256"
        }
      ],
      "name": "withdraw",
      "outputs": [],
      "payable": false,
      "stateMutability": "nonpayable",
      "type": "function"
    },
    {
      "constant": false,
      "inputs": [],
      "name": "payout",
      "outputs": [],
      "payable": false,
      "stateMutability": "nonpayable",
      "type": "function"
    }
  ],
  "bytecode": "0x608060405234801561001057600080fd5b506040516109143803806109148339818101604052602081101561003357600080fd5b505160006100486001600160e01b036100b716565b600080546001600160a01b0319166001600160a01b0383169081178255604051929350917f8be0079c531659141344cd1fd0a4f28419497f9722a3daafe3b4186f6b6457e0908290a350600280546001600160a01b0319166001600160a01b03929092169190911790556100bb565b3390565b61084a806100ca6000396000f3fe60806040526004361061007b5760003560e01c80638f32d59b1161004e5780638f32d59b146100f2578063b6b55f251461011b578063f2fde38b14610138578063f3fef3a31461016b5761007b565b8063521eb2731461008057806363bd1d4a146100b1578063715018a6146100c85780638da5cb5b146100dd575b600080fd5b34801561008c57600080fd5b506100956101a4565b604080516001600160a01b039092168252519081900360200190f35b3480156100bd57600080fd5b506100c66101b3565b005b3480156100d457600080fd5b506100c661023b565b3480156100e957600080fd5b506100956102de565b3480156100fe57600080fd5b506101076102ed565b604080519115158252519081900360200190f35b6100c66004803603602081101561013157600080fd5b5035610311565b34801561014457600080fd5b506100c66004803603602081101561015b57600080fd5b50356001600160a01b03166103d1565b34801561017757600080fd5b506100c66004803603604081101561018e57600080fd5b506001600160a01b038135169060200135610433565b6002546001600160a01b031681565b6101bb6102ed565b61020c576040805162461bcd60e51b815260206004820181905260248201527f4f776e61626c653a2063616c6c6572206973206e6f7420746865206f776e6572604482015290519081900360640190fd5b60405133904780156108fc02916000818181858888f19350505050158015610238573d6000803e3d6000fd5b50565b6102436102ed565b610294576040805162461bcd60e51b815260206004820181905260248201527f4f776e61626c653a2063616c6c6572206973206e6f7420746865206f776e6572604482015290519081900360640190fd5b600080546040516001600160a01b03909116907f8be0079c531659141344cd1fd0a4f28419497f9722a3daafe3b4186f6b6457e0908390a3600080546001600160a01b0319169055565b6000546001600160a01b031690565b600080546001600160a01b03166103026105f3565b6001600160a01b031614905090565b803414610365576040805162461bcd60e51b815260206004820152601a60248201527f4465706f7369742f696e73756666696369656e742d76616c7565000000000000604482015290519081900360640190fd5b33600090815260016020526040902054610385908263ffffffff6105f716565b33600081815260016020908152604091829020939093558051848152905191927f2da466a7b24304f47e87fa2e1e5a81b9831ce54fec19055ce277ca2f39ba42c492918290030190a250565b6103d96102ed565b61042a576040805162461bcd60e51b815260206004820181905260248201527f4f776e61626c653a2063616c6c6572206973206e6f7420746865206f776e6572604482015290519081900360640190fd5b61023881610658565b6002546001600160a01b0316331461048b576040805162461bcd60e51b815260206004820152601660248201527511195c1bdcda5d0bdb9bdd0b585d5d1a1bdc9a5e995960521b604482015290519081900360640190fd5b6001600160a01b0382166104d05760405162461bcd60e51b81526004018080602001828103825260238152602001806107f36023913960400191505060405180910390fd5b6001600160a01b03821660009081526001602052604090205481111561053d576040805162461bcd60e51b815260206004820152601d60248201527f4465706f7369742f696e2d73756666696369656e742d62616c616e6365000000604482015290519081900360640190fd5b6040516001600160a01b0383169082156108fc029083906000818181858888f19350505050158015610573573d6000803e3d6000fd5b506001600160a01b03821660009081526001602052604090205461059d908263ffffffff6106f816565b6001600160a01b038316600081815260016020908152604091829020939093558051848152905191927fdd81098bbc043431d4a440ca8823673fd1129893ab79f9838df4cf3d5e38125992918290030190a25050565b3390565b600082820183811015610651576040805162461bcd60e51b815260206004820152601b60248201527f536166654d6174683a206164646974696f6e206f766572666c6f770000000000604482015290519081900360640190fd5b9392505050565b6001600160a01b03811661069d5760405162461bcd60e51b81526004018080602001828103825260268152602001806107cd6026913960400191505060405180910390fd5b600080546040516001600160a01b03808516939216917f8be0079c531659141344cd1fd0a4f28419497f9722a3daafe3b4186f6b6457e091a3600080546001600160a01b0319166001600160a01b0392909216919091179055565b600061065183836040518060400160405280601e81526020017f536166654d6174683a207375627472616374696f6e206f766572666c6f770000815250600081848411156107c45760405162461bcd60e51b81526004018080602001828103825283818151815260200191508051906020019080838360005b83811015610789578181015183820152602001610771565b50505050905090810190601f1680156107b65780820380516001836020036101000a031916815260200191505b509250505060405180910390fd5b50505090039056fe4f776e61626c653a206e6577206f776e657220697320746865207a65726f20616464726573734465706f7369742f726563697069656e742069732061207a65726f2061646472657373a265627a7a7231582049e2d912df73c5950455e6f206bd458be1855f132d82e75ae14aea36ff86489f64736f6c63430005110032",
  "source": "pragma solidity 0.5.17;\n\nimport \"@openzeppelin/contracts/math/SafeMath.sol\";\nimport \"@openzeppelin/contracts/ownership/Ownable.sol\";\n\ncontract Deposit is Ownable {\n    using SafeMath for uint256;\n    mapping (address => uint256) private balances;\n\n    event Deposited(\n        address indexed sender,\n        uint256 amount\n    );\n\n    event Returned(\n        address indexed recipient,\n        uint256 amount\n    );\n\n    address public wallet;\n    modifier onlyWallet {\n        require(msg.sender == wallet, \"Deposit/not-authorized\");\n        _;\n    }\n\n    /**\n     * @dev constructor\n     * @param _wallet is the multisig wallet\n     */\n    constructor(address _wallet) public {\n        wallet = _wallet;\n    }\n\n    /**\n     * @dev deposit to contract\n     * @param amount to deposit\n     */\n    function deposit(uint256 amount) public payable {\n        require(msg.value == amount, \"Deposit/insufficient-value\");\n        balances[msg.sender] = balances[msg.sender].add(amount);\n        emit Deposited(msg.sender, amount);\n    }\n\n    /**\n     * @dev return to recipient\n     * @param recipient of the amount\n     * @param amount to be returned\n     */\n    function withdraw(address payable recipient, uint256 amount) public onlyWallet {\n        require(\n            recipient != address(0),\n            \"Deposit/recipient is a zero address\"\n        );\n        require(amount <= balances[recipient], \"Deposit/in-sufficient-balance\");\n        recipient.transfer(amount);\n        balances[recipient] = balances[recipient].sub(amount);\n        emit Returned(recipient, amount);\n    }\n\n    /**\n     * @dev payout the balance to owner\n     */\n    function payout() public onlyOwner {\n        msg.sender.transfer(address(this).balance);\n    }\n}",
  "sourcePath": "/Users/yuriy/pro5/ethhmy-bridge.contract/contracts/lib/Deposit.sol",
  "compiler": {
    "name": "solc",
    "version": "0.5.17+commit.d19bba13.Emscripten.clang"
  },
  "schemaVersion": "3.2.0",
  "updatedAt": "2021-02-01T22:26:12.054Z",
  "devdoc": {
    "methods": {
      "constructor": {
        "details": "constructor",
        "params": {
          "_wallet": "is the multisig wallet"
        }
      },
      "deposit(uint256)": {
        "details": "deposit to contract",
        "params": {
          "amount": "to deposit"
        }
      },
      "isOwner()": {
        "details": "Returns true if the caller is the current owner."
      },
      "owner()": {
        "details": "Returns the address of the current owner."
      },
      "payout()": {
        "details": "payout the balance to owner"
      },
      "renounceOwnership()": {
        "details": "Leaves the contract without owner. It will not be possible to call `onlyOwner` functions anymore. Can only be called by the current owner.     * NOTE: Renouncing ownership will leave the contract without an owner, thereby removing any functionality that is only available to the owner."
      },
      "transferOwnership(address)": {
        "details": "Transfers ownership of the contract to a new account (`newOwner`). Can only be called by the current owner."
      },
      "withdraw(address,uint256)": {
        "details": "return to recipient",
        "params": {
          "amount": "to be returned",
          "recipient": "of the amount"
        }
      }
    }
  },
  "userdoc": {
    "methods": {}
  }
}