{
  "contractName": "ERC721EthManager",
  "abi": [
    {
      "inputs": [
        {
          "internalType": "address",
          "name": "_wallet",
          "type": "address"
        }
      ],
      "payable": false,
      "stateMutability": "nonpayable",
      "type": "constructor"
    },
    {
      "anonymous": false,
      "inputs": [
        {
          "indexed": true,
          "internalType": "address",
          "name": "token",
          "type": "address"
        },
        {
          "indexed": true,
          "internalType": "address",
          "name": "sender",
          "type": "address"
        },
        {
          "indexed": false,
          "internalType": "uint256",
          "name": "tokenId",
          "type": "uint256"
        },
        {
          "indexed": false,
          "internalType": "address",
          "name": "recipient",
          "type": "address"
        }
      ],
      "name": "Locked",
      "type": "event"
    },
    {
      "anonymous": false,
      "inputs": [
        {
          "indexed": false,
          "internalType": "address",
          "name": "ethToken",
          "type": "address"
        },
        {
          "indexed": false,
          "internalType": "uint256",
          "name": "tokenId",
          "type": "uint256"
        },
        {
          "indexed": false,
          "internalType": "address",
          "name": "recipient",
          "type": "address"
        },
        {
          "indexed": false,
          "internalType": "bytes32",
          "name": "receiptId",
          "type": "bytes32"
        }
      ],
      "name": "Unlocked",
      "type": "event"
    },
    {
      "constant": false,
      "inputs": [
        {
          "internalType": "address",
          "name": "",
          "type": "address"
        },
        {
          "internalType": "address",
          "name": "",
          "type": "address"
        },
        {
          "internalType": "uint256",
          "name": "",
          "type": "uint256"
        },
        {
          "internalType": "bytes",
          "name": "",
          "type": "bytes"
        }
      ],
      "name": "onERC721Received",
      "outputs": [
        {
          "internalType": "bytes4",
          "name": "",
          "type": "bytes4"
        }
      ],
      "payable": false,
      "stateMutability": "nonpayable",
      "type": "function"
    },
    {
      "constant": true,
      "inputs": [
        {
          "internalType": "bytes32",
          "name": "",
          "type": "bytes32"
        }
      ],
      "name": "usedEvents_",
      "outputs": [
        {
          "internalType": "bool",
          "name": "",
          "type": "bool"
        }
      ],
      "payable": false,
      "stateMutability": "view",
      "type": "function"
    },
    {
      "constant": true,
      "inputs": [],
      "name": "wallet",
      "outputs": [
        {
          "internalType": "address",
          "name": "",
          "type": "address"
        }
      ],
      "payable": false,
      "stateMutability": "view",
      "type": "function"
    },
    {
      "constant": false,
      "inputs": [
        {
          "internalType": "address",
          "name": "ethTokenAddr",
          "type": "address"
        },
        {
          "internalType": "uint256",
          "name": "tokenId",
          "type": "uint256"
        },
        {
          "internalType": "address",
          "name": "recipient",
          "type": "address"
        }
      ],
      "name": "lockToken",
      "outputs": [],
      "payable": false,
      "stateMutability": "nonpayable",
      "type": "function"
    },
    {
      "constant": false,
      "inputs": [
        {
          "internalType": "address",
          "name": "ethTokenAddr",
          "type": "address"
        },
        {
          "internalType": "uint256[]",
          "name": "tokenIds",
          "type": "uint256[]"
        },
        {
          "internalType": "address",
          "name": "recipient",
          "type": "address"
        }
      ],
      "name": "lockTokens",
      "outputs": [],
      "payable": false,
      "stateMutability": "nonpayable",
      "type": "function"
    },
    {
      "constant": false,
      "inputs": [
        {
          "internalType": "address",
          "name": "ethTokenAddr",
          "type": "address"
        },
        {
          "internalType": "address",
          "name": "userAddr",
          "type": "address"
        },
        {
          "internalType": "uint256",
          "name": "tokenId",
          "type": "uint256"
        },
        {
          "internalType": "address",
          "name": "recipient",
          "type": "address"
        }
      ],
      "name": "lockTokenFor",
      "outputs": [],
      "payable": false,
      "stateMutability": "nonpayable",
      "type": "function"
    },
    {
      "constant": false,
      "inputs": [
        {
          "internalType": "address",
          "name": "ethTokenAddr",
          "type": "address"
        },
        {
          "internalType": "uint256",
          "name": "tokenId",
          "type": "uint256"
        },
        {
          "internalType": "address",
          "name": "recipient",
          "type": "address"
        },
        {
          "internalType": "bytes32",
          "name": "receiptId",
          "type": "bytes32"
        }
      ],
      "name": "unlockToken",
      "outputs": [],
      "payable": false,
      "stateMutability": "nonpayable",
      "type": "function"
    },
    {
      "constant": false,
      "inputs": [
        {
          "internalType": "address",
          "name": "ethTokenAddr",
          "type": "address"
        },
        {
          "internalType": "uint256[]",
          "name": "tokenIds",
          "type": "uint256[]"
        },
        {
          "internalType": "address",
          "name": "recipient",
          "type": "address"
        },
        {
          "internalType": "bytes32",
          "name": "receiptId",
          "type": "bytes32"
        }
      ],
      "name": "unlockTokens",
      "outputs": [],
      "payable": false,
      "stateMutability": "nonpayable",
      "type": "function"
    }
  ],
  "bytecode": "0x608060405234801561001057600080fd5b50604051610c6c380380610c6c8339818101604052602081101561003357600080fd5b5051600180546001600160a01b0319166001600160a01b03909216919091179055610c09806100636000396000f3fe608060405234801561001057600080fd5b50600436106100885760003560e01c8063521eb2731161005b578063521eb273146102a2578063abeba925146102c6578063bccc9fcf14610387578063fe7f61ea146103b857610088565b80630296be631461008d57806309eb2728146100cb578063150b7a0214610101578063397562f1146101e4575b600080fd5b6100c9600480360360808110156100a357600080fd5b506001600160a01b038135811691602081013582169160408201359160600135166103f2565b005b6100c9600480360360608110156100e157600080fd5b506001600160a01b03813581169160208101359160409091013516610555565b6101c76004803603608081101561011757600080fd5b6001600160a01b0382358116926020810135909116916040820135919081019060808101606082013564010000000081111561015257600080fd5b82018360208201111561016457600080fd5b8035906020019184600183028401116401000000008311171561018657600080fd5b91908080601f016020809104026020016040519081016040528093929190818152602001838380828437600092019190915250929550610659945050505050565b604080516001600160e01b03199092168252519081900360200190f35b6100c9600480360360608110156101fa57600080fd5b6001600160a01b03823516919081019060408101602082013564010000000081111561022557600080fd5b82018360208201111561023757600080fd5b8035906020019184602083028401116401000000008311171561025957600080fd5b919080806020026020016040519081016040528093929190818152602001838360200280828437600092019190915250929550505090356001600160a01b031691506106699050565b6102aa6107e7565b604080516001600160a01b039092168252519081900360200190f35b6100c9600480360360808110156102dc57600080fd5b6001600160a01b03823516919081019060408101602082013564010000000081111561030757600080fd5b82018360208201111561031957600080fd5b8035906020019184602083028401116401000000008311171561033b57600080fd5b919080806020026020016040519081016040528093929190818152602001838360200280828437600092019190915250929550506001600160a01b0383351693505050602001356107f6565b6103a46004803603602081101561039d57600080fd5b50356109e4565b604080519115158252519081900360200190f35b6100c9600480360360808110156103ce57600080fd5b506001600160a01b03813581169160208101359160408201351690606001356109f9565b6001546001600160a01b0316331461044d576040805162461bcd60e51b8152602060048201526019602482015278121b5e53585b9859d95c8bdb9bdd0b585d5d1a1bdc9a5e9959603a1b604482015290519081900360640190fd5b6001600160a01b0381166104925760405162461bcd60e51b8152600401808060200182810382526026815260200180610baf6026913960400191505060405180910390fd5b60408051632142170760e11b81526001600160a01b03858116600483015230602483015260448201859052915186928316916342842e0e91606480830192600092919082900301818387803b1580156104ea57600080fd5b505af11580156104fe573d6000803e3d6000fd5b5050604080518681526001600160a01b0386811660208301528251818a16955090861693507f4c6ab40ee4cfa212a441d32ee2897945b4a52461284f9369e23fdf8faa6cdd69929181900390910190a35050505050565b6001600160a01b03811661059a5760405162461bcd60e51b8152600401808060200182810382526026815260200180610baf6026913960400191505060405180910390fd5b60408051632142170760e11b815233600482015230602482015260448101849052905184916001600160a01b038316916342842e0e9160648082019260009290919082900301818387803b1580156105f157600080fd5b505af1158015610605573d6000803e3d6000fd5b5050604080518681526001600160a01b038681166020830152825133955090861693507f4c6ab40ee4cfa212a441d32ee2897945b4a52461284f9369e23fdf8faa6cdd69929181900390910190a350505050565b630a85bd0160e11b949350505050565b6001600160a01b0381166106ae5760405162461bcd60e51b8152600401808060200182810382526026815260200180610baf6026913960400191505060405180910390fd5b8260005b83518110156107e057816001600160a01b03166342842e0e33308785815181106106d857fe5b60200260200101516040518463ffffffff1660e01b815260040180846001600160a01b03166001600160a01b03168152602001836001600160a01b03166001600160a01b031681526020018281526020019350505050600060405180830381600087803b15801561074857600080fd5b505af115801561075c573d6000803e3d6000fd5b50505050336001600160a01b0316826001600160a01b03167f4c6ab40ee4cfa212a441d32ee2897945b4a52461284f9369e23fdf8faa6cdd698684815181106107a157fe5b60200260200101518660405180838152602001826001600160a01b03166001600160a01b031681526020019250505060405180910390a36001016106b2565b5050505050565b6001546001600160a01b031681565b6001546001600160a01b03163314610851576040805162461bcd60e51b8152602060048201526019602482015278121b5e53585b9859d95c8bdb9bdd0b585d5d1a1bdc9a5e9959603a1b604482015290519081900360640190fd5b60008181526020819052604090205460ff161561089f5760405162461bcd60e51b815260040180806020018281038252602a815260200180610b85602a913960400191505060405180910390fd5b8360005b84518110156109c457816001600160a01b03166342842e0e30868885815181106108c957fe5b60200260200101516040518463ffffffff1660e01b815260040180846001600160a01b03166001600160a01b03168152602001836001600160a01b03166001600160a01b031681526020018281526020019350505050600060405180830381600087803b15801561093957600080fd5b505af115801561094d573d6000803e3d6000fd5b505050507fb24e65d2501e29a3ce014b0cc2283699c081ad27f10d64f036f96912b6f8943e8686838151811061097f57fe5b602090810291909101810151604080516001600160a01b03948516815292830191909152918716818301526060810186905290519081900360800190a16001016108a3565b50506000908152602081905260409020805460ff19166001179055505050565b60006020819052908152604090205460ff1681565b6001546001600160a01b03163314610a54576040805162461bcd60e51b8152602060048201526019602482015278121b5e53585b9859d95c8bdb9bdd0b585d5d1a1bdc9a5e9959603a1b604482015290519081900360640190fd5b60008181526020819052604090205460ff1615610aa25760405162461bcd60e51b815260040180806020018281038252602a815260200180610b85602a913960400191505060405180910390fd5b60408051632142170760e11b81523060048201526001600160a01b03848116602483015260448201869052915186928316916342842e0e91606480830192600092919082900301818387803b158015610afa57600080fd5b505af1158015610b0e573d6000803e3d6000fd5b50505060008381526020818152604091829020805460ff1916600117905581516001600160a01b03808a168252918101889052908616818301526060810185905290517fb24e65d2501e29a3ce014b0cc2283699c081ad27f10d64f036f96912b6f8943e92509081900360800190a1505050505056fe4574684d616e616765722f546865206275726e206576656e742063616e6e6f74206265207265757365644574684d616e616765722f726563697069656e742069732061207a65726f2061646472657373a265627a7a7231582052387f6cc91e5ce9aef0b85765156c8a536655af8dadb56197efbd00afdfac9364736f6c63430005110032",
  "source": "pragma solidity 0.5.17;\nimport \"@openzeppelin/contracts/math/SafeMath.sol\";\nimport \"@openzeppelin/contracts/token/ERC721/IERC721.sol\";\nimport \"@openzeppelin/contracts/token/ERC721/ERC721Holder.sol\";\n\ncontract ERC721EthManager is ERC721Holder {\n    using SafeMath for uint256;\n\n    mapping(bytes32 => bool) public usedEvents_;\n\n    event Locked(\n        address indexed token,\n        address indexed sender,\n        uint256 tokenId,\n        address recipient\n    );\n\n    event Unlocked(\n        address ethToken,\n        uint256 tokenId,\n        address recipient,\n        bytes32 receiptId\n    );\n\n    address public wallet;\n    modifier onlyWallet {\n        require(msg.sender == wallet, \"HmyManager/not-authorized\");\n        _;\n    }\n\n    /**\n     * @dev constructor\n     * @param _wallet is the multisig wallet\n     */\n    constructor(address _wallet) public {\n        wallet = _wallet;\n    }\n\n    /**\n     * @dev lock tokens to be minted on harmony chain\n     * @param ethTokenAddr is the ethereum token contract address\n     * @param tokenId tokenId of the token to lock\n     * @param recipient recipient address on the harmony chain\n     */\n    function lockToken(\n        address ethTokenAddr,\n        uint256 tokenId,\n        address recipient\n    ) public {\n        require(\n            recipient != address(0),\n            \"EthManager/recipient is a zero address\"\n        );\n        IERC721 ethToken = IERC721(ethTokenAddr);\n        ethToken.safeTransferFrom(msg.sender, address(this), tokenId);\n        emit Locked(address(ethToken), msg.sender, tokenId, recipient);\n    }\n\n    /**\n     * @dev lock tokens to be minted on harmony chain\n     * @param ethTokenAddr is the ethereum token contract address\n     * @param tokenIds tokenIds of the token to lock\n     * @param recipient recipient address on the harmony chain\n     */\n    function lockTokens(\n        address ethTokenAddr,\n        uint256[] memory tokenIds,\n        address recipient\n    ) public {\n        require(\n            recipient != address(0),\n            \"EthManager/recipient is a zero address\"\n        );\n        IERC721 ethToken = IERC721(ethTokenAddr);\n        for (uint256 index = 0; index < tokenIds.length; index++) {\n            ethToken.safeTransferFrom(\n                msg.sender,\n                address(this),\n                tokenIds[index]\n            );\n            emit Locked(\n                address(ethToken),\n                msg.sender,\n                tokenIds[index],\n                recipient\n            );\n        }\n    }\n\n    /**\n     * @dev lock tokens for a user address to be minted on harmony chain\n     * @param ethTokenAddr is the ethereum token contract address\n     * @param userAddr is token holder address\n     * @param tokenId tokenId of the token to lock\n     * @param recipient recipient address on the harmony chain\n     */\n    function lockTokenFor(\n        address ethTokenAddr,\n        address userAddr,\n        uint256 tokenId,\n        address recipient\n    ) public onlyWallet {\n        require(\n            recipient != address(0),\n            \"EthManager/recipient is a zero address\"\n        );\n        IERC721 ethToken = IERC721(ethTokenAddr);\n        ethToken.safeTransferFrom(userAddr, address(this), tokenId);\n        emit Locked(address(ethToken), userAddr, tokenId, recipient);\n    }\n\n    /**\n     * @dev unlock tokens after burning them on harmony chain\n     * @param ethTokenAddr is the ethereum token contract address\n     * @param tokenId tokenId of the token to unlock\n     * @param recipient recipient of the unlock tokens\n     * @param receiptId transaction hash of the burn event on harmony chain\n     */\n    function unlockToken(\n        address ethTokenAddr,\n        uint256 tokenId,\n        address recipient,\n        bytes32 receiptId\n    ) public onlyWallet {\n        require(\n            !usedEvents_[receiptId],\n            \"EthManager/The burn event cannot be reused\"\n        );\n        IERC721 ethToken = IERC721(ethTokenAddr);\n        ethToken.safeTransferFrom(address(this), recipient, tokenId);\n        usedEvents_[receiptId] = true;\n        emit Unlocked(ethTokenAddr, tokenId, recipient, receiptId);\n    }\n\n    /**\n     * @dev unlock tokens after burning them on harmony chain\n     * @param ethTokenAddr is the ethereum token contract address\n     * @param tokenIds tokenIds of the token to unlock\n     * @param recipient recipient of the unlock tokens\n     * @param receiptId transaction hash of the burn event on harmony chain\n     */\n    function unlockTokens(\n        address ethTokenAddr,\n        uint256[] memory tokenIds,\n        address recipient,\n        bytes32 receiptId\n    ) public onlyWallet {\n        require(\n            !usedEvents_[receiptId],\n            \"EthManager/The burn event cannot be reused\"\n        );\n        IERC721 ethToken = IERC721(ethTokenAddr);\n        for (uint256 index = 0; index < tokenIds.length; index++) {\n            ethToken.safeTransferFrom(address(this), recipient, tokenIds[index]);\n            emit Unlocked(ethTokenAddr, tokenIds[index], recipient, receiptId);\n        }\n        usedEvents_[receiptId] = true;\n    }\n}\n",
  "sourcePath": "/Users/yuriy/pro5/ethhmy-bridge.contract/contracts/erc721/ERC721EthManager.sol",
  "compiler": {
    "name": "solc",
    "version": "0.5.17+commit.d19bba13.Emscripten.clang"
  },
  "schemaVersion": "3.2.0",
  "updatedAt": "2020-12-09T15:58:56.042Z",
  "devdoc": {
    "methods": {
      "constructor": {
        "details": "constructor",
        "params": {
          "_wallet": "is the multisig wallet"
        }
      },
      "lockToken(address,uint256,address)": {
        "details": "lock tokens to be minted on harmony chain",
        "params": {
          "ethTokenAddr": "is the ethereum token contract address",
          "recipient": "recipient address on the harmony chain",
          "tokenId": "tokenId of the token to lock"
        }
      },
      "lockTokenFor(address,address,uint256,address)": {
        "details": "lock tokens for a user address to be minted on harmony chain",
        "params": {
          "ethTokenAddr": "is the ethereum token contract address",
          "recipient": "recipient address on the harmony chain",
          "tokenId": "tokenId of the token to lock",
          "userAddr": "is token holder address"
        }
      },
      "lockTokens(address,uint256[],address)": {
        "details": "lock tokens to be minted on harmony chain",
        "params": {
          "ethTokenAddr": "is the ethereum token contract address",
          "recipient": "recipient address on the harmony chain",
          "tokenIds": "tokenIds of the token to lock"
        }
      },
      "unlockToken(address,uint256,address,bytes32)": {
        "details": "unlock tokens after burning them on harmony chain",
        "params": {
          "ethTokenAddr": "is the ethereum token contract address",
          "receiptId": "transaction hash of the burn event on harmony chain",
          "recipient": "recipient of the unlock tokens",
          "tokenId": "tokenId of the token to unlock"
        }
      },
      "unlockTokens(address,uint256[],address,bytes32)": {
        "details": "unlock tokens after burning them on harmony chain",
        "params": {
          "ethTokenAddr": "is the ethereum token contract address",
          "receiptId": "transaction hash of the burn event on harmony chain",
          "recipient": "recipient of the unlock tokens",
          "tokenIds": "tokenIds of the token to unlock"
        }
      }
    }
  },
  "userdoc": {
    "methods": {}
  }
}