{
  "contractName": "ERC721HmyManager",
  "abi": [
    {
      "inputs": [
        {
          "internalType": "address",
          "name": "_wallet",
          "type": "address"
        }
      ],
      "payable": false,
      "stateMutability": "nonpayable",
      "type": "constructor"
    },
    {
      "anonymous": false,
      "inputs": [
        {
          "indexed": true,
          "internalType": "address",
          "name": "token",
          "type": "address"
        },
        {
          "indexed": true,
          "internalType": "address",
          "name": "sender",
          "type": "address"
        },
        {
          "indexed": false,
          "internalType": "uint256",
          "name": "tokenId",
          "type": "uint256"
        },
        {
          "indexed": false,
          "internalType": "address",
          "name": "recipient",
          "type": "address"
        }
      ],
      "name": "Burned",
      "type": "event"
    },
    {
      "anonymous": false,
      "inputs": [
        {
          "indexed": false,
          "internalType": "address",
          "name": "oneToken",
          "type": "address"
        },
        {
          "indexed": false,
          "internalType": "uint256",
          "name": "tokenId",
          "type": "uint256"
        },
        {
          "indexed": false,
          "internalType": "address",
          "name": "recipient",
          "type": "address"
        },
        {
          "indexed": false,
          "internalType": "bytes32",
          "name": "receiptId",
          "type": "bytes32"
        }
      ],
      "name": "Minted",
      "type": "event"
    },
    {
      "constant": true,
      "inputs": [
        {
          "internalType": "address",
          "name": "",
          "type": "address"
        }
      ],
      "name": "mappings",
      "outputs": [
        {
          "internalType": "address",
          "name": "",
          "type": "address"
        }
      ],
      "payable": false,
      "stateMutability": "view",
      "type": "function"
    },
    {
      "constant": true,
      "inputs": [
        {
          "internalType": "bytes32",
          "name": "",
          "type": "bytes32"
        }
      ],
      "name": "usedEvents_",
      "outputs": [
        {
          "internalType": "bool",
          "name": "",
          "type": "bool"
        }
      ],
      "payable": false,
      "stateMutability": "view",
      "type": "function"
    },
    {
      "constant": true,
      "inputs": [],
      "name": "wallet",
      "outputs": [
        {
          "internalType": "address",
          "name": "",
          "type": "address"
        }
      ],
      "payable": false,
      "stateMutability": "view",
      "type": "function"
    },
    {
      "constant": false,
      "inputs": [
        {
          "internalType": "address",
          "name": "tokenManager",
          "type": "address"
        },
        {
          "internalType": "address",
          "name": "ethTokenAddr",
          "type": "address"
        },
        {
          "internalType": "string",
          "name": "name",
          "type": "string"
        },
        {
          "internalType": "string",
          "name": "symbol",
          "type": "string"
        }
      ],
      "name": "addToken",
      "outputs": [],
      "payable": false,
      "stateMutability": "nonpayable",
      "type": "function"
    },
    {
      "constant": false,
      "inputs": [
        {
          "internalType": "address",
          "name": "tokenManager",
          "type": "address"
        },
        {
          "internalType": "address",
          "name": "ethTokenAddr",
          "type": "address"
        }
      ],
      "name": "removeToken",
      "outputs": [],
      "payable": false,
      "stateMutability": "nonpayable",
      "type": "function"
    },
    {
      "constant": false,
      "inputs": [
        {
          "internalType": "address",
          "name": "oneToken",
          "type": "address"
        },
        {
          "internalType": "uint256",
          "name": "tokenId",
          "type": "uint256"
        },
        {
          "internalType": "address",
          "name": "recipient",
          "type": "address"
        }
      ],
      "name": "burnToken",
      "outputs": [],
      "payable": false,
      "stateMutability": "nonpayable",
      "type": "function"
    },
    {
      "constant": false,
      "inputs": [
        {
          "internalType": "address",
          "name": "oneToken",
          "type": "address"
        },
        {
          "internalType": "uint256[]",
          "name": "tokenIds",
          "type": "uint256[]"
        },
        {
          "internalType": "address",
          "name": "recipient",
          "type": "address"
        }
      ],
      "name": "burnTokens",
      "outputs": [],
      "payable": false,
      "stateMutability": "nonpayable",
      "type": "function"
    },
    {
      "constant": false,
      "inputs": [
        {
          "internalType": "address",
          "name": "oneToken",
          "type": "address"
        },
        {
          "internalType": "uint256",
          "name": "tokenId",
          "type": "uint256"
        },
        {
          "internalType": "address",
          "name": "recipient",
          "type": "address"
        },
        {
          "internalType": "bytes32",
          "name": "receiptId",
          "type": "bytes32"
        }
      ],
      "name": "mintToken",
      "outputs": [],
      "payable": false,
      "stateMutability": "nonpayable",
      "type": "function"
    },
    {
      "constant": false,
      "inputs": [
        {
          "internalType": "address",
          "name": "oneToken",
          "type": "address"
        },
        {
          "internalType": "uint256[]",
          "name": "tokenIds",
          "type": "uint256[]"
        },
        {
          "internalType": "address",
          "name": "recipient",
          "type": "address"
        },
        {
          "internalType": "bytes32",
          "name": "receiptId",
          "type": "bytes32"
        }
      ],
      "name": "mintTokens",
      "outputs": [],
      "payable": false,
      "stateMutability": "nonpayable",
      "type": "function"
    }
  ],
  "bytecode": "0x608060405234801561001057600080fd5b50604051610e1a380380610e1a8339818101604052602081101561003357600080fd5b5051600280546001600160a01b0319166001600160a01b03909216919091179055610db7806100636000396000f3fe608060405234801561001057600080fd5b50600436106100935760003560e01c80639735b0e3116100665780639735b0e3146102e2578063a0e3d1a014610310578063bccc9fcf14610346578063c160e37014610377578063f633be1e1461043657610093565b80631a10a07c146100985780634110261914610156578063521eb273146101985780637c0800dd146101a0575b600080fd5b610154600480360360608110156100ae57600080fd5b6001600160a01b038235169190810190604081016020820135600160201b8111156100d857600080fd5b8201836020820111156100ea57600080fd5b803590602001918460208302840111600160201b8311171561010b57600080fd5b919080806020026020016040519081016040528093929190818152602001838360200280828437600092019190915250929550505090356001600160a01b031691506104709050565b005b61017c6004803603602081101561016c57600080fd5b50356001600160a01b03166105e0565b604080516001600160a01b039092168252519081900360200190f35b61017c6105fb565b610154600480360360808110156101b657600080fd5b6001600160a01b038235811692602081013590911691810190606081016040820135600160201b8111156101e957600080fd5b8201836020820111156101fb57600080fd5b803590602001918460018302840111600160201b8311171561021c57600080fd5b91908080601f0160208091040260200160405190810160405280939291908181526020018383808284376000920191909152509295949360208101935035915050600160201b81111561026e57600080fd5b82018360208201111561028057600080fd5b803590602001918460018302840111600160201b831117156102a157600080fd5b91908080601f01602080910402602001604051908101604052809392919081815260200183838082843760009201919091525092955061060a945050505050565b610154600480360360408110156102f857600080fd5b506001600160a01b0381358116916020013516610797565b6101546004803603606081101561032657600080fd5b506001600160a01b03813581169160208101359160409091013516610802565b6103636004803603602081101561035c57600080fd5b503561090a565b604080519115158252519081900360200190f35b6101546004803603608081101561038d57600080fd5b6001600160a01b038235169190810190604081016020820135600160201b8111156103b757600080fd5b8201836020820111156103c957600080fd5b803590602001918460208302840111600160201b831117156103ea57600080fd5b919080806020026020016040519081016040528093929190818152602001838360200280828437600092019190915250929550506001600160a01b03833516935050506020013561091f565b6101546004803603608081101561044c57600080fd5b506001600160a01b0381358116916020810135916040820135169060600135610b5e565b60005b82518110156105da57836001600160a01b03166379cc67903385848151811061049857fe5b60200260200101516040518363ffffffff1660e01b815260040180836001600160a01b03166001600160a01b0316815260200182815260200192505050600060405180830381600087803b1580156104ef57600080fd5b505af1158015610503573d6000803e3d6000fd5b50505050836001600160a01b0316632baeceb76040518163ffffffff1660e01b8152600401600060405180830381600087803b15801561054257600080fd5b505af1158015610556573d6000803e3d6000fd5b50505050336001600160a01b0316846001600160a01b03167f47b4128ad231bee46bdb1f8614450b5ffe6eb96340e87519a0c3a8b91ee714ec85848151811061059b57fe5b60200260200101518560405180838152602001826001600160a01b03166001600160a01b031681526020019250505060405180910390a3600101610473565b50505050565b6001602052600090815260409020546001600160a01b031681565b6002546001600160a01b031681565b6000846001600160a01b031663e73c20198585856040518463ffffffff1660e01b815260040180846001600160a01b03166001600160a01b031681526020018060200180602001838103835285818151815260200191508051906020019080838360005b8381101561068657818101518382015260200161066e565b50505050905090810190601f1680156106b35780820380516001836020036101000a031916815260200191505b50838103825284518152845160209182019186019080838360005b838110156106e65781810151838201526020016106ce565b50505050905090810190601f1680156107135780820380516001836020036101000a031916815260200191505b5095505050505050602060405180830381600087803b15801561073557600080fd5b505af1158015610749573d6000803e3d6000fd5b505050506040513d602081101561075f57600080fd5b50516001600160a01b03948516600090815260016020526040902080546001600160a01b031916959091169490941790935550505050565b604080516309dd78f360e11b81526001600160a01b0383811660048301526000602483018190529251908516926313baf1e6926044808201939182900301818387803b1580156107e657600080fd5b505af11580156107fa573d6000803e3d6000fd5b505050505050565b6040805163079cc67960e41b81523360048201526024810184905290516001600160a01b038516916379cc679091604480830192600092919082900301818387803b15801561085057600080fd5b505af1158015610864573d6000803e3d6000fd5b50505050826001600160a01b0316632baeceb76040518163ffffffff1660e01b8152600401600060405180830381600087803b1580156108a357600080fd5b505af11580156108b7573d6000803e3d6000fd5b5050604080518581526001600160a01b038581166020830152825133955090881693507f47b4128ad231bee46bdb1f8614450b5ffe6eb96340e87519a0c3a8b91ee714ec929181900390910190a3505050565b60006020819052908152604090205460ff1681565b6002546001600160a01b0316331461097a576040805162461bcd60e51b8152602060048201526019602482015278121b5e53585b9859d95c8bdb9bdd0b585d5d1a1bdc9a5e9959603a1b604482015290519081900360640190fd5b60008181526020819052604090205460ff16156109c85760405162461bcd60e51b815260040180806020018281038252602a815260200180610d59602a913960400191505060405180910390fd5b60005b8351811015610b3f57846001600160a01b03166340c10f19848684815181106109f057fe5b60200260200101516040518363ffffffff1660e01b815260040180836001600160a01b03166001600160a01b0316815260200182815260200192505050602060405180830381600087803b158015610a4757600080fd5b505af1158015610a5b573d6000803e3d6000fd5b505050506040513d6020811015610a7157600080fd5b50506040805163684ef04560e11b815290516001600160a01b0387169163d09de08a91600480830192600092919082900301818387803b158015610ab457600080fd5b505af1158015610ac8573d6000803e3d6000fd5b505050507ffdc0a3af821280dd73e4f6683e16c5afc31a629d07af623f9a4689d68559388685858381518110610afa57fe5b602090810291909101810151604080516001600160a01b03948516815292830191909152918616818301526060810185905290519081900360800190a16001016109cb565b506000908152602081905260409020805460ff19166001179055505050565b6002546001600160a01b03163314610bb9576040805162461bcd60e51b8152602060048201526019602482015278121b5e53585b9859d95c8bdb9bdd0b585d5d1a1bdc9a5e9959603a1b604482015290519081900360640190fd5b60008181526020819052604090205460ff1615610c075760405162461bcd60e51b815260040180806020018281038252602a815260200180610d59602a913960400191505060405180910390fd5b836001600160a01b03166340c10f1983856040518363ffffffff1660e01b815260040180836001600160a01b03166001600160a01b0316815260200182815260200192505050602060405180830381600087803b158015610c6757600080fd5b505af1158015610c7b573d6000803e3d6000fd5b505050506040513d6020811015610c9157600080fd5b5050600081815260208190526040808220805460ff19166001179055805163684ef04560e11b815290516001600160a01b0387169263d09de08a926004808201939182900301818387803b158015610ce857600080fd5b505af1158015610cfc573d6000803e3d6000fd5b5050604080516001600160a01b038089168252602082018890528616818301526060810185905290517ffdc0a3af821280dd73e4f6683e16c5afc31a629d07af623f9a4689d6855938869350908190036080019150a15050505056fe486d794d616e616765722f546865206c6f636b206576656e742063616e6e6f7420626520726575736564a265627a7a72315820dac0d895b940d1584fcd0a185537929309120de3158241f78b260f073ab6429564736f6c63430005110032",
  "source": "pragma solidity 0.5.17;\nimport \"@openzeppelin/contracts/token/ERC721/IERC721.sol\";\nimport \"../lib/NFTTokenManager.sol\";\nimport \"../lib/BridgedNFTToken.sol\";\n\ninterface MintableToken {\n    function mint(address beneficiary, uint256 tokenId) external returns (bool);\n}\n\ninterface BurnableToken {\n    function burnFrom(address account, uint256 tokenId) external;\n}\n\ncontract ERC721HmyManager {\n    mapping(bytes32 => bool) public usedEvents_;\n    mapping(address => address) public mappings;\n\n    event Burned(\n        address indexed token,\n        address indexed sender,\n        uint256 tokenId,\n        address recipient\n    );\n\n    event Minted(\n        address oneToken,\n        uint256 tokenId,\n        address recipient,\n        bytes32 receiptId\n    );\n\n    address public wallet;\n    modifier onlyWallet {\n        require(msg.sender == wallet, \"HmyManager/not-authorized\");\n        _;\n    }\n\n    /**\n     * @dev constructor\n     * @param _wallet is the multisig wallet\n     */\n    constructor(address _wallet) public {\n        wallet = _wallet;\n    }\n\n    /**\n     * @dev map an ethereum token to harmony\n     * @param tokenManager address to token manager\n     * @param ethTokenAddr ethereum token address to map\n     * @param name of the ethereum token\n     * @param symbol of the ethereum token\n     */\n    function addToken(\n        address tokenManager,\n        address ethTokenAddr,\n        string memory name,\n        string memory symbol\n    ) public {\n        address oneTokenAddr = NFTTokenManager(tokenManager).addToken(\n            ethTokenAddr,\n            name,\n            symbol\n        );\n        mappings[ethTokenAddr] = oneTokenAddr;\n    }\n\n    /**\n     * @dev deregister token mapping in the token manager\n     * @param tokenManager address to token manager\n     * @param ethTokenAddr address to remove token\n     */\n    function removeToken(address tokenManager, address ethTokenAddr) public {\n        NFTTokenManager(tokenManager).removeToken(ethTokenAddr, 0);\n    }\n\n    /**\n     * @dev burns tokens on harmony to be unlocked on ethereum\n     * @param oneToken harmony token address\n     * @param tokenId tokenId to burn\n     * @param recipient recipient of the unlock tokens on ethereum\n     */\n    function burnToken(\n        address oneToken,\n        uint256 tokenId,\n        address recipient\n    ) public {\n        BurnableToken(oneToken).burnFrom(msg.sender, tokenId);\n        BridgedNFTToken(oneToken).decrement();\n        emit Burned(oneToken, msg.sender, tokenId, recipient);\n    }\n\n    /**\n     * @dev burns tokens on harmony to be unlocked on ethereum\n     * @param oneToken harmony token address\n     * @param tokenIds tokenIds to burn\n     * @param recipient recipient of the unlock tokens on ethereum\n     */\n    function burnTokens(\n        address oneToken,\n        uint256[] memory tokenIds,\n        address recipient\n    ) public {\n        for (uint256 index = 0; index < tokenIds.length; index++) {\n            BurnableToken(oneToken).burnFrom(msg.sender, tokenIds[index]);\n            BridgedNFTToken(oneToken).decrement();\n            emit Burned(oneToken, msg.sender, tokenIds[index], recipient);\n        }\n    }\n\n    /**\n     * @dev mints tokens corresponding to the tokens locked in the ethereum chain\n     * @param oneToken is the token address for minting\n     * @param tokenId tokenId for minting\n     * @param recipient recipient of the minted tokens (harmony address)\n     * @param receiptId transaction hash of the lock event on ethereum chain\n     */\n    function mintToken(\n        address oneToken,\n        uint256 tokenId,\n        address recipient,\n        bytes32 receiptId\n    ) public onlyWallet {\n        require(\n            !usedEvents_[receiptId],\n            \"HmyManager/The lock event cannot be reused\"\n        );\n        MintableToken(oneToken).mint(recipient, tokenId);\n        usedEvents_[receiptId] = true;\n        BridgedNFTToken(oneToken).increment();\n        emit Minted(oneToken, tokenId, recipient, receiptId);\n    }\n\n    /**\n     * @dev mints tokens corresponding to the tokens locked in the ethereum chain\n     * @param oneToken is the token address for minting\n     * @param tokenIds tokenIds for minting\n     * @param recipient recipient of the minted tokens (harmony address)\n     * @param receiptId transaction hash of the lock event on ethereum chain\n     */\n    function mintTokens(\n        address oneToken,\n        uint256[] memory tokenIds,\n        address recipient,\n        bytes32 receiptId\n    ) public onlyWallet {\n        require(\n            !usedEvents_[receiptId],\n            \"HmyManager/The lock event cannot be reused\"\n        );\n        for (uint256 index = 0; index < tokenIds.length; index++) {\n            MintableToken(oneToken).mint(recipient, tokenIds[index]);\n            BridgedNFTToken(oneToken).increment();\n            emit Minted(oneToken, tokenIds[index], recipient, receiptId);\n        }\n        usedEvents_[receiptId] = true;\n    }\n}\n",
  "sourcePath": "/Users/yuriy/pro5/ethhmy-bridge.contract/contracts/erc721/ERC721HmyManager.sol",
  "compiler": {
    "name": "solc",
    "version": "0.5.17+commit.d19bba13.Emscripten.clang"
  },
  "schemaVersion": "3.2.0",
  "updatedAt": "2020-12-09T15:58:56.049Z",
  "devdoc": {
    "methods": {
      "addToken(address,address,string,string)": {
        "details": "map an ethereum token to harmony",
        "params": {
          "ethTokenAddr": "ethereum token address to map",
          "name": "of the ethereum token",
          "symbol": "of the ethereum token",
          "tokenManager": "address to token manager"
        }
      },
      "burnToken(address,uint256,address)": {
        "details": "burns tokens on harmony to be unlocked on ethereum",
        "params": {
          "oneToken": "harmony token address",
          "recipient": "recipient of the unlock tokens on ethereum",
          "tokenId": "tokenId to burn"
        }
      },
      "burnTokens(address,uint256[],address)": {
        "details": "burns tokens on harmony to be unlocked on ethereum",
        "params": {
          "oneToken": "harmony token address",
          "recipient": "recipient of the unlock tokens on ethereum",
          "tokenIds": "tokenIds to burn"
        }
      },
      "constructor": {
        "details": "constructor",
        "params": {
          "_wallet": "is the multisig wallet"
        }
      },
      "mintToken(address,uint256,address,bytes32)": {
        "details": "mints tokens corresponding to the tokens locked in the ethereum chain",
        "params": {
          "oneToken": "is the token address for minting",
          "receiptId": "transaction hash of the lock event on ethereum chain",
          "recipient": "recipient of the minted tokens (harmony address)",
          "tokenId": "tokenId for minting"
        }
      },
      "mintTokens(address,uint256[],address,bytes32)": {
        "details": "mints tokens corresponding to the tokens locked in the ethereum chain",
        "params": {
          "oneToken": "is the token address for minting",
          "receiptId": "transaction hash of the lock event on ethereum chain",
          "recipient": "recipient of the minted tokens (harmony address)",
          "tokenIds": "tokenIds for minting"
        }
      },
      "removeToken(address,address)": {
        "details": "deregister token mapping in the token manager",
        "params": {
          "ethTokenAddr": "address to remove token",
          "tokenManager": "address to token manager"
        }
      }
    }
  },
  "userdoc": {
    "methods": {}
  }
}