{
  "contractName": "HRC20HmyManager",
  "abi": [
    {
      "inputs": [
        {
          "internalType": "address",
          "name": "_wallet",
          "type": "address"
        }
      ],
      "payable": false,
      "stateMutability": "nonpayable",
      "type": "constructor"
    },
    {
      "anonymous": false,
      "inputs": [
        {
          "indexed": true,
          "internalType": "address",
          "name": "token",
          "type": "address"
        },
        {
          "indexed": true,
          "internalType": "address",
          "name": "sender",
          "type": "address"
        },
        {
          "indexed": false,
          "internalType": "uint256",
          "name": "amount",
          "type": "uint256"
        },
        {
          "indexed": false,
          "internalType": "address",
          "name": "recipient",
          "type": "address"
        }
      ],
      "name": "Locked",
      "type": "event"
    },
    {
      "anonymous": false,
      "inputs": [
        {
          "indexed": false,
          "internalType": "address",
          "name": "hmyToken",
          "type": "address"
        },
        {
          "indexed": false,
          "internalType": "uint256",
          "name": "amount",
          "type": "uint256"
        },
        {
          "indexed": false,
          "internalType": "address",
          "name": "recipient",
          "type": "address"
        },
        {
          "indexed": false,
          "internalType": "bytes32",
          "name": "receiptId",
          "type": "bytes32"
        }
      ],
      "name": "Unlocked",
      "type": "event"
    },
    {
      "constant": true,
      "inputs": [],
      "name": "HMY_ADDRESS",
      "outputs": [
        {
          "internalType": "contract IERC20",
          "name": "",
          "type": "address"
        }
      ],
      "payable": false,
      "stateMutability": "view",
      "type": "function"
    },
    {
      "constant": true,
      "inputs": [
        {
          "internalType": "bytes32",
          "name": "",
          "type": "bytes32"
        }
      ],
      "name": "usedEvents_",
      "outputs": [
        {
          "internalType": "bool",
          "name": "",
          "type": "bool"
        }
      ],
      "payable": false,
      "stateMutability": "view",
      "type": "function"
    },
    {
      "constant": true,
      "inputs": [],
      "name": "wallet",
      "outputs": [
        {
          "internalType": "address",
          "name": "",
          "type": "address"
        }
      ],
      "payable": false,
      "stateMutability": "view",
      "type": "function"
    },
    {
      "constant": false,
      "inputs": [
        {
          "internalType": "address",
          "name": "hmyTokenAddr",
          "type": "address"
        },
        {
          "internalType": "uint256",
          "name": "amount",
          "type": "uint256"
        },
        {
          "internalType": "address",
          "name": "recipient",
          "type": "address"
        }
      ],
      "name": "lockToken",
      "outputs": [],
      "payable": false,
      "stateMutability": "nonpayable",
      "type": "function"
    },
    {
      "constant": false,
      "inputs": [
        {
          "internalType": "address",
          "name": "hmyTokenAddr",
          "type": "address"
        },
        {
          "internalType": "address",
          "name": "userAddr",
          "type": "address"
        },
        {
          "internalType": "uint256",
          "name": "amount",
          "type": "uint256"
        },
        {
          "internalType": "address",
          "name": "recipient",
          "type": "address"
        }
      ],
      "name": "lockTokenFor",
      "outputs": [],
      "payable": false,
      "stateMutability": "nonpayable",
      "type": "function"
    },
    {
      "constant": false,
      "inputs": [
        {
          "internalType": "address",
          "name": "hmyTokenAddr",
          "type": "address"
        },
        {
          "internalType": "uint256",
          "name": "amount",
          "type": "uint256"
        },
        {
          "internalType": "address",
          "name": "recipient",
          "type": "address"
        },
        {
          "internalType": "bytes32",
          "name": "receiptId",
          "type": "bytes32"
        }
      ],
      "name": "unlockToken",
      "outputs": [],
      "payable": false,
      "stateMutability": "nonpayable",
      "type": "function"
    },
    {
      "constant": false,
      "inputs": [
        {
          "internalType": "uint256",
          "name": "amount",
          "type": "uint256"
        },
        {
          "internalType": "address",
          "name": "recipient",
          "type": "address"
        }
      ],
      "name": "lockOne",
      "outputs": [],
      "payable": true,
      "stateMutability": "payable",
      "type": "function"
    },
    {
      "constant": false,
      "inputs": [
        {
          "internalType": "uint256",
          "name": "amount",
          "type": "uint256"
        },
        {
          "internalType": "address payable",
          "name": "recipient",
          "type": "address"
        },
        {
          "internalType": "bytes32",
          "name": "receiptId",
          "type": "bytes32"
        }
      ],
      "name": "unlockOne",
      "outputs": [],
      "payable": false,
      "stateMutability": "nonpayable",
      "type": "function"
    }
  ],
  "bytecode": "0x608060405234801561001057600080fd5b50604051610f3c380380610f3c8339818101604052602081101561003357600080fd5b5051600180546001600160a01b0319166001600160a01b03909216919091179055610ed9806100636000396000f3fe60806040526004361061007b5760003560e01c8063521eb2731161004e578063521eb2731461017e578063816d1cd914610193578063bccc9fcf146101bf578063fe7f61ea146101fd5761007b565b80630296be631461008057806309eb2728146100cb5780631486abd61461010e57806317cebe641461014d575b600080fd5b34801561008c57600080fd5b506100c9600480360360808110156100a357600080fd5b506001600160a01b03813581169160208101358216916040820135916060013516610244565b005b3480156100d757600080fd5b506100c9600480360360608110156100ee57600080fd5b506001600160a01b038135811691602081013591604090910135166104cd565b34801561011a57600080fd5b506100c96004803603606081101561013157600080fd5b508035906001600160a01b0360208201351690604001356106d8565b34801561015957600080fd5b50610162610836565b604080516001600160a01b039092168252519081900360200190f35b34801561018a57600080fd5b5061016261084e565b6100c9600480360360408110156101a957600080fd5b50803590602001356001600160a01b031661085d565b3480156101cb57600080fd5b506101e9600480360360208110156101e257600080fd5b5035610955565b604080519115158252519081900360200190f35b34801561020957600080fd5b506100c96004803603608081101561022057600080fd5b506001600160a01b038135811691602081013591604082013516906060013561096a565b6001546001600160a01b0316331461029f576040805162461bcd60e51b8152602060048201526019602482015278121b5e53585b9859d95c8bdb9bdd0b585d5d1a1bdc9a5e9959603a1b604482015290519081900360640190fd5b6001600160a01b0381166102e45760405162461bcd60e51b8152600401808060200182810382526026815260200180610e2b6026913960400191505060405180910390fd5b60008211610339576040805162461bcd60e51b815260206004820152601c60248201527f486d794d616e616765722f7a65726f20746f6b656e206c6f636b656400000000604482015290519081900360640190fd5b60008490506000816001600160a01b03166370a08231866040518263ffffffff1660e01b815260040180826001600160a01b03166001600160a01b0316815260200191505060206040518083038186803b15801561039657600080fd5b505afa1580156103aa573d6000803e3d6000fd5b505050506040513d60208110156103c057600080fd5b505190506103df6001600160a01b03831686308763ffffffff610a9f16565b6000826001600160a01b03166370a08231876040518263ffffffff1660e01b815260040180826001600160a01b03166001600160a01b0316815260200191505060206040518083038186803b15801561043757600080fd5b505afa15801561044b573d6000803e3d6000fd5b505050506040513d602081101561046157600080fd5b505190506000610477838363ffffffff610aff16565b604080518281526001600160a01b0388811660208301528251939450808b1693908816927f4c6ab40ee4cfa212a441d32ee2897945b4a52461284f9369e23fdf8faa6cdd69928290030190a35050505050505050565b6001600160a01b0381166105125760405162461bcd60e51b8152600401808060200182810382526026815260200180610e2b6026913960400191505060405180910390fd5b60008211610567576040805162461bcd60e51b815260206004820152601c60248201527f486d794d616e616765722f7a65726f20746f6b656e206c6f636b656400000000604482015290519081900360640190fd5b604080516370a0823160e01b8152336004820152905184916000916001600160a01b038416916370a08231916024808301926020929190829003018186803b1580156105b257600080fd5b505afa1580156105c6573d6000803e3d6000fd5b505050506040513d60208110156105dc57600080fd5b505190506105fb6001600160a01b03831633308763ffffffff610a9f16565b604080516370a0823160e01b815233600482015290516000916001600160a01b038516916370a0823191602480820192602092909190829003018186803b15801561064557600080fd5b505afa158015610659573d6000803e3d6000fd5b505050506040513d602081101561066f57600080fd5b505190506000610685838363ffffffff610aff16565b604080518281526001600160a01b03888116602083015282519394503393908816927f4c6ab40ee4cfa212a441d32ee2897945b4a52461284f9369e23fdf8faa6cdd69928290030190a350505050505050565b6001546001600160a01b03163314610733576040805162461bcd60e51b8152602060048201526019602482015278121b5e53585b9859d95c8bdb9bdd0b585d5d1a1bdc9a5e9959603a1b604482015290519081900360640190fd5b60008181526020819052604090205460ff16156107815760405162461bcd60e51b815260040180806020018281038252602a815260200180610e51602a913960400191505060405180910390fd5b600081815260208190526040808220805460ff19166001179055516001600160a01b0384169185156108fc02918691818181858888f193505050501580156107cd573d6000803e3d6000fd5b506040805173eeeeeeeeeeeeeeeeeeeeeeeeeeeeeeeeeeeeeeee8152602081018590526001600160a01b038416818301526060810183905290517fb24e65d2501e29a3ce014b0cc2283699c081ad27f10d64f036f96912b6f8943e9181900360800190a1505050565b73eeeeeeeeeeeeeeeeeeeeeeeeeeeeeeeeeeeeeeee81565b6001546001600160a01b031681565b6001600160a01b0381166108a25760405162461bcd60e51b8152600401808060200182810382526026815260200180610e2b6026913960400191505060405180910390fd5b8134146108f6576040805162461bcd60e51b815260206004820152601c60248201527f486d794d616e616765722f7a65726f20746f6b656e206c6f636b656400000000604482015290519081900360640190fd5b604080518381526001600160a01b03831660208201528151339273eeeeeeeeeeeeeeeeeeeeeeeeeeeeeeeeeeeeeeee927f4c6ab40ee4cfa212a441d32ee2897945b4a52461284f9369e23fdf8faa6cdd69929081900390910190a35050565b60006020819052908152604090205460ff1681565b6001546001600160a01b031633146109c5576040805162461bcd60e51b8152602060048201526019602482015278121b5e53585b9859d95c8bdb9bdd0b585d5d1a1bdc9a5e9959603a1b604482015290519081900360640190fd5b60008181526020819052604090205460ff1615610a135760405162461bcd60e51b815260040180806020018281038252602a815260200180610e51602a913960400191505060405180910390fd5b6000818152602081905260409020805460ff1916600117905583610a476001600160a01b038216848663ffffffff610b4816565b604080516001600160a01b038088168252602082018790528516818301526060810184905290517fb24e65d2501e29a3ce014b0cc2283699c081ad27f10d64f036f96912b6f8943e9181900360800190a15050505050565b604080516001600160a01b0385811660248301528416604482015260648082018490528251808303909101815260849091019091526020810180516001600160e01b03166323b872dd60e01b179052610af9908590610b9f565b50505050565b6000610b4183836040518060400160405280601e81526020017f536166654d6174683a207375627472616374696f6e206f766572666c6f770000815250610d57565b9392505050565b604080516001600160a01b038416602482015260448082018490528251808303909101815260649091019091526020810180516001600160e01b031663a9059cbb60e01b179052610b9a908490610b9f565b505050565b610bb1826001600160a01b0316610dee565b610c02576040805162461bcd60e51b815260206004820152601f60248201527f5361666545524332303a2063616c6c20746f206e6f6e2d636f6e747261637400604482015290519081900360640190fd5b60006060836001600160a01b0316836040518082805190602001908083835b60208310610c405780518252601f199092019160209182019101610c21565b6001836020036101000a0380198251168184511680821785525050505050509050019150506000604051808303816000865af19150503d8060008114610ca2576040519150601f19603f3d011682016040523d82523d6000602084013e610ca7565b606091505b509150915081610cfe576040805162461bcd60e51b815260206004820181905260248201527f5361666545524332303a206c6f772d6c6576656c2063616c6c206661696c6564604482015290519081900360640190fd5b805115610af957808060200190516020811015610d1a57600080fd5b5051610af95760405162461bcd60e51b815260040180806020018281038252602a815260200180610e7b602a913960400191505060405180910390fd5b60008184841115610de65760405162461bcd60e51b81526004018080602001828103825283818151815260200191508051906020019080838360005b83811015610dab578181015183820152602001610d93565b50505050905090810190601f168015610dd85780820380516001836020036101000a031916815260200191505b509250505060405180910390fd5b505050900390565b6000813f7fc5d2460186f7233c927e7db2dcc703c0e500b653ca82273b7bfad8045d85a470818114801590610e2257508115155b94935050505056fe486d794d616e616765722f726563697069656e742069732061207a65726f2061646472657373486d794d616e616765722f546865206275726e206576656e742063616e6e6f74206265207265757365645361666545524332303a204552433230206f7065726174696f6e20646964206e6f742073756363656564a265627a7a7231582064acdd8383c28e91508f07cd3e4df1975d64577b73412390929e802879057d9e64736f6c63430005110032",
  "source": "pragma solidity 0.5.17;\nimport \"@openzeppelin/contracts/math/SafeMath.sol\";\nimport \"@openzeppelin/contracts/token/ERC20/IERC20.sol\";\nimport \"@openzeppelin/contracts/token/ERC20/SafeERC20.sol\";\n\ncontract HRC20HmyManager {\n    using SafeMath for uint256;\n    using SafeERC20 for IERC20;\n\n    IERC20 public constant HMY_ADDRESS = IERC20(0x00eeeeeeeeeeeeeeeeeeeeeeeeeeeeeeeeeeeeeeee);\n\n    mapping(bytes32 => bool) public usedEvents_;\n\n    event Locked(\n        address indexed token,\n        address indexed sender,\n        uint256 amount,\n        address recipient\n    );\n\n    event Unlocked(\n        address hmyToken,\n        uint256 amount,\n        address recipient,\n        bytes32 receiptId\n    );\n\n    address public wallet;\n    modifier onlyWallet {\n        require(msg.sender == wallet, \"HmyManager/not-authorized\");\n        _;\n    }\n\n    /**\n     * @dev constructor\n     * @param _wallet is the multisig wallet\n     */\n    constructor(address _wallet) public {\n        wallet = _wallet;\n    }\n\n    /**\n     * @dev lock tokens to be minted on harmony chain\n     * @param hmyTokenAddr is the ethereum token contract address\n     * @param amount amount of tokens to lock\n     * @param recipient recipient address on the harmony chain\n     */\n    function lockToken(\n        address hmyTokenAddr,\n        uint256 amount,\n        address recipient\n    ) public {\n        require(\n            recipient != address(0),\n            \"HmyManager/recipient is a zero address\"\n        );\n        require(amount > 0, \"HmyManager/zero token locked\");\n        IERC20 hmyToken = IERC20(hmyTokenAddr);\n        uint256 _balanceBefore = hmyToken.balanceOf(msg.sender);\n        hmyToken.safeTransferFrom(msg.sender, address(this), amount);\n        uint256 _balanceAfter = hmyToken.balanceOf(msg.sender);\n        uint256 _actualAmount = _balanceBefore.sub(_balanceAfter);\n        emit Locked(address(hmyToken), msg.sender, _actualAmount, recipient);\n    }\n\n    /**\n     * @dev lock tokens for a user address to be minted on harmony chain\n     * @param hmyTokenAddr is the ethereum token contract address\n     * @param userAddr is token holder address\n     * @param amount amount of tokens to lock\n     * @param recipient recipient address on the harmony chain\n     */\n    function lockTokenFor(\n        address hmyTokenAddr,\n        address userAddr,\n        uint256 amount,\n        address recipient\n    ) public onlyWallet {\n        require(\n            recipient != address(0),\n            \"HmyManager/recipient is a zero address\"\n        );\n        require(amount > 0, \"HmyManager/zero token locked\");\n        IERC20 hmyToken = IERC20(hmyTokenAddr);\n        uint256 _balanceBefore = hmyToken.balanceOf(userAddr);\n        hmyToken.safeTransferFrom(userAddr, address(this), amount);\n        uint256 _balanceAfter = hmyToken.balanceOf(userAddr);\n        uint256 _actualAmount = _balanceBefore.sub(_balanceAfter);\n        emit Locked(address(hmyToken), userAddr, _actualAmount, recipient);\n    }\n\n    /**\n     * @dev unlock tokens after burning them on harmony chain\n     * @param hmyTokenAddr is the ethereum token contract address\n     * @param amount amount of unlock tokens\n     * @param recipient recipient of the unlock tokens\n     * @param receiptId transaction hash of the burn event on harmony chain\n     */\n    function unlockToken(\n        address hmyTokenAddr,\n        uint256 amount,\n        address recipient,\n        bytes32 receiptId\n    ) public onlyWallet {\n        require(\n            !usedEvents_[receiptId],\n            \"HmyManager/The burn event cannot be reused\"\n        );\n        IERC20 hmyToken = IERC20(hmyTokenAddr);\n        usedEvents_[receiptId] = true;\n        hmyToken.safeTransfer(recipient, amount);\n        emit Unlocked(hmyTokenAddr, amount, recipient, receiptId);\n    }\n\n    /**\n     * @dev lock ONE to be minted on ethereum chain\n     * @param amount amount of tokens to lock\n     * @param recipient recipient address on the harmony chain\n     */\n    function lockOne(\n        uint256 amount,\n        address recipient\n    ) public payable {\n        require(\n            recipient != address(0),\n            \"HmyManager/recipient is a zero address\"\n        );\n        require(msg.value == amount, \"HmyManager/zero token locked\");\n        emit Locked(address(HMY_ADDRESS), msg.sender, amount, recipient);\n    }\n\n    /**\n     * @dev unlock ETHs after burning them on harmony chain\n     * @param amount amount of unlock tokens\n     * @param recipient recipient of the unlock tokens\n     * @param receiptId transaction hash of the burn event on harmony chain\n     */\n    function unlockOne(\n        uint256 amount,\n        address payable recipient,\n        bytes32 receiptId\n    ) public onlyWallet {\n        require(\n            !usedEvents_[receiptId],\n            \"HmyManager/The burn event cannot be reused\"\n        );\n        usedEvents_[receiptId] = true;\n        recipient.transfer(amount);\n        emit Unlocked(address(HMY_ADDRESS), amount, recipient, receiptId);\n    }\n}\n",
  "sourcePath": "/Users/yuriy/pro5/bridge.contract-new/contracts/hrc20/HRC20HmyManager.sol",
  "compiler": {
    "name": "solc",
    "version": "0.5.17+commit.d19bba13.Emscripten.clang"
  },
  "schemaVersion": "3.2.0",
  "updatedAt": "2021-01-05T18:48:27.279Z",
  "devdoc": {
    "methods": {
      "constructor": {
        "details": "constructor",
        "params": {
          "_wallet": "is the multisig wallet"
        }
      },
      "lockOne(uint256,address)": {
        "details": "lock ONE to be minted on ethereum chain",
        "params": {
          "amount": "amount of tokens to lock",
          "recipient": "recipient address on the harmony chain"
        }
      },
      "lockToken(address,uint256,address)": {
        "details": "lock tokens to be minted on harmony chain",
        "params": {
          "amount": "amount of tokens to lock",
          "hmyTokenAddr": "is the ethereum token contract address",
          "recipient": "recipient address on the harmony chain"
        }
      },
      "lockTokenFor(address,address,uint256,address)": {
        "details": "lock tokens for a user address to be minted on harmony chain",
        "params": {
          "amount": "amount of tokens to lock",
          "hmyTokenAddr": "is the ethereum token contract address",
          "recipient": "recipient address on the harmony chain",
          "userAddr": "is token holder address"
        }
      },
      "unlockOne(uint256,address,bytes32)": {
        "details": "unlock ETHs after burning them on harmony chain",
        "params": {
          "amount": "amount of unlock tokens",
          "receiptId": "transaction hash of the burn event on harmony chain",
          "recipient": "recipient of the unlock tokens"
        }
      },
      "unlockToken(address,uint256,address,bytes32)": {
        "details": "unlock tokens after burning them on harmony chain",
        "params": {
          "amount": "amount of unlock tokens",
          "hmyTokenAddr": "is the ethereum token contract address",
          "receiptId": "transaction hash of the burn event on harmony chain",
          "recipient": "recipient of the unlock tokens"
        }
      }
    }
  },
  "userdoc": {
    "methods": {}
  }
}