{
  "contractName": "LINKEthManager",
  "abi": [
    {
      "inputs": [
        {
          "internalType": "contract ILINK",
          "name": "link",
          "type": "address"
        }
      ],
      "payable": false,
      "stateMutability": "nonpayable",
      "type": "constructor"
    },
    {
      "anonymous": false,
      "inputs": [
        {
          "indexed": true,
          "internalType": "address",
          "name": "token",
          "type": "address"
        },
        {
          "indexed": true,
          "internalType": "address",
          "name": "sender",
          "type": "address"
        },
        {
          "indexed": false,
          "internalType": "uint256",
          "name": "amount",
          "type": "uint256"
        },
        {
          "indexed": false,
          "internalType": "address",
          "name": "recipient",
          "type": "address"
        }
      ],
      "name": "Locked",
      "type": "event"
    },
    {
      "anonymous": false,
      "inputs": [
        {
          "indexed": false,
          "internalType": "uint256",
          "name": "amount",
          "type": "uint256"
        },
        {
          "indexed": false,
          "internalType": "address",
          "name": "recipient",
          "type": "address"
        }
      ],
      "name": "Unlocked",
      "type": "event"
    },
    {
      "constant": true,
      "inputs": [],
      "name": "link_",
      "outputs": [
        {
          "internalType": "contract ILINK",
          "name": "",
          "type": "address"
        }
      ],
      "payable": false,
      "stateMutability": "view",
      "type": "function"
    },
    {
      "constant": true,
      "inputs": [],
      "name": "owner",
      "outputs": [
        {
          "internalType": "address",
          "name": "",
          "type": "address"
        }
      ],
      "payable": false,
      "stateMutability": "view",
      "type": "function"
    },
    {
      "constant": true,
      "inputs": [
        {
          "internalType": "bytes32",
          "name": "",
          "type": "bytes32"
        }
      ],
      "name": "usedEvents_",
      "outputs": [
        {
          "internalType": "bool",
          "name": "",
          "type": "bool"
        }
      ],
      "payable": false,
      "stateMutability": "view",
      "type": "function"
    },
    {
      "constant": true,
      "inputs": [
        {
          "internalType": "address",
          "name": "",
          "type": "address"
        }
      ],
      "name": "wards",
      "outputs": [
        {
          "internalType": "uint256",
          "name": "",
          "type": "uint256"
        }
      ],
      "payable": false,
      "stateMutability": "view",
      "type": "function"
    },
    {
      "constant": false,
      "inputs": [
        {
          "internalType": "address",
          "name": "guy",
          "type": "address"
        }
      ],
      "name": "rely",
      "outputs": [],
      "payable": false,
      "stateMutability": "nonpayable",
      "type": "function"
    },
    {
      "constant": false,
      "inputs": [
        {
          "internalType": "address",
          "name": "guy",
          "type": "address"
        }
      ],
      "name": "deny",
      "outputs": [],
      "payable": false,
      "stateMutability": "nonpayable",
      "type": "function"
    },
    {
      "constant": false,
      "inputs": [
        {
          "internalType": "uint256",
          "name": "amount",
          "type": "uint256"
        },
        {
          "internalType": "address",
          "name": "recipient",
          "type": "address"
        }
      ],
      "name": "lockToken",
      "outputs": [],
      "payable": false,
      "stateMutability": "nonpayable",
      "type": "function"
    },
    {
      "constant": false,
      "inputs": [
        {
          "internalType": "uint256",
          "name": "amount",
          "type": "uint256"
        },
        {
          "internalType": "address",
          "name": "recipient",
          "type": "address"
        },
        {
          "internalType": "bytes32",
          "name": "receiptId",
          "type": "bytes32"
        }
      ],
      "name": "unlockToken",
      "outputs": [],
      "payable": false,
      "stateMutability": "nonpayable",
      "type": "function"
    }
  ],
  "bytecode": "0x608060405234801561001057600080fd5b50604051610a01380380610a018339818101604052602081101561003357600080fd5b5051600380546001600160a01b03199081163390811790925560009182526002602052604082206001905581546001600160a01b03909316921691909117905561097f806100826000396000f3fe608060405234801561001057600080fd5b50600436106100885760003560e01c8063bccc9fcf1161005b578063bccc9fcf14610131578063bf353dbb14610162578063cec1460b1461019a578063d6d34ad6146101c657610088565b80635ed741141461008d57806365fae35e146100c15780638da5cb5b146100e75780639c52a7f11461010b575b600080fd5b6100bf600480360360608110156100a357600080fd5b508035906001600160a01b0360208201351690604001356101ce565b005b6100bf600480360360208110156100d757600080fd5b50356001600160a01b03166103b0565b6100ef61042d565b604080516001600160a01b039092168252519081900360200190f35b6100bf6004803603602081101561012157600080fd5b50356001600160a01b031661043c565b61014e6004803603602081101561014757600080fd5b5035610519565b604080519115158252519081900360200190f35b6101886004803603602081101561017857600080fd5b50356001600160a01b031661052e565b60408051918252519081900360200190f35b6100bf600480360360408110156101b057600080fd5b50803590602001356001600160a01b0316610540565b6100ef61080b565b3360009081526002602052604090205460011461022e576040805162461bcd60e51b8152602060048201526019602482015278115d1a13585b9859d95c8bdb9bdd0b585d5d1a1bdc9a5e9959603a1b604482015290519081900360640190fd5b60008181526001602052604090205460ff161561027c5760405162461bcd60e51b815260040180806020018281038252602a8152602001806108fb602a913960400191505060405180910390fd5b6000818152600160208181526040808420805460ff19169093179092558254825163a9059cbb60e01b81526001600160a01b038781166004830152602482018990529351939091169363a9059cbb93604480840194939192918390030190829087803b1580156102eb57600080fd5b505af11580156102ff573d6000803e3d6000fd5b505050506040513d602081101561031557600080fd5b5051610368576040805162461bcd60e51b815260206004820152601860248201527f4574684d616e616765722f756e6c6f636b206661696c65640000000000000000604482015290519081900360640190fd5b604080518481526001600160a01b038416602082015281517fe7536184071702b58fe23a1d7d0df5fb9eed9a3176bbae54cf3e17d45f77ac32929181900390910190a1505050565b33600090815260026020526040902054600114610410576040805162461bcd60e51b8152602060048201526019602482015278115d1a13585b9859d95c8bdb9bdd0b585d5d1a1bdc9a5e9959603a1b604482015290519081900360640190fd5b6001600160a01b0316600090815260026020526040902060019055565b6003546001600160a01b031681565b3360009081526002602052604090205460011461049c576040805162461bcd60e51b8152602060048201526019602482015278115d1a13585b9859d95c8bdb9bdd0b585d5d1a1bdc9a5e9959603a1b604482015290519081900360640190fd5b6003546001600160a01b03828116911614156104ff576040805162461bcd60e51b815260206004820181905260248201527f4574684d616e616765722f63616e6e6f742064656e7920746865206f776e6572604482015290519081900360640190fd5b6001600160a01b0316600090815260026020526040812055565b60016020526000908152604090205460ff1681565b60026020526000908152604090205481565b6001600160a01b0381166105855760405162461bcd60e51b81526004018080602001828103825260268152602001806109256026913960400191505060405180910390fd5b600082116105da576040805162461bcd60e51b815260206004820152601c60248201527f4574684d616e616765722f7a65726f20746f6b656e206c6f636b656400000000604482015290519081900360640190fd5b60008054604080516370a0823160e01b815233600482015290516001600160a01b03909216916370a082319160248082019260209290919082900301818787803b15801561062757600080fd5b505af115801561063b573d6000803e3d6000fd5b505050506040513d602081101561065157600080fd5b505160008054604080516323b872dd60e01b81523360048201523060248201526044810188905290519394506001600160a01b03909116926323b872dd92606480840193602093929083900390910190829087803b1580156106b257600080fd5b505af11580156106c6573d6000803e3d6000fd5b505050506040513d60208110156106dc57600080fd5b5051610728576040805162461bcd60e51b8152602060048201526016602482015275115d1a13585b9859d95c8bdb1bd8dac819985a5b195960521b604482015290519081900360640190fd5b60008054604080516370a0823160e01b815233600482015290516001600160a01b03909216916370a082319160248082019260209290919082900301818787803b15801561077557600080fd5b505af1158015610789573d6000803e3d6000fd5b505050506040513d602081101561079f57600080fd5b5051905060006107b5838363ffffffff61081a16565b600054604080518381526001600160a01b038881166020830152825194955033949316927f4c6ab40ee4cfa212a441d32ee2897945b4a52461284f9369e23fdf8faa6cdd69929181900390910190a35050505050565b6000546001600160a01b031681565b600061085c83836040518060400160405280601e81526020017f536166654d6174683a207375627472616374696f6e206f766572666c6f770000815250610863565b9392505050565b600081848411156108f25760405162461bcd60e51b81526004018080602001828103825283818151815260200191508051906020019080838360005b838110156108b757818101518382015260200161089f565b50505050905090810190601f1680156108e45780820380516001836020036101000a031916815260200191505b509250505060405180910390fd5b50505090039056fe4574684d616e616765722f546865206275726e206576656e742063616e6e6f74206265207265757365644574684d616e616765722f726563697069656e742069732061207a65726f2061646472657373a265627a7a723158204e715b4a4996bb0a1ebe6b3e19fb3faa6869be2e81870020713f71cb98d3feaf64736f6c63430005110032",
  "source": "pragma solidity 0.5.17;\n\nimport \"./ILINK.sol\";\nimport \"@openzeppelin/contracts/math/SafeMath.sol\";\n\ncontract LINKEthManager {\n    using SafeMath for uint256;\n\n    ILINK public link_;\n\n    mapping(bytes32 => bool) public usedEvents_;\n\n    event Locked(\n        address indexed token,\n        address indexed sender,\n        uint256 amount,\n        address recipient\n    );\n\n    event Unlocked(uint256 amount, address recipient);\n\n    mapping(address => uint256) public wards;\n\n    function rely(address guy) external auth {\n        wards[guy] = 1;\n    }\n\n    function deny(address guy) external auth {\n        require(guy != owner, \"EthManager/cannot deny the owner\");\n        wards[guy] = 0;\n    }\n\n    modifier auth {\n        require(wards[msg.sender] == 1, \"EthManager/not-authorized\");\n        _;\n    }\n\n    address public owner;\n\n    /**\n     * @dev constructor\n     * @param link token contract address, e.g., erc20 contract\n     */\n    constructor(ILINK link) public {\n        owner = msg.sender;\n        wards[msg.sender] = 1;\n        link_ = link;\n    }\n\n    /**\n     * @dev lock tokens to be minted on harmony chain\n     * @param amount amount of tokens to lock\n     * @param recipient recipient address on the harmony chain\n     */\n    function lockToken(uint256 amount, address recipient) public {\n        require(\n            recipient != address(0),\n            \"EthManager/recipient is a zero address\"\n        );\n        require(amount > 0, \"EthManager/zero token locked\");\n        uint256 _balanceBefore = link_.balanceOf(msg.sender);\n        require(\n            link_.transferFrom(msg.sender, address(this), amount),\n            \"EthManager/lock failed\"\n        );\n        uint256 _balanceAfter = link_.balanceOf(msg.sender);\n        uint256 _actualAmount = _balanceBefore.sub(_balanceAfter);\n        emit Locked(address(link_), msg.sender, _actualAmount, recipient);\n    }\n\n    /**\n     * @dev unlock tokens after burning them on harmony chain\n     * @param amount amount of unlock tokens\n     * @param recipient recipient of the unlock tokens\n     * @param receiptId transaction hash of the burn event on harmony chain\n     */\n    function unlockToken(\n        uint256 amount,\n        address recipient,\n        bytes32 receiptId\n    ) public auth {\n        require(\n            !usedEvents_[receiptId],\n            \"EthManager/The burn event cannot be reused\"\n        );\n        usedEvents_[receiptId] = true;\n        require(link_.transfer(recipient, amount), \"EthManager/unlock failed\");\n        emit Unlocked(amount, recipient);\n    }\n}\n",
  "sourcePath": "/Users/yuriy/pro5/ethhmy-bridge/contracts/link/LINKEthManager.sol",
  "compiler": {
    "name": "solc",
    "version": "0.5.17+commit.d19bba13.Emscripten.clang"
  },
  "schemaVersion": "3.2.0",
  "updatedAt": "2020-08-29T19:44:06.117Z",
  "devdoc": {
    "methods": {
      "constructor": {
        "details": "constructor",
        "params": {
          "link": "token contract address, e.g., erc20 contract"
        }
      },
      "lockToken(uint256,address)": {
        "details": "lock tokens to be minted on harmony chain",
        "params": {
          "amount": "amount of tokens to lock",
          "recipient": "recipient address on the harmony chain"
        }
      },
      "unlockToken(uint256,address,bytes32)": {
        "details": "unlock tokens after burning them on harmony chain",
        "params": {
          "amount": "amount of unlock tokens",
          "receiptId": "transaction hash of the burn event on harmony chain",
          "recipient": "recipient of the unlock tokens"
        }
      }
    }
  },
  "userdoc": {
    "methods": {}
  }
}