{
  "contractName": "LINKHmyManager",
  "abi": [
    {
      "inputs": [
        {
          "internalType": "contract ILINK",
          "name": "link",
          "type": "address"
        }
      ],
      "payable": false,
      "stateMutability": "nonpayable",
      "type": "constructor"
    },
    {
      "anonymous": false,
      "inputs": [
        {
          "indexed": true,
          "internalType": "address",
          "name": "token",
          "type": "address"
        },
        {
          "indexed": true,
          "internalType": "address",
          "name": "sender",
          "type": "address"
        },
        {
          "indexed": false,
          "internalType": "uint256",
          "name": "amount",
          "type": "uint256"
        },
        {
          "indexed": false,
          "internalType": "address",
          "name": "recipient",
          "type": "address"
        }
      ],
      "name": "Burned",
      "type": "event"
    },
    {
      "anonymous": false,
      "inputs": [
        {
          "indexed": false,
          "internalType": "uint256",
          "name": "amount",
          "type": "uint256"
        },
        {
          "indexed": false,
          "internalType": "address",
          "name": "recipient",
          "type": "address"
        }
      ],
      "name": "Minted",
      "type": "event"
    },
    {
      "constant": true,
      "inputs": [],
      "name": "link_",
      "outputs": [
        {
          "internalType": "contract ILINK",
          "name": "",
          "type": "address"
        }
      ],
      "payable": false,
      "stateMutability": "view",
      "type": "function"
    },
    {
      "constant": true,
      "inputs": [],
      "name": "owner",
      "outputs": [
        {
          "internalType": "address",
          "name": "",
          "type": "address"
        }
      ],
      "payable": false,
      "stateMutability": "view",
      "type": "function"
    },
    {
      "constant": true,
      "inputs": [
        {
          "internalType": "bytes32",
          "name": "",
          "type": "bytes32"
        }
      ],
      "name": "usedEvents_",
      "outputs": [
        {
          "internalType": "bool",
          "name": "",
          "type": "bool"
        }
      ],
      "payable": false,
      "stateMutability": "view",
      "type": "function"
    },
    {
      "constant": true,
      "inputs": [
        {
          "internalType": "address",
          "name": "",
          "type": "address"
        }
      ],
      "name": "wards",
      "outputs": [
        {
          "internalType": "uint256",
          "name": "",
          "type": "uint256"
        }
      ],
      "payable": false,
      "stateMutability": "view",
      "type": "function"
    },
    {
      "constant": false,
      "inputs": [
        {
          "internalType": "address",
          "name": "guy",
          "type": "address"
        }
      ],
      "name": "rely",
      "outputs": [],
      "payable": false,
      "stateMutability": "nonpayable",
      "type": "function"
    },
    {
      "constant": false,
      "inputs": [
        {
          "internalType": "address",
          "name": "guy",
          "type": "address"
        }
      ],
      "name": "deny",
      "outputs": [],
      "payable": false,
      "stateMutability": "nonpayable",
      "type": "function"
    },
    {
      "constant": false,
      "inputs": [
        {
          "internalType": "uint256",
          "name": "amount",
          "type": "uint256"
        },
        {
          "internalType": "address",
          "name": "recipient",
          "type": "address"
        }
      ],
      "name": "burnToken",
      "outputs": [],
      "payable": false,
      "stateMutability": "nonpayable",
      "type": "function"
    },
    {
      "constant": false,
      "inputs": [
        {
          "internalType": "uint256",
          "name": "amount",
          "type": "uint256"
        },
        {
          "internalType": "address",
          "name": "recipient",
          "type": "address"
        },
        {
          "internalType": "bytes32",
          "name": "receiptId",
          "type": "bytes32"
        }
      ],
      "name": "mintToken",
      "outputs": [],
      "payable": false,
      "stateMutability": "nonpayable",
      "type": "function"
    }
  ],
  "bytecode": "0x608060405234801561001057600080fd5b5060405161074a38038061074a8339818101604052602081101561003357600080fd5b5051600380546001600160a01b03199081163390811790925560009182526002602052604082206001905581546001600160a01b0390931692169190911790556106c8806100826000396000f3fe608060405234801561001057600080fd5b50600436106100885760003560e01c8063bccc9fcf1161005b578063bccc9fcf14610131578063bf353dbb14610162578063d6d34ad61461019a578063dc593ca5146101a257610088565b806354e086911461008d57806365fae35e146100c15780638da5cb5b146100e75780639c52a7f11461010b575b600080fd5b6100bf600480360360608110156100a357600080fd5b508035906001600160a01b0360208201351690604001356101ce565b005b6100bf600480360360208110156100d757600080fd5b50356001600160a01b03166103a9565b6100ef610426565b604080516001600160a01b039092168252519081900360200190f35b6100bf6004803603602081101561012157600080fd5b50356001600160a01b0316610435565b61014e6004803603602081101561014757600080fd5b5035610512565b604080519115158252519081900360200190f35b6101886004803603602081101561017857600080fd5b50356001600160a01b0316610527565b60408051918252519081900360200190f35b6100ef610539565b6100bf600480360360408110156101b857600080fd5b50803590602001356001600160a01b0316610548565b3360009081526002602052604090205460011461022e576040805162461bcd60e51b8152602060048201526019602482015278121b5e53585b9859d95c8bdb9bdd0b585d5d1a1bdc9a5e9959603a1b604482015290519081900360640190fd5b60008181526001602052604090205460ff161561027c5760405162461bcd60e51b815260040180806020018281038252602c815260200180610668602c913960400191505060405180910390fd5b6000818152600160208181526040808420805460ff19169093179092558254825163a9059cbb60e01b81526001600160a01b038781166004830152602482018990529351939091169363a9059cbb93604480840194939192918390030190829087803b1580156102eb57600080fd5b505af11580156102ff573d6000803e3d6000fd5b505050506040513d602081101561031557600080fd5b5051610361576040805162461bcd60e51b8152602060048201526016602482015275121b5e53585b9859d95c8bdb5a5b9d0819985a5b195960521b604482015290519081900360640190fd5b604080518481526001600160a01b038416602082015281517fb9203d657e9c0ec8274c818292ab0f58b04e1970050716891770eb1bab5d655e929181900390910190a1505050565b33600090815260026020526040902054600114610409576040805162461bcd60e51b8152602060048201526019602482015278121b5e53585b9859d95c8bdb9bdd0b585d5d1a1bdc9a5e9959603a1b604482015290519081900360640190fd5b6001600160a01b0316600090815260026020526040902060019055565b6003546001600160a01b031681565b33600090815260026020526040902054600114610495576040805162461bcd60e51b8152602060048201526019602482015278121b5e53585b9859d95c8bdb9bdd0b585d5d1a1bdc9a5e9959603a1b604482015290519081900360640190fd5b6003546001600160a01b03828116911614156104f8576040805162461bcd60e51b815260206004820181905260248201527f486d794d616e616765722f63616e6e6f742064656e7920746865206f776e6572604482015290519081900360640190fd5b6001600160a01b0316600090815260026020526040812055565b60016020526000908152604090205460ff1681565b60026020526000908152604090205481565b6000546001600160a01b031681565b60008054604080516323b872dd60e01b81523360048201523060248201526044810186905290516001600160a01b03909216926323b872dd926064808401936020939083900390910190829087803b1580156105a357600080fd5b505af11580156105b7573d6000803e3d6000fd5b505050506040513d60208110156105cd57600080fd5b5051610619576040805162461bcd60e51b8152602060048201526016602482015275121b5e53585b9859d95c8bd89d5c9b8819985a5b195960521b604482015290519081900360640190fd5b600054604080518481526001600160a01b03848116602083015282513394909116927f47b4128ad231bee46bdb1f8614450b5ffe6eb96340e87519a0c3a8b91ee714ec928290030190a3505056fe486d794d616e616765722f54686520756e6c6f636b206576656e742063616e6e6f7420626520726575736564a265627a7a72315820508785218f588b257e152a9bc4fd16b4bf8c8ce65fbd303944ebfec0d038962264736f6c63430005110032",
  "source": "pragma solidity 0.5.17;\n\nimport \"./ILINK.sol\";\n\ncontract LINKHmyManager {\n    ILINK public link_;\n\n    mapping(bytes32 => bool) public usedEvents_;\n\n    event Burned(\n        address indexed token,\n        address indexed sender,\n        uint256 amount,\n        address recipient\n    );\n\n    event Minted(uint256 amount, address recipient);\n\n    mapping(address => uint256) public wards;\n\n    function rely(address guy) external auth {\n        wards[guy] = 1;\n    }\n\n    function deny(address guy) external auth {\n        require(guy != owner, \"HmyManager/cannot deny the owner\");\n        wards[guy] = 0;\n    }\n\n    modifier auth {\n        require(wards[msg.sender] == 1, \"HmyManager/not-authorized\");\n        _;\n    }\n\n    address public owner;\n\n    /**\n     * @dev constructor\n     * @param link token contract address on harmony chain, e.g., hrc20\n     */\n    constructor(ILINK link) public {\n        owner = msg.sender;\n        wards[msg.sender] = 1;\n        link_ = link;\n    }\n\n    /**\n     * @dev burns tokens on harmony to be unlocked on ethereum\n     * @param amount amount of tokens to burn\n     * @param recipient recipient of the unlock tokens on ethereum\n     */\n    function burnToken(uint256 amount, address recipient) public {\n        require(\n            link_.transferFrom(msg.sender, address(this), amount),\n            \"HmyManager/burn failed\"\n        );\n        emit Burned(address(link_), msg.sender, amount, recipient);\n    }\n\n    /**\n     * @dev mints tokens corresponding to the tokens locked in the ethereum chain\n     * @param amount amount of tokens for minting\n     * @param recipient recipient of the minted tokens (harmony address)\n     * @param receiptId transaction hash of the lock event on ethereum chain\n     */\n    function mintToken(\n        uint256 amount,\n        address recipient,\n        bytes32 receiptId\n    ) public auth {\n        require(\n            !usedEvents_[receiptId],\n            \"HmyManager/The unlock event cannot be reused\"\n        );\n        usedEvents_[receiptId] = true;\n        require(link_.transfer(recipient, amount), \"HmyManager/mint failed\");\n        emit Minted(amount, recipient);\n    }\n}\n",
  "sourcePath": "/Users/yuriy/pro5/ethhmy-bridge/contracts/link/LINKHmyManager.sol",
  "compiler": {
    "name": "solc",
    "version": "0.5.17+commit.d19bba13.Emscripten.clang"
  },
  "schemaVersion": "3.2.0",
  "updatedAt": "2020-08-29T19:44:06.130Z",
  "devdoc": {
    "methods": {
      "burnToken(uint256,address)": {
        "details": "burns tokens on harmony to be unlocked on ethereum",
        "params": {
          "amount": "amount of tokens to burn",
          "recipient": "recipient of the unlock tokens on ethereum"
        }
      },
      "constructor": {
        "details": "constructor",
        "params": {
          "link": "token contract address on harmony chain, e.g., hrc20"
        }
      },
      "mintToken(uint256,address,bytes32)": {
        "details": "mints tokens corresponding to the tokens locked in the ethereum chain",
        "params": {
          "amount": "amount of tokens for minting",
          "receiptId": "transaction hash of the lock event on ethereum chain",
          "recipient": "recipient of the minted tokens (harmony address)"
        }
      }
    }
  },
  "userdoc": {
    "methods": {}
  }
}