{
  "contractName": "LINKHmyManager",
  "abi": [
    {
      "inputs": [
        {
          "internalType": "contract ILINK",
          "name": "_hLINK",
          "type": "address"
        }
      ],
      "payable": false,
      "stateMutability": "nonpayable",
      "type": "constructor"
    },
    {
      "anonymous": false,
      "inputs": [
        {
          "indexed": true,
          "internalType": "address",
          "name": "token",
          "type": "address"
        },
        {
          "indexed": true,
          "internalType": "address",
          "name": "sender",
          "type": "address"
        },
        {
          "indexed": false,
          "internalType": "uint256",
          "name": "amount",
          "type": "uint256"
        },
        {
          "indexed": false,
          "internalType": "address",
          "name": "recipient",
          "type": "address"
        }
      ],
      "name": "Burned",
      "type": "event"
    },
    {
      "anonymous": false,
      "inputs": [
        {
          "indexed": false,
          "internalType": "uint256",
          "name": "amount",
          "type": "uint256"
        },
        {
          "indexed": false,
          "internalType": "address",
          "name": "recipient",
          "type": "address"
        }
      ],
      "name": "Minted",
      "type": "event"
    },
    {
      "constant": true,
      "inputs": [],
      "name": "hLINK",
      "outputs": [
        {
          "internalType": "contract ILINK",
          "name": "",
          "type": "address"
        }
      ],
      "payable": false,
      "stateMutability": "view",
      "type": "function"
    },
    {
      "constant": true,
      "inputs": [],
      "name": "owner",
      "outputs": [
        {
          "internalType": "address",
          "name": "",
          "type": "address"
        }
      ],
      "payable": false,
      "stateMutability": "view",
      "type": "function"
    },
    {
      "constant": true,
      "inputs": [],
      "name": "threshold",
      "outputs": [
        {
          "internalType": "uint16",
          "name": "",
          "type": "uint16"
        }
      ],
      "payable": false,
      "stateMutability": "view",
      "type": "function"
    },
    {
      "constant": true,
      "inputs": [
        {
          "internalType": "bytes32",
          "name": "",
          "type": "bytes32"
        }
      ],
      "name": "usedEvents_",
      "outputs": [
        {
          "internalType": "bool",
          "name": "",
          "type": "bool"
        }
      ],
      "payable": false,
      "stateMutability": "view",
      "type": "function"
    },
    {
      "constant": true,
      "inputs": [
        {
          "internalType": "address",
          "name": "",
          "type": "address"
        }
      ],
      "name": "wards",
      "outputs": [
        {
          "internalType": "uint256",
          "name": "",
          "type": "uint256"
        }
      ],
      "payable": false,
      "stateMutability": "view",
      "type": "function"
    },
    {
      "constant": false,
      "inputs": [
        {
          "internalType": "address",
          "name": "guy",
          "type": "address"
        }
      ],
      "name": "rely",
      "outputs": [],
      "payable": false,
      "stateMutability": "nonpayable",
      "type": "function"
    },
    {
      "constant": false,
      "inputs": [
        {
          "internalType": "address",
          "name": "guy",
          "type": "address"
        }
      ],
      "name": "deny",
      "outputs": [],
      "payable": false,
      "stateMutability": "nonpayable",
      "type": "function"
    },
    {
      "constant": false,
      "inputs": [
        {
          "internalType": "uint16",
          "name": "newTheshold",
          "type": "uint16"
        }
      ],
      "name": "changeThreshold",
      "outputs": [],
      "payable": false,
      "stateMutability": "nonpayable",
      "type": "function"
    },
    {
      "constant": false,
      "inputs": [
        {
          "internalType": "address",
          "name": "tokenManager",
          "type": "address"
        },
        {
          "internalType": "address",
          "name": "eLINK",
          "type": "address"
        }
      ],
      "name": "register",
      "outputs": [],
      "payable": false,
      "stateMutability": "nonpayable",
      "type": "function"
    },
    {
      "constant": false,
      "inputs": [
        {
          "internalType": "address",
          "name": "tokenManager",
          "type": "address"
        },
        {
          "internalType": "address",
          "name": "eLINK",
          "type": "address"
        }
      ],
      "name": "deregister",
      "outputs": [],
      "payable": false,
      "stateMutability": "nonpayable",
      "type": "function"
    },
    {
      "constant": false,
      "inputs": [
        {
          "internalType": "uint256",
          "name": "amount",
          "type": "uint256"
        },
        {
          "internalType": "address",
          "name": "recipient",
          "type": "address"
        }
      ],
      "name": "burnToken",
      "outputs": [],
      "payable": false,
      "stateMutability": "nonpayable",
      "type": "function"
    },
    {
      "constant": false,
      "inputs": [
        {
          "internalType": "uint256",
          "name": "amount",
          "type": "uint256"
        },
        {
          "internalType": "address",
          "name": "recipient",
          "type": "address"
        },
        {
          "internalType": "bytes32",
          "name": "receiptId",
          "type": "bytes32"
        }
      ],
      "name": "mintToken",
      "outputs": [],
      "payable": false,
      "stateMutability": "nonpayable",
      "type": "function"
    }
  ],
  "bytecode": "0x608060405234801561001057600080fd5b50604051610a9b380380610a9b8339818101604052602081101561003357600080fd5b5051600380546001600160a01b031990811633178083556001600160a01b03908116600090815260026020526040812060019055805491909416911617909155805461ffff60a01b1916600160a01b179055610a07806100946000396000f3fe608060405234801561001057600080fd5b50600436106100b45760003560e01c80639c52a7f1116100715780639c52a7f11461018c578063aa677354146101b2578063b574ba86146101e0578063bccc9fcf14610201578063bf353dbb14610232578063dc593ca51461026a576100b4565b806326f533d1146100b9578063352e6245146100dd57806342cde4e81461010d57806354e086911461012c57806365fae35e1461015e5780638da5cb5b14610184575b600080fd5b6100c1610296565b604080516001600160a01b039092168252519081900360200190f35b61010b600480360360408110156100f357600080fd5b506001600160a01b03813581169160200135166102a5565b005b610115610370565b6040805161ffff9092168252519081900360200190f35b61010b6004803603606081101561014257600080fd5b508035906001600160a01b036020820135169060400135610381565b61010b6004803603602081101561017457600080fd5b50356001600160a01b03166105a5565b6100c1610614565b61010b600480360360208110156101a257600080fd5b50356001600160a01b0316610623565b61010b600480360360408110156101c857600080fd5b506001600160a01b03813581169160200135166106f2565b61010b600480360360208110156101f657600080fd5b503561ffff166107cc565b61021e6004803603602081101561021757600080fd5b5035610840565b604080519115158252519081900360200190f35b6102586004803603602081101561024857600080fd5b50356001600160a01b0316610855565b60408051918252519081900360200190f35b61010b6004803603604081101561028057600080fd5b50803590602001356001600160a01b0316610867565b6000546001600160a01b031681565b336000908152600260205260409020546001146102f7576040805162461bcd60e51b81526020600482015260196024820152600080516020610987833981519152604482015290519081900360640190fd5b604080516309dd78f360e11b81526001600160a01b0383811660048301526b033b2e3c9fd0803ce800000060248301529151918416916313baf1e69160448082019260009290919082900301818387803b15801561035457600080fd5b505af1158015610368573d6000803e3d6000fd5b505050505050565b600354600160a01b900461ffff1681565b336000908152600260205260409020546001146103d3576040805162461bcd60e51b81526020600482015260196024820152600080516020610987833981519152604482015290519081900360640190fd5b60008181526001602052604090205460ff16156104215760405162461bcd60e51b815260040180806020018281038252602c8152602001806109a7602c913960400191505060405180910390fd5b6000818152600460205260409020805461ffff198116600161ffff9283160182161791829055600354600160a01b9004811691161015610460576105a0565b6000818152600160208181526040808420805460ff19169093179092558254825163a9059cbb60e01b81526001600160a01b038781166004830152602482018990529351939091169363a9059cbb93604480840194939192918390030190829087803b1580156104cf57600080fd5b505af11580156104e3573d6000803e3d6000fd5b505050506040513d60208110156104f957600080fd5b5051610545576040805162461bcd60e51b8152602060048201526016602482015275121b5e53585b9859d95c8bdb5a5b9d0819985a5b195960521b604482015290519081900360640190fd5b604080518481526001600160a01b038416602082015281517fb9203d657e9c0ec8274c818292ab0f58b04e1970050716891770eb1bab5d655e929181900390910190a16000818152600460205260409020805461ffff191690555b505050565b336000908152600260205260409020546001146105f7576040805162461bcd60e51b81526020600482015260196024820152600080516020610987833981519152604482015290519081900360640190fd5b6001600160a01b0316600090815260026020526040902060019055565b6003546001600160a01b031681565b33600090815260026020526040902054600114610675576040805162461bcd60e51b81526020600482015260196024820152600080516020610987833981519152604482015290519081900360640190fd5b6003546001600160a01b03828116911614156106d8576040805162461bcd60e51b815260206004820181905260248201527f486d794d616e616765722f63616e6e6f742064656e7920746865206f776e6572604482015290519081900360640190fd5b6001600160a01b0316600090815260026020526040812055565b33600090815260026020526040902054600114610744576040805162461bcd60e51b81526020600482015260196024820152600080516020610987833981519152604482015290519081900360640190fd5b6000805460408051634739f7e560e01b81526001600160a01b0385811660048301529283166024820152905191851692634739f7e5926044808401936020939083900390910190829087803b15801561079c57600080fd5b505af11580156107b0573d6000803e3d6000fd5b505050506040513d60208110156107c657600080fd5b50505050565b3360009081526002602052604090205460011461081e576040805162461bcd60e51b81526020600482015260196024820152600080516020610987833981519152604482015290519081900360640190fd5b6003805461ffff909216600160a01b0261ffff60a01b19909216919091179055565b60016020526000908152604090205460ff1681565b60026020526000908152604090205481565b60008054604080516323b872dd60e01b81523360048201523060248201526044810186905290516001600160a01b03909216926323b872dd926064808401936020939083900390910190829087803b1580156108c257600080fd5b505af11580156108d6573d6000803e3d6000fd5b505050506040513d60208110156108ec57600080fd5b5051610938576040805162461bcd60e51b8152602060048201526016602482015275121b5e53585b9859d95c8bd89d5c9b8819985a5b195960521b604482015290519081900360640190fd5b600054604080518481526001600160a01b03848116602083015282513394909116927f47b4128ad231bee46bdb1f8614450b5ffe6eb96340e87519a0c3a8b91ee714ec928290030190a3505056fe486d794d616e616765722f6e6f742d617574686f72697a656400000000000000486d794d616e616765722f54686520756e6c6f636b206576656e742063616e6e6f7420626520726575736564a265627a7a72315820a63889c1df4a6665e1172a8b0af84f4fec33a71e2ee04a9fa38e5879e2cf8ba964736f6c63430005110032",
  "source": "pragma solidity 0.5.17;\n\nimport \"./ILINK.sol\";\nimport \"../lib/TokenManager.sol\";\n\ncontract LINKHmyManager {\n    ILINK public hLINK;\n\n    mapping(bytes32 => bool) public usedEvents_;\n\n    event Burned(\n        address indexed token,\n        address indexed sender,\n        uint256 amount,\n        address recipient\n    );\n\n    event Minted(uint256 amount, address recipient);\n\n    mapping(address => uint256) public wards;\n\n    function rely(address guy) external auth {\n        wards[guy] = 1;\n    }\n\n    function deny(address guy) external auth {\n        require(guy != owner, \"HmyManager/cannot deny the owner\");\n        wards[guy] = 0;\n    }\n\n    modifier auth {\n        require(wards[msg.sender] == 1, \"HmyManager/not-authorized\");\n        _;\n    }\n\n    address public owner;\n\n    uint16 public threshold;\n    mapping(bytes32 => uint16) confirmations;\n\n    /**\n     * @dev constructor\n     * @param _hLINK harmony token contract address\n     */\n    constructor(ILINK _hLINK) public {\n        owner = msg.sender;\n        wards[owner] = 1;\n        hLINK = _hLINK;\n        threshold = 1;\n    }\n\n    /**\n     * @dev change threshold requirement\n     * @param newTheshold new threshold requirement\n     */\n    function changeThreshold(uint16 newTheshold) public auth {\n        threshold = newTheshold;\n    }\n\n    /**\n     * @dev register token mapping in the token manager\n     * @param tokenManager token manager contract address\n     * @param eLINK ethereum token contract address\n     */\n    function register(address tokenManager, address eLINK) public auth {\n        TokenManager(tokenManager).registerToken(eLINK, address(hLINK));\n    }\n\n    /**\n     * @dev deregister token mapping in the token manager\n     * @param tokenManager token manager contract address\n     * @param eLINK ethereum token contract address\n     */\n    function deregister(address tokenManager, address eLINK) public auth {\n        TokenManager(tokenManager).removeToken(eLINK, 10**27);\n    }\n\n    /**\n     * @dev burns tokens on harmony to be unlocked on ethereum\n     * @param amount amount of tokens to burn\n     * @param recipient recipient of the unlock tokens on ethereum\n     */\n    function burnToken(uint256 amount, address recipient) public {\n        require(\n            hLINK.transferFrom(msg.sender, address(this), amount),\n            \"HmyManager/burn failed\"\n        );\n        emit Burned(address(hLINK), msg.sender, amount, recipient);\n    }\n\n    /**\n     * @dev mints tokens corresponding to the tokens locked in the ethereum chain\n     * @param amount amount of tokens for minting\n     * @param recipient recipient of the minted tokens (harmony address)\n     * @param receiptId transaction hash of the lock event on ethereum chain\n     */\n    function mintToken(\n        uint256 amount,\n        address recipient,\n        bytes32 receiptId\n    ) public auth {\n        require(\n            !usedEvents_[receiptId],\n            \"HmyManager/The unlock event cannot be reused\"\n        );\n        confirmations[receiptId] = confirmations[receiptId] + 1;\n        if (confirmations[receiptId] < threshold) {\n            return;\n        }\n        usedEvents_[receiptId] = true;\n        require(hLINK.transfer(recipient, amount), \"HmyManager/mint failed\");\n        emit Minted(amount, recipient);\n        // delete confirmations entry for receiptId\n        delete confirmations[receiptId];\n    }\n}\n",
  "sourcePath": "/Users/yuriy/pro5/ethhmy-bridge.contract/contracts/link/LINKHmyManager.sol",
  "compiler": {
    "name": "solc",
    "version": "0.5.17+commit.d19bba13.Emscripten.clang"
  },
  "schemaVersion": "3.2.0",
  "updatedAt": "2020-09-16T16:55:21.978Z",
  "devdoc": {
    "methods": {
      "burnToken(uint256,address)": {
        "details": "burns tokens on harmony to be unlocked on ethereum",
        "params": {
          "amount": "amount of tokens to burn",
          "recipient": "recipient of the unlock tokens on ethereum"
        }
      },
      "changeThreshold(uint16)": {
        "details": "change threshold requirement",
        "params": {
          "newTheshold": "new threshold requirement"
        }
      },
      "constructor": {
        "details": "constructor",
        "params": {
          "_hLINK": "harmony token contract address"
        }
      },
      "deregister(address,address)": {
        "details": "deregister token mapping in the token manager",
        "params": {
          "eLINK": "ethereum token contract address",
          "tokenManager": "token manager contract address"
        }
      },
      "mintToken(uint256,address,bytes32)": {
        "details": "mints tokens corresponding to the tokens locked in the ethereum chain",
        "params": {
          "amount": "amount of tokens for minting",
          "receiptId": "transaction hash of the lock event on ethereum chain",
          "recipient": "recipient of the minted tokens (harmony address)"
        }
      },
      "register(address,address)": {
        "details": "register token mapping in the token manager",
        "params": {
          "eLINK": "ethereum token contract address",
          "tokenManager": "token manager contract address"
        }
      }
    }
  },
  "userdoc": {
    "methods": {}
  }
}