{
  "contractName": "LINKEthManager",
  "abi": [
    {
      "inputs": [
        {
          "internalType": "contract ILINK",
          "name": "link",
          "type": "address"
        }
      ],
      "payable": false,
      "stateMutability": "nonpayable",
      "type": "constructor"
    },
    {
      "anonymous": false,
      "inputs": [
        {
          "indexed": true,
          "internalType": "address",
          "name": "token",
          "type": "address"
        },
        {
          "indexed": true,
          "internalType": "address",
          "name": "sender",
          "type": "address"
        },
        {
          "indexed": false,
          "internalType": "uint256",
          "name": "amount",
          "type": "uint256"
        },
        {
          "indexed": false,
          "internalType": "address",
          "name": "recipient",
          "type": "address"
        }
      ],
      "name": "Locked",
      "type": "event"
    },
    {
      "anonymous": false,
      "inputs": [
        {
          "indexed": false,
          "internalType": "uint256",
          "name": "amount",
          "type": "uint256"
        },
        {
          "indexed": false,
          "internalType": "address",
          "name": "recipient",
          "type": "address"
        }
      ],
      "name": "Unlocked",
      "type": "event"
    },
    {
      "constant": true,
      "inputs": [],
      "name": "link_",
      "outputs": [
        {
          "internalType": "contract ILINK",
          "name": "",
          "type": "address"
        }
      ],
      "payable": false,
      "stateMutability": "view",
      "type": "function"
    },
    {
      "constant": true,
      "inputs": [
        {
          "internalType": "bytes32",
          "name": "",
          "type": "bytes32"
        }
      ],
      "name": "usedEvents_",
      "outputs": [
        {
          "internalType": "bool",
          "name": "",
          "type": "bool"
        }
      ],
      "payable": false,
      "stateMutability": "view",
      "type": "function"
    },
    {
      "constant": true,
      "inputs": [
        {
          "internalType": "address",
          "name": "",
          "type": "address"
        }
      ],
      "name": "wards",
      "outputs": [
        {
          "internalType": "uint256",
          "name": "",
          "type": "uint256"
        }
      ],
      "payable": false,
      "stateMutability": "view",
      "type": "function"
    },
    {
      "constant": false,
      "inputs": [
        {
          "internalType": "address",
          "name": "guy",
          "type": "address"
        }
      ],
      "name": "rely",
      "outputs": [],
      "payable": false,
      "stateMutability": "nonpayable",
      "type": "function"
    },
    {
      "constant": false,
      "inputs": [
        {
          "internalType": "address",
          "name": "guy",
          "type": "address"
        }
      ],
      "name": "deny",
      "outputs": [],
      "payable": false,
      "stateMutability": "nonpayable",
      "type": "function"
    },
    {
      "constant": false,
      "inputs": [
        {
          "internalType": "uint256",
          "name": "amount",
          "type": "uint256"
        },
        {
          "internalType": "address",
          "name": "recipient",
          "type": "address"
        }
      ],
      "name": "lockToken",
      "outputs": [],
      "payable": false,
      "stateMutability": "nonpayable",
      "type": "function"
    },
    {
      "constant": false,
      "inputs": [
        {
          "internalType": "uint256",
          "name": "amount",
          "type": "uint256"
        },
        {
          "internalType": "address",
          "name": "recipient",
          "type": "address"
        },
        {
          "internalType": "bytes32",
          "name": "receiptId",
          "type": "bytes32"
        }
      ],
      "name": "unlockToken",
      "outputs": [],
      "payable": false,
      "stateMutability": "nonpayable",
      "type": "function"
    }
  ],
  "bytecode": "0x608060405234801561001057600080fd5b506040516106be3803806106be8339818101604052602081101561003357600080fd5b50513360009081526002602052604081206001905580546001600160a01b039092166001600160a01b0319909216919091179055610648806100766000396000f3fe608060405234801561001057600080fd5b506004361061007d5760003560e01c8063bccc9fcf1161005b578063bccc9fcf14610102578063bf353dbb14610133578063cec1460b1461016b578063d6d34ad6146101975761007d565b80635ed741141461008257806365fae35e146100b65780639c52a7f1146100dc575b600080fd5b6100b46004803603606081101561009857600080fd5b508035906001600160a01b0360208201351690604001356101bb565b005b6100b4600480360360208110156100cc57600080fd5b50356001600160a01b031661039d565b6100b4600480360360208110156100f257600080fd5b50356001600160a01b031661041a565b61011f6004803603602081101561011857600080fd5b5035610494565b604080519115158252519081900360200190f35b6101596004803603602081101561014957600080fd5b50356001600160a01b03166104a9565b60408051918252519081900360200190f35b6100b46004803603604081101561018157600080fd5b50803590602001356001600160a01b03166104bb565b61019f6105da565b604080516001600160a01b039092168252519081900360200190f35b3360009081526002602052604090205460011461021b576040805162461bcd60e51b8152602060048201526019602482015278115d1a13585b9859d95c8bdb9bdd0b585d5d1a1bdc9a5e9959603a1b604482015290519081900360640190fd5b60008181526001602052604090205460ff16156102695760405162461bcd60e51b815260040180806020018281038252602a8152602001806105ea602a913960400191505060405180910390fd5b6000818152600160208181526040808420805460ff19169093179092558254825163a9059cbb60e01b81526001600160a01b038781166004830152602482018990529351939091169363a9059cbb93604480840194939192918390030190829087803b1580156102d857600080fd5b505af11580156102ec573d6000803e3d6000fd5b505050506040513d602081101561030257600080fd5b5051610355576040805162461bcd60e51b815260206004820152601860248201527f4574684d616e616765722f756e6c6f636b206661696c65640000000000000000604482015290519081900360640190fd5b604080518481526001600160a01b038416602082015281517fe7536184071702b58fe23a1d7d0df5fb9eed9a3176bbae54cf3e17d45f77ac32929181900390910190a1505050565b336000908152600260205260409020546001146103fd576040805162461bcd60e51b8152602060048201526019602482015278115d1a13585b9859d95c8bdb9bdd0b585d5d1a1bdc9a5e9959603a1b604482015290519081900360640190fd5b6001600160a01b0316600090815260026020526040902060019055565b3360009081526002602052604090205460011461047a576040805162461bcd60e51b8152602060048201526019602482015278115d1a13585b9859d95c8bdb9bdd0b585d5d1a1bdc9a5e9959603a1b604482015290519081900360640190fd5b6001600160a01b0316600090815260026020526040812055565b60016020526000908152604090205460ff1681565b60026020526000908152604090205481565b60008054604080516323b872dd60e01b81523360048201523060248201526044810186905290516001600160a01b03909216926323b872dd926064808401936020939083900390910190829087803b15801561051657600080fd5b505af115801561052a573d6000803e3d6000fd5b505050506040513d602081101561054057600080fd5b505161058c576040805162461bcd60e51b8152602060048201526016602482015275115d1a13585b9859d95c8bdb1bd8dac819985a5b195960521b604482015290519081900360640190fd5b600054604080518481526001600160a01b03848116602083015282513394909116927f4c6ab40ee4cfa212a441d32ee2897945b4a52461284f9369e23fdf8faa6cdd69928290030190a35050565b6000546001600160a01b03168156fe4574684d616e616765722f546865206275726e206576656e742063616e6e6f7420626520726575736564a265627a7a723158207495da4aeb37721452c576cc6a66dbe754741ee98a0e15e5c6dd53d3c72a297d64736f6c63430005110032",
  "source": "pragma solidity ^0.5.0;\nimport \"./ILINK.sol\";\n\ncontract LINKEthManager {\n    ILINK public link_;\n\n    mapping(bytes32 => bool) public usedEvents_;\n\n    event Locked(\n        address indexed token,\n        address indexed sender,\n        uint256 amount,\n        address recipient\n    );\n\n    event Unlocked(uint256 amount, address recipient);\n\n    mapping(address => uint256) public wards;\n\n    function rely(address guy) external auth {\n        wards[guy] = 1;\n    }\n\n    function deny(address guy) external auth {\n        wards[guy] = 0;\n    }\n\n    modifier auth {\n        require(wards[msg.sender] == 1, \"EthManager/not-authorized\");\n        _;\n    }\n\n    /**\n     * @dev constructor\n     * @param link token contract address, e.g., erc20 contract\n     */\n    constructor(ILINK link) public {\n        wards[msg.sender] = 1;\n        link_ = link;\n    }\n\n    /**\n     * @dev lock tokens to be minted on harmony chain\n     * @param amount amount of tokens to lock\n     * @param recipient recipient address on the harmony chain\n     */\n    function lockToken(uint256 amount, address recipient) public {\n        require(\n            link_.transferFrom(msg.sender, address(this), amount),\n            \"EthManager/lock failed\"\n        );\n        emit Locked(address(link_), msg.sender, amount, recipient);\n    }\n\n    /**\n     * @dev unlock tokens after burning them on harmony chain\n     * @param amount amount of unlock tokens\n     * @param recipient recipient of the unlock tokens\n     * @param receiptId transaction hash of the burn event on harmony chain\n     */\n    function unlockToken(\n        uint256 amount,\n        address recipient,\n        bytes32 receiptId\n    ) public auth {\n        require(\n            !usedEvents_[receiptId],\n            \"EthManager/The burn event cannot be reused\"\n        );\n        usedEvents_[receiptId] = true;\n        require(link_.transfer(recipient, amount), \"EthManager/unlock failed\");\n        emit Unlocked(amount, recipient);\n    }\n}\n",
  "sourcePath": "/Users/yuriy/pro5/ethhmy-bridge/contracts/link/LINKEthManager.sol",
  "compiler": {
    "name": "solc",
    "version": "0.5.17+commit.d19bba13.Emscripten.clang"
  },
  "schemaVersion": "3.2.0",
  "updatedAt": "2020-08-20T12:32:13.777Z",
  "devdoc": {
    "methods": {
      "constructor": {
        "details": "constructor",
        "params": {
          "link": "token contract address, e.g., erc20 contract"
        }
      },
      "lockToken(uint256,address)": {
        "details": "lock tokens to be minted on harmony chain",
        "params": {
          "amount": "amount of tokens to lock",
          "recipient": "recipient address on the harmony chain"
        }
      },
      "unlockToken(uint256,address,bytes32)": {
        "details": "unlock tokens after burning them on harmony chain",
        "params": {
          "amount": "amount of unlock tokens",
          "receiptId": "transaction hash of the burn event on harmony chain",
          "recipient": "recipient of the unlock tokens"
        }
      }
    }
  },
  "userdoc": {
    "methods": {}
  }
}