{
  "contractName": "NFTHmyManager",
  "abi": [
    {
      "inputs": [
        {
          "internalType": "address",
          "name": "_wallet",
          "type": "address"
        }
      ],
      "payable": false,
      "stateMutability": "nonpayable",
      "type": "constructor"
    },
    {
      "anonymous": false,
      "inputs": [
        {
          "indexed": true,
          "internalType": "address",
          "name": "token",
          "type": "address"
        },
        {
          "indexed": true,
          "internalType": "address",
          "name": "sender",
          "type": "address"
        },
        {
          "indexed": false,
          "internalType": "uint256",
          "name": "tokenId",
          "type": "uint256"
        },
        {
          "indexed": false,
          "internalType": "address",
          "name": "recipient",
          "type": "address"
        }
      ],
      "name": "Locked",
      "type": "event"
    },
    {
      "anonymous": false,
      "inputs": [
        {
          "indexed": false,
          "internalType": "address",
          "name": "ethToken",
          "type": "address"
        },
        {
          "indexed": false,
          "internalType": "uint256",
          "name": "tokenId",
          "type": "uint256"
        },
        {
          "indexed": false,
          "internalType": "address",
          "name": "recipient",
          "type": "address"
        },
        {
          "indexed": false,
          "internalType": "bytes32",
          "name": "receiptId",
          "type": "bytes32"
        }
      ],
      "name": "Unlocked",
      "type": "event"
    },
    {
      "constant": false,
      "inputs": [
        {
          "internalType": "address",
          "name": "",
          "type": "address"
        },
        {
          "internalType": "address",
          "name": "",
          "type": "address"
        },
        {
          "internalType": "uint256[]",
          "name": "",
          "type": "uint256[]"
        },
        {
          "internalType": "uint256[]",
          "name": "",
          "type": "uint256[]"
        },
        {
          "internalType": "bytes",
          "name": "",
          "type": "bytes"
        }
      ],
      "name": "onERC1155BatchReceived",
      "outputs": [
        {
          "internalType": "bytes4",
          "name": "",
          "type": "bytes4"
        }
      ],
      "payable": false,
      "stateMutability": "nonpayable",
      "type": "function"
    },
    {
      "constant": false,
      "inputs": [
        {
          "internalType": "address",
          "name": "",
          "type": "address"
        },
        {
          "internalType": "address",
          "name": "",
          "type": "address"
        },
        {
          "internalType": "uint256",
          "name": "",
          "type": "uint256"
        },
        {
          "internalType": "uint256",
          "name": "",
          "type": "uint256"
        },
        {
          "internalType": "bytes",
          "name": "",
          "type": "bytes"
        }
      ],
      "name": "onERC1155Received",
      "outputs": [
        {
          "internalType": "bytes4",
          "name": "",
          "type": "bytes4"
        }
      ],
      "payable": false,
      "stateMutability": "nonpayable",
      "type": "function"
    },
    {
      "constant": false,
      "inputs": [
        {
          "internalType": "address",
          "name": "",
          "type": "address"
        },
        {
          "internalType": "address",
          "name": "",
          "type": "address"
        },
        {
          "internalType": "uint256",
          "name": "",
          "type": "uint256"
        },
        {
          "internalType": "bytes",
          "name": "",
          "type": "bytes"
        }
      ],
      "name": "onERC721Received",
      "outputs": [
        {
          "internalType": "bytes4",
          "name": "",
          "type": "bytes4"
        }
      ],
      "payable": false,
      "stateMutability": "nonpayable",
      "type": "function"
    },
    {
      "constant": true,
      "inputs": [
        {
          "internalType": "bytes4",
          "name": "interfaceID",
          "type": "bytes4"
        }
      ],
      "name": "supportsInterface",
      "outputs": [
        {
          "internalType": "bool",
          "name": "",
          "type": "bool"
        }
      ],
      "payable": false,
      "stateMutability": "view",
      "type": "function"
    },
    {
      "constant": true,
      "inputs": [
        {
          "internalType": "bytes32",
          "name": "",
          "type": "bytes32"
        }
      ],
      "name": "usedEvents_",
      "outputs": [
        {
          "internalType": "bool",
          "name": "",
          "type": "bool"
        }
      ],
      "payable": false,
      "stateMutability": "view",
      "type": "function"
    },
    {
      "constant": true,
      "inputs": [],
      "name": "wallet",
      "outputs": [
        {
          "internalType": "address",
          "name": "",
          "type": "address"
        }
      ],
      "payable": false,
      "stateMutability": "view",
      "type": "function"
    },
    {
      "constant": false,
      "inputs": [
        {
          "internalType": "address",
          "name": "ethTokenAddr",
          "type": "address"
        },
        {
          "internalType": "uint256",
          "name": "tokenId",
          "type": "uint256"
        },
        {
          "internalType": "address",
          "name": "recipient",
          "type": "address"
        }
      ],
      "name": "lockNFT721Token",
      "outputs": [],
      "payable": false,
      "stateMutability": "nonpayable",
      "type": "function"
    },
    {
      "constant": false,
      "inputs": [
        {
          "internalType": "address",
          "name": "ethTokenAddr",
          "type": "address"
        },
        {
          "internalType": "uint256",
          "name": "tokenId",
          "type": "uint256"
        },
        {
          "internalType": "address",
          "name": "recipient",
          "type": "address"
        },
        {
          "internalType": "uint256",
          "name": "amount",
          "type": "uint256"
        },
        {
          "internalType": "bytes",
          "name": "data",
          "type": "bytes"
        }
      ],
      "name": "lockNFT1155Token",
      "outputs": [],
      "payable": false,
      "stateMutability": "nonpayable",
      "type": "function"
    },
    {
      "constant": false,
      "inputs": [
        {
          "internalType": "address",
          "name": "ethTokenAddr",
          "type": "address"
        },
        {
          "internalType": "uint256[]",
          "name": "tokenIds",
          "type": "uint256[]"
        },
        {
          "internalType": "address",
          "name": "recipient",
          "type": "address"
        }
      ],
      "name": "lockTokens",
      "outputs": [],
      "payable": false,
      "stateMutability": "nonpayable",
      "type": "function"
    },
    {
      "constant": false,
      "inputs": [
        {
          "internalType": "address",
          "name": "ethTokenAddr",
          "type": "address"
        },
        {
          "internalType": "uint256[]",
          "name": "tokenIds",
          "type": "uint256[]"
        },
        {
          "internalType": "address",
          "name": "recipient",
          "type": "address"
        }
      ],
      "name": "lockNFT1155Tokens",
      "outputs": [],
      "payable": false,
      "stateMutability": "nonpayable",
      "type": "function"
    },
    {
      "constant": false,
      "inputs": [
        {
          "internalType": "address",
          "name": "ethTokenAddr",
          "type": "address"
        },
        {
          "internalType": "uint256",
          "name": "tokenId",
          "type": "uint256"
        },
        {
          "internalType": "address",
          "name": "recipient",
          "type": "address"
        },
        {
          "internalType": "bytes32",
          "name": "receiptId",
          "type": "bytes32"
        }
      ],
      "name": "unlockToken",
      "outputs": [],
      "payable": false,
      "stateMutability": "nonpayable",
      "type": "function"
    },
    {
      "constant": false,
      "inputs": [
        {
          "internalType": "address",
          "name": "ethTokenAddr",
          "type": "address"
        },
        {
          "internalType": "uint256",
          "name": "tokenId",
          "type": "uint256"
        },
        {
          "internalType": "address",
          "name": "recipient",
          "type": "address"
        },
        {
          "internalType": "bytes32",
          "name": "receiptId",
          "type": "bytes32"
        }
      ],
      "name": "unlockNFT1155Token",
      "outputs": [],
      "payable": false,
      "stateMutability": "nonpayable",
      "type": "function"
    },
    {
      "constant": false,
      "inputs": [
        {
          "internalType": "address",
          "name": "ethTokenAddr",
          "type": "address"
        },
        {
          "internalType": "uint256[]",
          "name": "tokenIds",
          "type": "uint256[]"
        },
        {
          "internalType": "address",
          "name": "recipient",
          "type": "address"
        },
        {
          "internalType": "bytes32",
          "name": "receiptId",
          "type": "bytes32"
        }
      ],
      "name": "unlockTokens",
      "outputs": [],
      "payable": false,
      "stateMutability": "nonpayable",
      "type": "function"
    },
    {
      "constant": false,
      "inputs": [
        {
          "internalType": "address",
          "name": "ethTokenAddr",
          "type": "address"
        },
        {
          "internalType": "uint256[]",
          "name": "tokenIds",
          "type": "uint256[]"
        },
        {
          "internalType": "address",
          "name": "recipient",
          "type": "address"
        },
        {
          "internalType": "bytes32",
          "name": "receiptId",
          "type": "bytes32"
        }
      ],
      "name": "unlockNFT1155Tokens",
      "outputs": [],
      "payable": false,
      "stateMutability": "nonpayable",
      "type": "function"
    }
  ],
  "bytecode": "0x608060405234801561001057600080fd5b5060405161112a38038061112a8339818101604052602081101561003357600080fd5b5051600180546001600160a01b0319166001600160a01b039092169190911790556110c7806100636000396000f3fe608060405234801561001057600080fd5b50600436106100ea5760003560e01c8063bc197c811161008c578063e4fcc81a11610066578063e4fcc81a146106b6578063e54f51db14610775578063f23a6e611461083f578063fe7f61ea14610908576100ea565b8063bc197c811461049e578063bccc9fcf1461065f578063c7b82e931461067c576100ea565b80634665d6ad116100c85780634665d6ad146102c95780634e9436e5146102ff578063521eb273146103bb578063abeba925146103df576100ea565b806301ffc9a7146100ef578063150b7a021461012a578063397562f11461020b575b600080fd5b6101166004803603602081101561010557600080fd5b50356001600160e01b031916610942565b604080519115158252519081900360200190f35b6101ee6004803603608081101561014057600080fd5b6001600160a01b03823581169260208101359091169160408201359190810190608081016060820135600160201b81111561017a57600080fd5b82018360208201111561018c57600080fd5b803590602001918460018302840111600160201b831117156101ad57600080fd5b91908080601f016020809104026020016040519081016040528093929190818152602001838380828437600092019190915250929550610979945050505050565b604080516001600160e01b03199092168252519081900360200190f35b6102c76004803603606081101561022157600080fd5b6001600160a01b038235169190810190604081016020820135600160201b81111561024b57600080fd5b82018360208201111561025d57600080fd5b803590602001918460208302840111600160201b8311171561027e57600080fd5b919080806020026020016040519081016040528093929190818152602001838360200280828437600092019190915250929550505090356001600160a01b031691506109899050565b005b6102c7600480360360608110156102df57600080fd5b506001600160a01b03813581169160208101359160409091013516610b07565b6102c76004803603606081101561031557600080fd5b6001600160a01b038235169190810190604081016020820135600160201b81111561033f57600080fd5b82018360208201111561035157600080fd5b803590602001918460208302840111600160201b8311171561037257600080fd5b919080806020026020016040519081016040528093929190818152602001838360200280828437600092019190915250929550505090356001600160a01b03169150610c0b9050565b6103c3610c10565b604080516001600160a01b039092168252519081900360200190f35b6102c7600480360360808110156103f557600080fd5b6001600160a01b038235169190810190604081016020820135600160201b81111561041f57600080fd5b82018360208201111561043157600080fd5b803590602001918460208302840111600160201b8311171561045257600080fd5b919080806020026020016040519081016040528093929190818152602001838360200280828437600092019190915250929550506001600160a01b038335169350505060200135610c1f565b6101ee600480360360a08110156104b457600080fd5b6001600160a01b038235811692602081013590911691810190606081016040820135600160201b8111156104e757600080fd5b8201836020820111156104f957600080fd5b803590602001918460208302840111600160201b8311171561051a57600080fd5b9190808060200260200160405190810160405280939291908181526020018383602002808284376000920191909152509295949360208101935035915050600160201b81111561056957600080fd5b82018360208201111561057b57600080fd5b803590602001918460208302840111600160201b8311171561059c57600080fd5b9190808060200260200160405190810160405280939291908181526020018383602002808284376000920191909152509295949360208101935035915050600160201b8111156105eb57600080fd5b8201836020820111156105fd57600080fd5b803590602001918460018302840111600160201b8311171561061e57600080fd5b91908080601f016020809104026020016040519081016040528093929190818152602001838380828437600092019190915250929550610e11945050505050565b6101166004803603602081101561067557600080fd5b5035610e22565b6102c76004803603608081101561069257600080fd5b506001600160a01b0381358116916020810135916040820135169060600135610e37565b6102c7600480360360808110156106cc57600080fd5b6001600160a01b038235169190810190604081016020820135600160201b8111156106f657600080fd5b82018360208201111561070857600080fd5b803590602001918460208302840111600160201b8311171561072957600080fd5b919080806020026020016040519081016040528093929190818152602001838360200280828437600092019190915250929550506001600160a01b038335169350505060200135610e37565b6102c7600480360360a081101561078b57600080fd5b6001600160a01b0382358116926020810135926040820135909216916060820135919081019060a081016080820135600160201b8111156107cb57600080fd5b8201836020820111156107dd57600080fd5b803590602001918460018302840111600160201b831117156107fe57600080fd5b91908080601f016020809104026020016040519081016040528093929190818152602001838380828437600092019190915250929550610b00945050505050565b6101ee600480360360a081101561085557600080fd5b6001600160a01b03823581169260208101359091169160408201359160608101359181019060a081016080820135600160201b81111561089457600080fd5b8201836020820111156108a657600080fd5b803590602001918460018302840111600160201b831117156108c757600080fd5b91908080601f016020809104026020016040519081016040528093929190818152602001838380828437600092019190915250929550610e9c945050505050565b6102c76004803603608081101561091e57600080fd5b506001600160a01b0381358116916020810135916040820135169060600135610ead565b60006301ffc9a760e01b6001600160e01b0319831614806109735750630271189760e51b6001600160e01b03198316145b92915050565b630a85bd0160e11b949350505050565b6001600160a01b0381166109ce5760405162461bcd60e51b815260040180806020018281038252602981526020018061106a6029913960400191505060405180910390fd5b8260005b8351811015610b0057816001600160a01b03166342842e0e33308785815181106109f857fe5b60200260200101516040518463ffffffff1660e01b815260040180846001600160a01b03166001600160a01b03168152602001836001600160a01b03166001600160a01b031681526020018281526020019350505050600060405180830381600087803b158015610a6857600080fd5b505af1158015610a7c573d6000803e3d6000fd5b50505050336001600160a01b0316826001600160a01b03167f4c6ab40ee4cfa212a441d32ee2897945b4a52461284f9369e23fdf8faa6cdd69868481518110610ac157fe5b60200260200101518660405180838152602001826001600160a01b03166001600160a01b031681526020019250505060405180910390a36001016109d2565b5050505050565b6001600160a01b038116610b4c5760405162461bcd60e51b815260040180806020018281038252602981526020018061106a6029913960400191505060405180910390fd5b60408051632142170760e11b815233600482015230602482015260448101849052905184916001600160a01b038316916342842e0e9160648082019260009290919082900301818387803b158015610ba357600080fd5b505af1158015610bb7573d6000803e3d6000fd5b5050604080518681526001600160a01b038681166020830152825133955090861693507f4c6ab40ee4cfa212a441d32ee2897945b4a52461284f9369e23fdf8faa6cdd69929181900390910190a350505050565b505050565b6001546001600160a01b031681565b6001546001600160a01b03163314610c7e576040805162461bcd60e51b815260206004820152601c60248201527f4e4654486d794d616e616765722f6e6f742d617574686f72697a656400000000604482015290519081900360640190fd5b60008181526020819052604090205460ff1615610ccc5760405162461bcd60e51b815260040180806020018281038252602d81526020018061103d602d913960400191505060405180910390fd5b8360005b8451811015610df157816001600160a01b03166342842e0e3086888581518110610cf657fe5b60200260200101516040518463ffffffff1660e01b815260040180846001600160a01b03166001600160a01b03168152602001836001600160a01b03166001600160a01b031681526020018281526020019350505050600060405180830381600087803b158015610d6657600080fd5b505af1158015610d7a573d6000803e3d6000fd5b505050507fb24e65d2501e29a3ce014b0cc2283699c081ad27f10d64f036f96912b6f8943e86868381518110610dac57fe5b602090810291909101810151604080516001600160a01b03948516815292830191909152918716818301526060810186905290519081900360800190a1600101610cd0565b50506000908152602081905260409020805460ff19166001179055505050565b63bc197c8160e01b95945050505050565b60006020819052908152604090205460ff1681565b6001546001600160a01b03163314610e96576040805162461bcd60e51b815260206004820152601c60248201527f4e4654486d794d616e616765722f6e6f742d617574686f72697a656400000000604482015290519081900360640190fd5b50505050565b63f23a6e6160e01b95945050505050565b6001546001600160a01b03163314610f0c576040805162461bcd60e51b815260206004820152601c60248201527f4e4654486d794d616e616765722f6e6f742d617574686f72697a656400000000604482015290519081900360640190fd5b60008181526020819052604090205460ff1615610f5a5760405162461bcd60e51b815260040180806020018281038252602d81526020018061103d602d913960400191505060405180910390fd5b60408051632142170760e11b81523060048201526001600160a01b03848116602483015260448201869052915186928316916342842e0e91606480830192600092919082900301818387803b158015610fb257600080fd5b505af1158015610fc6573d6000803e3d6000fd5b50505060008381526020818152604091829020805460ff1916600117905581516001600160a01b03808a168252918101889052908616818301526060810185905290517fb24e65d2501e29a3ce014b0cc2283699c081ad27f10d64f036f96912b6f8943e92509081900360800190a1505050505056fe4e4654486d794d616e616765722f546865206275726e206576656e742063616e6e6f74206265207265757365644e4654486d794d616e616765722f726563697069656e742069732061207a65726f2061646472657373a265627a7a72315820b1a6bd4ebaf5623852c2e9e3b7b2ce487a10d3589b61bb81484f623f77ec083664736f6c63430005110032",
  "source": "pragma solidity 0.5.17;\nimport \"@openzeppelin/contracts/math/SafeMath.sol\";\nimport \"@openzeppelin/contracts/token/ERC721/IERC721.sol\";\nimport \"@openzeppelin/contracts/token/ERC721/ERC721Holder.sol\";\nimport \"../erc1155/ERC1155Holder.sol\";\nimport \"../erc1155/IERC1155.sol\";\n\ncontract NFTHmyManager is ERC721Holder, ERC1155Holder {\n    using SafeMath for uint256;\n\n    mapping(bytes32 => bool) public usedEvents_;\n\n    event Locked(\n        address indexed token,\n        address indexed sender,\n        uint256 tokenId,\n        address recipient\n    );\n\n    event Unlocked(\n        address ethToken,\n        uint256 tokenId,\n        address recipient,\n        bytes32 receiptId\n    );\n\n    address public wallet;\n    modifier onlyWallet {\n        require(msg.sender == wallet, \"NFTHmyManager/not-authorized\");\n        _;\n    }\n\n    /**\n     * @dev constructor\n     * @param _wallet is the multisig wallet\n     */\n    constructor(address _wallet) public {\n        wallet = _wallet;\n    }\n\n    /**\n     * @dev lock tokens to be minted on harmony chain\n     * @param ethTokenAddr is the ethereum token contract address\n     * @param tokenId tokenId of the token to lock\n     * @param recipient recipient address on the harmony chain\n     */\n    function lockNFT721Token(\n        address ethTokenAddr,\n        uint256 tokenId,\n        address recipient\n    ) public {\n        require(\n            recipient != address(0),\n            \"NFTHmyManager/recipient is a zero address\"\n        );\n        IERC721 ethToken = IERC721(ethTokenAddr);\n        ethToken.safeTransferFrom(msg.sender, address(this), tokenId);\n        emit Locked(address(ethToken), msg.sender, tokenId, recipient);\n    }\n\n    /**\n     * @dev lock tokens to be minted on harmony chain\n     * @param ethTokenAddr is the ethereum token contract address\n     * @param tokenId tokenId of the token to lock\n     * @param recipient recipient address on the harmony chain\n     */\n    function lockNFT1155Token(\n        address ethTokenAddr,\n        uint256 tokenId,\n        address recipient,\n        uint256 amount,\n        bytes memory data\n    ) public {\n        \n    }\n\n    /**\n     * @dev lock tokens to be minted on harmony chain\n     * @param ethTokenAddr is the ethereum token contract address\n     * @param tokenIds tokenIds of the token to lock\n     * @param recipient recipient address on the harmony chain\n     */\n    function lockTokens(\n        address ethTokenAddr,\n        uint256[] memory tokenIds,\n        address recipient\n    ) public {\n        require(\n            recipient != address(0),\n            \"NFTHmyManager/recipient is a zero address\"\n        );\n        IERC721 ethToken = IERC721(ethTokenAddr);\n        for (uint256 index = 0; index < tokenIds.length; index++) {\n            ethToken.safeTransferFrom(\n                msg.sender,\n                address(this),\n                tokenIds[index]\n            );\n            emit Locked(\n                address(ethToken),\n                msg.sender,\n                tokenIds[index],\n                recipient\n            );\n        }\n    }\n\n    /**\n     * @dev lock tokens to be minted on harmony chain\n     * @param ethTokenAddr is the ethereum token contract address\n     * @param tokenIds tokenIds of the token to lock\n     * @param recipient recipient address on the harmony chain\n     */\n    function lockNFT1155Tokens(\n        address ethTokenAddr,\n        uint256[] memory tokenIds,\n        address recipient\n    ) public {\n\n    }\n\n    /**\n     * @dev unlock tokens after burning them on harmony chain\n     * @param ethTokenAddr is the ethereum token contract address\n     * @param tokenId tokenId of the token to unlock\n     * @param recipient recipient of the unlock tokens\n     * @param receiptId transaction hash of the burn event on harmony chain\n     */\n    function unlockToken(\n        address ethTokenAddr,\n        uint256 tokenId,\n        address recipient,\n        bytes32 receiptId\n    ) public onlyWallet {\n        require(\n            !usedEvents_[receiptId],\n            \"NFTHmyManager/The burn event cannot be reused\"\n        );\n        IERC721 ethToken = IERC721(ethTokenAddr);\n        ethToken.safeTransferFrom(address(this), recipient, tokenId);\n        usedEvents_[receiptId] = true;\n        emit Unlocked(ethTokenAddr, tokenId, recipient, receiptId);\n    }\n\n    function unlockNFT1155Token(\n        address ethTokenAddr,\n        uint256 tokenId,\n        address recipient,\n        bytes32 receiptId\n    ) public onlyWallet {\n\n    }\n\n    /**\n     * @dev unlock tokens after burning them on harmony chain\n     * @param ethTokenAddr is the ethereum token contract address\n     * @param tokenIds tokenIds of the token to unlock\n     * @param recipient recipient of the unlock tokens\n     * @param receiptId transaction hash of the burn event on harmony chain\n     */\n    function unlockTokens(\n        address ethTokenAddr,\n        uint256[] memory tokenIds,\n        address recipient,\n        bytes32 receiptId\n    ) public onlyWallet {\n        require(\n            !usedEvents_[receiptId],\n            \"NFTHmyManager/The burn event cannot be reused\"\n        );\n        IERC721 ethToken = IERC721(ethTokenAddr);\n        for (uint256 index = 0; index < tokenIds.length; index++) {\n            ethToken.safeTransferFrom(address(this), recipient, tokenIds[index]);\n            emit Unlocked(ethTokenAddr, tokenIds[index], recipient, receiptId);\n        }\n        usedEvents_[receiptId] = true;\n    }\n\n    function unlockNFT1155Tokens(\n        address ethTokenAddr,\n        uint256[] memory tokenIds,\n        address recipient,\n        bytes32 receiptId\n    ) public onlyWallet {\n\n    }\n}\n",
  "sourcePath": "/home/lutty/workspace/Web/WebstormProjects/ethhmy-bridge/contracts/hrc721-1155/NFTHmyManager.sol",
  "compiler": {
    "name": "solc",
    "version": "0.5.17+commit.d19bba13.Emscripten.clang"
  },
  "schemaVersion": "3.4.3",
  "updatedAt": "2021-09-21T04:13:56.232Z",
  "devdoc": {
    "methods": {
      "constructor": {
        "details": "constructor",
        "params": {
          "_wallet": "is the multisig wallet"
        }
      },
      "lockNFT1155Token(address,uint256,address,uint256,bytes)": {
        "details": "lock tokens to be minted on harmony chain",
        "params": {
          "ethTokenAddr": "is the ethereum token contract address",
          "recipient": "recipient address on the harmony chain",
          "tokenId": "tokenId of the token to lock"
        }
      },
      "lockNFT1155Tokens(address,uint256[],address)": {
        "details": "lock tokens to be minted on harmony chain",
        "params": {
          "ethTokenAddr": "is the ethereum token contract address",
          "recipient": "recipient address on the harmony chain",
          "tokenIds": "tokenIds of the token to lock"
        }
      },
      "lockNFT721Token(address,uint256,address)": {
        "details": "lock tokens to be minted on harmony chain",
        "params": {
          "ethTokenAddr": "is the ethereum token contract address",
          "recipient": "recipient address on the harmony chain",
          "tokenId": "tokenId of the token to lock"
        }
      },
      "lockTokens(address,uint256[],address)": {
        "details": "lock tokens to be minted on harmony chain",
        "params": {
          "ethTokenAddr": "is the ethereum token contract address",
          "recipient": "recipient address on the harmony chain",
          "tokenIds": "tokenIds of the token to lock"
        }
      },
      "unlockToken(address,uint256,address,bytes32)": {
        "details": "unlock tokens after burning them on harmony chain",
        "params": {
          "ethTokenAddr": "is the ethereum token contract address",
          "receiptId": "transaction hash of the burn event on harmony chain",
          "recipient": "recipient of the unlock tokens",
          "tokenId": "tokenId of the token to unlock"
        }
      },
      "unlockTokens(address,uint256[],address,bytes32)": {
        "details": "unlock tokens after burning them on harmony chain",
        "params": {
          "ethTokenAddr": "is the ethereum token contract address",
          "receiptId": "transaction hash of the burn event on harmony chain",
          "recipient": "recipient of the unlock tokens",
          "tokenIds": "tokenIds of the token to unlock"
        }
      }
    }
  },
  "userdoc": {
    "methods": {}
  }
}