{
  "contractName": "NFTTokenManager",
  "abi": [
    {
      "anonymous": false,
      "inputs": [
        {
          "indexed": true,
          "internalType": "address",
          "name": "previousOwner",
          "type": "address"
        },
        {
          "indexed": true,
          "internalType": "address",
          "name": "newOwner",
          "type": "address"
        }
      ],
      "name": "OwnershipTransferred",
      "type": "event"
    },
    {
      "anonymous": false,
      "inputs": [
        {
          "indexed": true,
          "internalType": "address",
          "name": "tokenReq",
          "type": "address"
        },
        {
          "indexed": true,
          "internalType": "address",
          "name": "tokenAck",
          "type": "address"
        }
      ],
      "name": "TokenMapAck",
      "type": "event"
    },
    {
      "constant": true,
      "inputs": [],
      "name": "isOwner",
      "outputs": [
        {
          "internalType": "bool",
          "name": "",
          "type": "bool"
        }
      ],
      "payable": false,
      "stateMutability": "view",
      "type": "function"
    },
    {
      "constant": true,
      "inputs": [
        {
          "internalType": "address",
          "name": "",
          "type": "address"
        }
      ],
      "name": "mappedTokens",
      "outputs": [
        {
          "internalType": "address",
          "name": "",
          "type": "address"
        }
      ],
      "payable": false,
      "stateMutability": "view",
      "type": "function"
    },
    {
      "constant": true,
      "inputs": [],
      "name": "owner",
      "outputs": [
        {
          "internalType": "address",
          "name": "",
          "type": "address"
        }
      ],
      "payable": false,
      "stateMutability": "view",
      "type": "function"
    },
    {
      "constant": false,
      "inputs": [],
      "name": "renounceOwnership",
      "outputs": [],
      "payable": false,
      "stateMutability": "nonpayable",
      "type": "function"
    },
    {
      "constant": false,
      "inputs": [
        {
          "internalType": "address",
          "name": "newOwner",
          "type": "address"
        }
      ],
      "name": "transferOwnership",
      "outputs": [],
      "payable": false,
      "stateMutability": "nonpayable",
      "type": "function"
    },
    {
      "constant": true,
      "inputs": [
        {
          "internalType": "address",
          "name": "",
          "type": "address"
        }
      ],
      "name": "wards",
      "outputs": [
        {
          "internalType": "uint256",
          "name": "",
          "type": "uint256"
        }
      ],
      "payable": false,
      "stateMutability": "view",
      "type": "function"
    },
    {
      "constant": false,
      "inputs": [
        {
          "internalType": "address",
          "name": "guy",
          "type": "address"
        }
      ],
      "name": "rely",
      "outputs": [],
      "payable": false,
      "stateMutability": "nonpayable",
      "type": "function"
    },
    {
      "constant": false,
      "inputs": [
        {
          "internalType": "address",
          "name": "guy",
          "type": "address"
        }
      ],
      "name": "deny",
      "outputs": [],
      "payable": false,
      "stateMutability": "nonpayable",
      "type": "function"
    },
    {
      "constant": false,
      "inputs": [
        {
          "internalType": "address",
          "name": "ethTokenAddr",
          "type": "address"
        },
        {
          "internalType": "string",
          "name": "name",
          "type": "string"
        },
        {
          "internalType": "string",
          "name": "symbol",
          "type": "string"
        }
      ],
      "name": "addToken",
      "outputs": [
        {
          "internalType": "address",
          "name": "",
          "type": "address"
        }
      ],
      "payable": false,
      "stateMutability": "nonpayable",
      "type": "function"
    },
    {
      "constant": false,
      "inputs": [
        {
          "internalType": "address",
          "name": "ethTokenAddr",
          "type": "address"
        },
        {
          "internalType": "address",
          "name": "oneTokenAddr",
          "type": "address"
        }
      ],
      "name": "registerToken",
      "outputs": [
        {
          "internalType": "bool",
          "name": "",
          "type": "bool"
        }
      ],
      "payable": false,
      "stateMutability": "nonpayable",
      "type": "function"
    },
    {
      "constant": false,
      "inputs": [
        {
          "internalType": "address",
          "name": "ethTokenAddr",
          "type": "address"
        },
        {
          "internalType": "uint256",
          "name": "supply",
          "type": "uint256"
        }
      ],
      "name": "removeToken",
      "outputs": [],
      "payable": false,
      "stateMutability": "nonpayable",
      "type": "function"
    }
  ],
  "bytecode": "0x608060405260006100176001600160e01b0361006616565b600080546001600160a01b0319166001600160a01b0383169081178255604051929350917f8be0079c531659141344cd1fd0a4f28419497f9722a3daafe3b4186f6b6457e0908290a35061006a565b3390565b6136fb806100796000396000f3fe60806040523480156200001157600080fd5b5060043610620000b85760003560e01c80638f32d59b116200007b5780638f32d59b146200018c5780639c52a7f11462000196578063bf353dbb14620001bf578063e6ede14d14620001fa578063e73c20191462000223578063f2fde38b146200036957620000b8565b806313baf1e614620000bd5780634739f7e514620000ee57806365fae35e1462000133578063715018a6146200015c5780638da5cb5b1462000166575b600080fd5b620000ec60048036036040811015620000d557600080fd5b506001600160a01b03813516906020013562000392565b005b6200011f600480360360408110156200010657600080fd5b506001600160a01b03813581169160200135166200053b565b604080519115158252519081900360200190f35b620000ec600480360360208110156200014b57600080fd5b50356001600160a01b031662000673565b620000ec620006db565b6200017062000770565b604080516001600160a01b039092168252519081900360200190f35b6200011f6200077f565b620000ec60048036036020811015620001ae57600080fd5b50356001600160a01b0316620007a5565b620001e860048036036020811015620001d757600080fd5b50356001600160a01b031662000866565b60408051918252519081900360200190f35b62000170600480360360208110156200021257600080fd5b50356001600160a01b031662000878565b62000170600480360360608110156200023b57600080fd5b6001600160a01b0382351691908101906040810160208201356401000000008111156200026757600080fd5b8201836020820111156200027a57600080fd5b803590602001918460018302840111640100000000831117156200029d57600080fd5b91908080601f0160208091040260200160405190810160405280939291908181526020018383808284376000920191909152509295949360208101935035915050640100000000811115620002f157600080fd5b8201836020820111156200030457600080fd5b803590602001918460018302840111640100000000831117156200032757600080fd5b91908080601f01602080910402602001604051908101604052809392919081815260200183838082843760009201919091525092955062000893945050505050565b620000ec600480360360208110156200038157600080fd5b50356001600160a01b031662000b77565b33600090815260026020526040902054600114620003f7576040805162461bcd60e51b815260206004820152601b60248201527f546f6b656e4d616e616765722f6e6f742d617574686f72697a65640000000000604482015290519081900360640190fd5b6001600160a01b03828116600090815260016020526040902054166200044f5760405162461bcd60e51b815260040180806020018281038252602d8152602001806200362b602d913960400191505060405180910390fd5b6001600160a01b0380831660009081526001602090815260409182902054825163e96e2ced60e01b815260048101869052925193169263e96e2ced926024808201939291829003018186803b158015620004a857600080fd5b505afa158015620004bd573d6000803e3d6000fd5b505050506040513d6020811015620004d457600080fd5b5051620005135760405162461bcd60e51b8152600401808060200182810382526027815260200180620036a06027913960400191505060405180910390fd5b506001600160a01b0316600090815260016020526040902080546001600160a01b0319169055565b33600090815260026020526040812054600114620005a0576040805162461bcd60e51b815260206004820152601b60248201527f546f6b656e4d616e616765722f6e6f742d617574686f72697a65640000000000604482015290519081900360640190fd5b6001600160a01b038316620005e75760405162461bcd60e51b815260040180806020018281038252602b8152602001806200356d602b913960400191505060405180910390fd5b6001600160a01b038381166000908152600160205260409020541615620006405760405162461bcd60e51b8152600401808060200182810382526028815260200180620036786028913960400191505060405180910390fd5b6001600160a01b03928316600090815260016020526040902080546001600160a01b031916929093169190911790915590565b6200067d6200077f565b620006be576040805162461bcd60e51b8152602060048201819052602482015260008051602062003658833981519152604482015290519081900360640190fd5b6001600160a01b0316600090815260026020526040902060019055565b620006e56200077f565b62000726576040805162461bcd60e51b8152602060048201819052602482015260008051602062003658833981519152604482015290519081900360640190fd5b600080546040516001600160a01b03909116907f8be0079c531659141344cd1fd0a4f28419497f9722a3daafe3b4186f6b6457e0908390a3600080546001600160a01b0319169055565b6000546001600160a01b031690565b600080546001600160a01b03166200079662000bd0565b6001600160a01b031614905090565b620007af6200077f565b620007f0576040805162461bcd60e51b8152602060048201819052602482015260008051602062003658833981519152604482015290519081900360640190fd5b620007fa62000770565b6001600160a01b0316816001600160a01b031614156200084c5760405162461bcd60e51b8152600401808060200182810382526022815260200180620036096022913960400191505060405180910390fd5b6001600160a01b0316600090815260026020526040812055565b60026020526000908152604090205481565b6001602052600090815260409020546001600160a01b031681565b33600090815260026020526040812054600114620008f8576040805162461bcd60e51b815260206004820152601b60248201527f546f6b656e4d616e616765722f6e6f742d617574686f72697a65640000000000604482015290519081900360640190fd5b6001600160a01b0384166200093f5760405162461bcd60e51b8152600401808060200182810382526027815260200180620035be6027913960400191505060405180910390fd5b6001600160a01b038481166000908152600160205260409020541615620009985760405162461bcd60e51b8152600401808060200182810382526024815260200180620035e56024913960400191505060405180910390fd5b6000848484604051620009ab9062000c76565b6001600160a01b0384168152606060208083018281528551928401929092528451604084019160808501919087019080838360005b83811015620009fa578181015183820152602001620009e0565b50505050905090810190601f16801562000a285780820380516001836020036101000a031916815260200191505b50838103825284518152845160209182019186019080838360005b8381101562000a5d57818101518382015260200162000a43565b50505050905090810190601f16801562000a8b5780820380516001836020036101000a031916815260200191505b5095505050505050604051809103906000f08015801562000ab0573d6000803e3d6000fd5b506001600160a01b0386811660009081526001602052604080822080546001600160a01b03191693851693841790558051634c1d96ab60e11b81523360048201529051939450849363983b2d569260248084019391929182900301818387803b15801562000b1d57600080fd5b505af115801562000b32573d6000803e3d6000fd5b50506040516001600160a01b038085169350891691507f78591f651c27eef63481b7fd779e44c2426cbe82c7050fe9bc90b6707efbc3d390600090a395945050505050565b62000b816200077f565b62000bc2576040805162461bcd60e51b8152602060048201819052602482015260008051602062003658833981519152604482015290519081900360640190fd5b62000bcd8162000bd4565b50565b3390565b6001600160a01b03811662000c1b5760405162461bcd60e51b8152600401808060200182810382526026815260200180620035986026913960400191505060405180910390fd5b600080546040516001600160a01b03808516939216917f8be0079c531659141344cd1fd0a4f28419497f9722a3daafe3b4186f6b6457e091a3600080546001600160a01b0319166001600160a01b0392909216919091179055565b6128e88062000c858339019056fe60806040523480156200001157600080fd5b50604051620028e8380380620028e8833981810160405260608110156200003757600080fd5b8151602083018051604051929492938301929190846401000000008211156200005f57600080fd5b9083019060208201858111156200007557600080fd5b82516401000000008111828201881017156200009057600080fd5b82525081516020918201929091019080838360005b83811015620000bf578181015183820152602001620000a5565b50505050905090810190601f168015620000ed5780820380516001836020036101000a031916815260200191505b50604052602001805160405193929190846401000000008211156200011157600080fd5b9083019060208201858111156200012757600080fd5b82516401000000008111828201881017156200014257600080fd5b82525081516020918201929091019080838360005b838110156200017157818101518382015260200162000157565b50505050905090810190601f1680156200019f5780820380516001836020036101000a031916815260200191505b50604052508391508290508181620001c76301ffc9a760e01b6001600160e01b036200029816565b620001e26380ac58cd60e01b6001600160e01b036200029816565b62000208620001f96001600160e01b036200031d16565b6001600160e01b036200032216565b6200022363780e9d6360e01b6001600160e01b036200029816565b81516200023890600a9060208501906200046a565b5080516200024e90600b9060208401906200046a565b506200026a635b5e139f60e01b6001600160e01b036200029816565b5050600e80546001600160a01b0319166001600160a01b039690961695909517909455506200050c92505050565b6001600160e01b03198082161415620002f8576040805162461bcd60e51b815260206004820152601c60248201527f4552433136353a20696e76616c696420696e7465726661636520696400000000604482015290519081900360640190fd5b6001600160e01b0319166000908152602081905260409020805460ff19166001179055565b335b90565b6200033d8160056200037460201b62001c221790919060201c565b6040516001600160a01b038216907f6ae172837ea30b801fbfcdd4108aa1d5bf8ff775444fd70256b44e6bf3dfc3f690600090a250565b6200038982826001600160e01b036200040116565b15620003dc576040805162461bcd60e51b815260206004820152601f60248201527f526f6c65733a206163636f756e7420616c72656164792068617320726f6c6500604482015290519081900360640190fd5b6001600160a01b0316600090815260209190915260409020805460ff19166001179055565b60006001600160a01b0382166200044a5760405162461bcd60e51b8152600401808060200182810382526022815260200180620028c66022913960400191505060405180910390fd5b506001600160a01b03166000908152602091909152604090205460ff1690565b828054600181600116156101000203166002900490600052602060002090601f016020900481019282601f10620004ad57805160ff1916838001178555620004dd565b82800160010185558215620004dd579182015b82811115620004dd578251825591602001919060010190620004c0565b50620004eb929150620004ef565b5090565b6200031f91905b80821115620004eb5760008155600101620004f6565b6123aa806200051c6000396000f3fe608060405234801561001057600080fd5b50600436106101da5760003560e01c80636c0360eb11610104578063a1448194116100a2578063c87b56dd11610071578063c87b56dd146106dc578063d09de08a146106f9578063e96e2ced14610701578063e985e9c51461071e576101da565b8063a144819414610596578063a22cb465146105c2578063aa271e1a146105f0578063b88d4fde14610616576101da565b80638832e6e3116100de5780638832e6e3146104a557806395d89b4114610560578063983b2d5614610568578063986502751461058e576101da565b80636c0360eb1461044b57806370a082311461045357806379cc679014610479576101da565b80632baeceb71161017c57806342966c681161014b57806342966c68146103ec5780634f6ccce71461040957806361bc221a146104265780636352211e1461042e576101da565b80632baeceb7146103565780632f745c591461035e57806340c10f191461038a57806342842e0e146103b6576101da565b8063095ea7b3116101b8578063095ea7b3146102d057806311c9adc8146102fe57806318160ddd1461030657806323b872dd14610320576101da565b806301ffc9a7146101df57806306fdde031461021a578063081812fc14610297575b600080fd5b610206600480360360208110156101f557600080fd5b50356001600160e01b03191661074c565b604080519115158252519081900360200190f35b61022261076f565b6040805160208082528351818301528351919283929083019185019080838360005b8381101561025c578181015183820152602001610244565b50505050905090810190601f1680156102895780820380516001836020036101000a031916815260200191505b509250505060405180910390f35b6102b4600480360360208110156102ad57600080fd5b5035610806565b604080516001600160a01b039092168252519081900360200190f35b6102fc600480360360408110156102e657600080fd5b506001600160a01b038135169060200135610868565b005b6102b4610990565b61030e61099f565b60408051918252519081900360200190f35b6102fc6004803603606081101561033657600080fd5b506001600160a01b038135811691602081013590911690604001356109a5565b6102fc610a01565b61030e6004803603604081101561037457600080fd5b506001600160a01b038135169060200135610a58565b610206600480360360408110156103a057600080fd5b506001600160a01b038135169060200135610ad7565b6102fc600480360360608110156103cc57600080fd5b506001600160a01b03813581169160208101359091169060400135610b32565b6102fc6004803603602081101561040257600080fd5b5035610b4d565b61030e6004803603602081101561041f57600080fd5b5035610b9f565b61030e610c05565b6102b46004803603602081101561044457600080fd5b5035610c0b565b610222610c65565b61030e6004803603602081101561046957600080fd5b50356001600160a01b0316610cc6565b6102fc6004803603604081101561048f57600080fd5b506001600160a01b038135169060200135610d2e565b610206600480360360608110156104bb57600080fd5b6001600160a01b03823516916020810135918101906060810160408201356401000000008111156104eb57600080fd5b8201836020820111156104fd57600080fd5b8035906020019184600183028401116401000000008311171561051f57600080fd5b91908080601f016020809104026020016040519081016040528093929190818152602001838380828437600092019190915250929550610d82945050505050565b610222610ddf565b6102fc6004803603602081101561057e57600080fd5b50356001600160a01b0316610e40565b6102fc610e8f565b610206600480360360408110156105ac57600080fd5b506001600160a01b038135169060200135610ea1565b6102fc600480360360408110156105d857600080fd5b506001600160a01b0381351690602001351515610ef3565b6102066004803603602081101561060657600080fd5b50356001600160a01b0316610ff8565b6102fc6004803603608081101561062c57600080fd5b6001600160a01b0382358116926020810135909116916040820135919081019060808101606082013564010000000081111561066757600080fd5b82018360208201111561067957600080fd5b8035906020019184600183028401116401000000008311171561069b57600080fd5b91908080601f01602080910402602001604051908101604052809392919081815260200183838082843760009201919091525092955061100b945050505050565b610222600480360360208110156106f257600080fd5b5035611069565b6102fc611235565b6102066004803603602081101561071757600080fd5b5035611286565b6102066004803603604081101561073457600080fd5b506001600160a01b038135811691602001351661128d565b6001600160e01b0319811660009081526020819052604090205460ff165b919050565b600a8054604080516020601f60026000196101006001881615020190951694909404938401819004810282018101909252828152606093909290918301828280156107fb5780601f106107d0576101008083540402835291602001916107fb565b820191906000526020600020905b8154815290600101906020018083116107de57829003601f168201915b505050505090505b90565b6000610811826112bb565b61084c5760405162461bcd60e51b815260040180806020018281038252602c8152602001806121fd602c913960400191505060405180910390fd5b506000908152600260205260409020546001600160a01b031690565b600061087382610c0b565b9050806001600160a01b0316836001600160a01b031614156108c65760405162461bcd60e51b81526004018080602001828103825260218152602001806122a36021913960400191505060405180910390fd5b806001600160a01b03166108d86112d8565b6001600160a01b031614806108f957506108f9816108f46112d8565b61128d565b6109345760405162461bcd60e51b81526004018080602001828103825260388152602001806121216038913960400191505060405180910390fd5b60008281526002602052604080822080546001600160a01b0319166001600160a01b0387811691821790925591518593918516917f8c5be1e5ebec7d5bd14f71427d1e84f3dd0314c0f7b2291e5b200ac8c7c3b92591a4505050565b600e546001600160a01b031681565b60085490565b6109b66109b06112d8565b826112dc565b6109f15760405162461bcd60e51b81526004018080602001828103825260318152602001806122c46031913960400191505060405180910390fd5b6109fc838383611380565b505050565b610a11610a0c6112d8565b610ff8565b610a4c5760405162461bcd60e51b81526004018080602001828103825260308152602001806121ac6030913960400191505060405180910390fd5b600f8054600019019055565b6000610a6383610cc6565b8210610aa05760405162461bcd60e51b815260040180806020018281038252602b815260200180612074602b913960400191505060405180910390fd5b6001600160a01b0383166000908152600660205260409020805483908110610ac457fe5b9060005260206000200154905092915050565b6000610ae4610a0c6112d8565b610b1f5760405162461bcd60e51b81526004018080602001828103825260308152602001806121ac6030913960400191505060405180910390fd5b610b29838361139f565b50600192915050565b6109fc8383836040518060200160405280600081525061100b565b610b586109b06112d8565b610b935760405162461bcd60e51b81526004018080602001828103825260308152602001806123466030913960400191505060405180910390fd5b610b9c816113bc565b50565b6000610ba961099f565b8210610be65760405162461bcd60e51b815260040180806020018281038252602c8152602001806122f5602c913960400191505060405180910390fd5b60088281548110610bf357fe5b90600052602060002001549050919050565b600f5481565b6000818152600160205260408120546001600160a01b031680610c5f5760405162461bcd60e51b81526004018080602001828103825260298152602001806121836029913960400191505060405180910390fd5b92915050565b600c8054604080516020601f60026000196101006001881615020190951694909404938401819004810282018101909252828152606093909290918301828280156107fb5780601f106107d0576101008083540402835291602001916107fb565b60006001600160a01b038216610d0d5760405162461bcd60e51b815260040180806020018281038252602a815260200180612159602a913960400191505060405180910390fd5b6001600160a01b0382166000908152600360205260409020610c5f906113ce565b610d396109b06112d8565b610d745760405162461bcd60e51b81526004018080602001828103825260308152602001806123466030913960400191505060405180910390fd5b610d7e82826113d2565b5050565b6000610d8f610a0c6112d8565b610dca5760405162461bcd60e51b81526004018080602001828103825260308152602001806121ac6030913960400191505060405180910390fd5b610dd584848461141a565b5060019392505050565b600b8054604080516020601f60026000196101006001881615020190951694909404938401819004810282018101909252828152606093909290918301828280156107fb5780601f106107d0576101008083540402835291602001916107fb565b610e4b610a0c6112d8565b610e865760405162461bcd60e51b81526004018080602001828103825260308152602001806121ac6030913960400191505060405180910390fd5b610b9c8161146c565b610e9f610e9a6112d8565b6114b4565b565b6000610eae610a0c6112d8565b610ee95760405162461bcd60e51b81526004018080602001828103825260308152602001806121ac6030913960400191505060405180910390fd5b610b2983836114fc565b610efb6112d8565b6001600160a01b0316826001600160a01b03161415610f61576040805162461bcd60e51b815260206004820152601960248201527f4552433732313a20617070726f766520746f2063616c6c657200000000000000604482015290519081900360640190fd5b8060046000610f6e6112d8565b6001600160a01b03908116825260208083019390935260409182016000908120918716808252919093529120805460ff191692151592909217909155610fb26112d8565b60408051841515815290516001600160a01b0392909216917f17307eab39ab6107e8899845ad3d59bd9653f200f220920489ca2b5937696c319181900360200190a35050565b6000610c5f60058363ffffffff61151616565b61101c6110166112d8565b836112dc565b6110575760405162461bcd60e51b81526004018080602001828103825260318152602001806122c46031913960400191505060405180910390fd5b6110638484848461157d565b50505050565b6060611074826112bb565b6110af5760405162461bcd60e51b815260040180806020018281038252602f815260200180612274602f913960400191505060405180910390fd5b6000828152600d602090815260409182902080548351601f60026000196101006001861615020190931692909204918201849004840281018401909452808452606093928301828280156111445780601f1061111957610100808354040283529160200191611144565b820191906000526020600020905b81548152906001019060200180831161112757829003601f168201915b5050505050905080516000141561116b57505060408051602081019091526000815261076a565b600c8160405160200180838054600181600116156101000203166002900480156111cc5780601f106111aa5761010080835404028352918201916111cc565b820191906000526020600020905b8154815290600101906020018083116111b8575b5050825160208401908083835b602083106111f85780518252601f1990920191602091820191016111d9565b6001836020036101000a0380198251168184511680821785525050505050509050019250505060405160208183030381529060405291505061076a565b611240610a0c6112d8565b61127b5760405162461bcd60e51b81526004018080602001828103825260308152602001806121ac6030913960400191505060405180910390fd5b600f80546001019055565b600f541490565b6001600160a01b03918216600090815260046020908152604080832093909416825291909152205460ff1690565b6000908152600160205260409020546001600160a01b0316151590565b3390565b60006112e7826112bb565b6113225760405162461bcd60e51b815260040180806020018281038252602c8152602001806120f5602c913960400191505060405180910390fd5b600061132d83610c0b565b9050806001600160a01b0316846001600160a01b031614806113685750836001600160a01b031661135d84610806565b6001600160a01b0316145b806113785750611378818561128d565b949350505050565b61138b8383836115cf565b6113958382611713565b6109fc8282611808565b6113a98282611846565b6113b38282611808565b610d7e81611977565b610b9c6113c882610c0b565b826113d2565b5490565b6113dc82826119bb565b6000818152600d60205260409020546002600019610100600184161502019091160415610d7e576000818152600d60205260408120610d7e91611ff1565b611424838361139f565b61143160008484846119e7565b6109fc5760405162461bcd60e51b815260040180806020018281038252603281526020018061209f6032913960400191505060405180910390fd5b61147d60058263ffffffff611c2216565b6040516001600160a01b038216907f6ae172837ea30b801fbfcdd4108aa1d5bf8ff775444fd70256b44e6bf3dfc3f690600090a250565b6114c560058263ffffffff611ca316565b6040516001600160a01b038216907fe94479a9f7e1952cc78f2d6baab678adc1b772d936c6583def489e524cb6669290600090a250565b610d7e82826040518060200160405280600081525061141a565b60006001600160a01b03821661155d5760405162461bcd60e51b81526004018080602001828103825260228152602001806122296022913960400191505060405180910390fd5b506001600160a01b03166000908152602091909152604090205460ff1690565b611588848484611380565b611594848484846119e7565b6110635760405162461bcd60e51b815260040180806020018281038252603281526020018061209f6032913960400191505060405180910390fd5b826001600160a01b03166115e282610c0b565b6001600160a01b0316146116275760405162461bcd60e51b815260040180806020018281038252602981526020018061224b6029913960400191505060405180910390fd5b6001600160a01b03821661166c5760405162461bcd60e51b81526004018080602001828103825260248152602001806120d16024913960400191505060405180910390fd5b61167581611d0a565b6001600160a01b038316600090815260036020526040902061169690611d45565b6001600160a01b03821660009081526003602052604090206116b790611d5c565b60008181526001602052604080822080546001600160a01b0319166001600160a01b0386811691821790925591518493918716917fddf252ad1be2c89b69c2b068fc378daa952ba7f163c4a11628f55a4df523b3ef91a4505050565b6001600160a01b03821660009081526006602052604081205461173d90600163ffffffff611d6516565b6000838152600760205260409020549091508082146117d8576001600160a01b038416600090815260066020526040812080548490811061177a57fe5b906000526020600020015490508060066000876001600160a01b03166001600160a01b0316815260200190815260200160002083815481106117b857fe5b600091825260208083209091019290925591825260079052604090208190555b6001600160a01b0384166000908152600660205260409020805490611801906000198301612035565b5050505050565b6001600160a01b0390911660009081526006602081815260408084208054868652600784529185208290559282526001810183559183529091200155565b6001600160a01b0382166118a1576040805162461bcd60e51b815260206004820181905260248201527f4552433732313a206d696e7420746f20746865207a65726f2061646472657373604482015290519081900360640190fd5b6118aa816112bb565b156118fc576040805162461bcd60e51b815260206004820152601c60248201527f4552433732313a20746f6b656e20616c7265616479206d696e74656400000000604482015290519081900360640190fd5b600081815260016020908152604080832080546001600160a01b0319166001600160a01b03871690811790915583526003909152902061193b90611d5c565b60405181906001600160a01b038416906000907fddf252ad1be2c89b69c2b068fc378daa952ba7f163c4a11628f55a4df523b3ef908290a45050565b600880546000838152600960205260408120829055600182018355919091527ff3f7a9fe364faab93b216da50a3214154f22a0a2b415b23a84c8169e8b636ee30155565b6119c58282611dae565b6119cf8282611713565b600081815260076020526040812055610d7e81611e85565b60006119fb846001600160a01b0316611f21565b611a0757506001611378565b600060606001600160a01b038616630a85bd0160e11b611a256112d8565b89888860405160240180856001600160a01b03166001600160a01b03168152602001846001600160a01b03166001600160a01b0316815260200183815260200180602001828103825283818151815260200191508051906020019080838360005b83811015611a9e578181015183820152602001611a86565b50505050905090810190601f168015611acb5780820380516001836020036101000a031916815260200191505b5060408051601f198184030181529181526020820180516001600160e01b03166001600160e01b0319909a16999099178952518151919890975087965094509250829150849050835b60208310611b335780518252601f199092019160209182019101611b14565b6001836020036101000a0380198251168184511680821785525050505050509050019150506000604051808303816000865af19150503d8060008114611b95576040519150601f19603f3d011682016040523d82523d6000602084013e611b9a565b606091505b509150915081611beb57805115611bb45780518082602001fd5b60405162461bcd60e51b815260040180806020018281038252603281526020018061209f6032913960400191505060405180910390fd5b6000818060200190516020811015611c0257600080fd5b50516001600160e01b031916630a85bd0160e11b14935061137892505050565b611c2c8282611516565b15611c7e576040805162461bcd60e51b815260206004820152601f60248201527f526f6c65733a206163636f756e7420616c72656164792068617320726f6c6500604482015290519081900360640190fd5b6001600160a01b0316600090815260209190915260409020805460ff19166001179055565b611cad8282611516565b611ce85760405162461bcd60e51b81526004018080602001828103825260218152602001806121dc6021913960400191505060405180910390fd5b6001600160a01b0316600090815260209190915260409020805460ff19169055565b6000818152600260205260409020546001600160a01b031615610b9c57600090815260026020526040902080546001600160a01b0319169055565b8054611d5890600163ffffffff611d6516565b9055565b80546001019055565b6000611da783836040518060400160405280601e81526020017f536166654d6174683a207375627472616374696f6e206f766572666c6f770000815250611f5a565b9392505050565b816001600160a01b0316611dc182610c0b565b6001600160a01b031614611e065760405162461bcd60e51b81526004018080602001828103825260258152602001806123216025913960400191505060405180910390fd5b611e0f81611d0a565b6001600160a01b0382166000908152600360205260409020611e3090611d45565b60008181526001602052604080822080546001600160a01b0319169055518291906001600160a01b038516907fddf252ad1be2c89b69c2b068fc378daa952ba7f163c4a11628f55a4df523b3ef908390a45050565b600854600090611e9c90600163ffffffff611d6516565b60008381526009602052604081205460088054939450909284908110611ebe57fe5b906000526020600020015490508060088381548110611ed957fe5b60009182526020808320909101929092558281526009909152604090208290556008805490611f0c906000198301612035565b50505060009182525060096020526040812055565b6000813f7fc5d2460186f7233c927e7db2dcc703c0e500b653ca82273b7bfad8045d85a470818114801590611378575050151592915050565b60008184841115611fe95760405162461bcd60e51b81526004018080602001828103825283818151815260200191508051906020019080838360005b83811015611fae578181015183820152602001611f96565b50505050905090810190601f168015611fdb5780820380516001836020036101000a031916815260200191505b509250505060405180910390fd5b505050900390565b50805460018160011615610100020316600290046000825580601f106120175750610b9c565b601f016020900490600052602060002090810190610b9c9190612055565b8154818355818111156109fc576000838152602090206109fc9181019083015b61080391905b8082111561206f576000815560010161205b565b509056fe455243373231456e756d657261626c653a206f776e657220696e646578206f7574206f6620626f756e64734552433732313a207472616e7366657220746f206e6f6e20455243373231526563656976657220696d706c656d656e7465724552433732313a207472616e7366657220746f20746865207a65726f20616464726573734552433732313a206f70657261746f7220717565727920666f72206e6f6e6578697374656e7420746f6b656e4552433732313a20617070726f76652063616c6c6572206973206e6f74206f776e6572206e6f7220617070726f76656420666f7220616c6c4552433732313a2062616c616e636520717565727920666f7220746865207a65726f20616464726573734552433732313a206f776e657220717565727920666f72206e6f6e6578697374656e7420746f6b656e4d696e746572526f6c653a2063616c6c657220646f6573206e6f74206861766520746865204d696e74657220726f6c65526f6c65733a206163636f756e7420646f6573206e6f74206861766520726f6c654552433732313a20617070726f76656420717565727920666f72206e6f6e6578697374656e7420746f6b656e526f6c65733a206163636f756e7420697320746865207a65726f20616464726573734552433732313a207472616e73666572206f6620746f6b656e2074686174206973206e6f74206f776e4552433732314d657461646174613a2055524920717565727920666f72206e6f6e6578697374656e7420746f6b656e4552433732313a20617070726f76616c20746f2063757272656e74206f776e65724552433732313a207472616e736665722063616c6c6572206973206e6f74206f776e6572206e6f7220617070726f766564455243373231456e756d657261626c653a20676c6f62616c20696e646578206f7574206f6620626f756e64734552433732313a206275726e206f6620746f6b656e2074686174206973206e6f74206f776e4552433732314275726e61626c653a2063616c6c6572206973206e6f74206f776e6572206e6f7220617070726f766564a265627a7a72315820e127a60941d5799b319b76f90e761f2fc623db6887f3867ba571c333d247ee6064736f6c63430005110032526f6c65733a206163636f756e7420697320746865207a65726f2061646472657373546f6b656e4d616e616765722f657468546f6b656e416464722069732061207a65726f20616464726573734f776e61626c653a206e6577206f776e657220697320746865207a65726f2061646472657373546f6b656e4d616e616765722f657468546f6b656e2069732061207a65726f2061646472657373546f6b656e4d616e616765722f657468546f6b656e20616c7265616479206d6170706564546f6b656e4d616e616765722f63616e6e6f742064656e7920746865206f776e6572546f6b656e4d616e616765722f657468546f6b656e206d617070696e6720646f6573206e6f74206578697374734f776e61626c653a2063616c6c6572206973206e6f7420746865206f776e6572546f6b656e4d616e616765722f657468546f6b656e4164647220616c7265616479206d6170706564546f6b656e4d616e616765722f72656d6f766520686173206e6f6e2d7a65726f20737570706c79a265627a7a72315820920173429d8d1a13c01617f5f6ea66a71da63f1c0669cd9d511454fdf746260a64736f6c63430005110032",
  "source": "pragma solidity 0.5.17;\n\nimport \"@openzeppelin/contracts/token/ERC721/IERC721.sol\";\nimport \"@openzeppelin/contracts/ownership/Ownable.sol\";\nimport \"./BridgedNFTToken.sol\";\n\ncontract NFTTokenManager is Ownable {\n    // ethtoken to onetoken mapping\n    mapping(address => address) public mappedTokens;\n\n    event TokenMapAck(address indexed tokenReq, address indexed tokenAck);\n\n    mapping(address => uint256) public wards;\n\n    function rely(address guy) external onlyOwner {\n        wards[guy] = 1;\n    }\n\n    function deny(address guy) external onlyOwner {\n        require(guy != owner(), \"TokenManager/cannot deny the owner\");\n        wards[guy] = 0;\n    }\n\n    // both owner and admin must approve\n    modifier auth {\n        require(wards[msg.sender] == 1, \"TokenManager/not-authorized\");\n        _;\n    }\n\n    /**\n     * @dev map ethereum token to harmony token and emit mintAddress\n     * @param ethTokenAddr address of the ethereum token\n     * @param name name of the token\n     * @param symbol of the token\n     * @return mintAddress of the mapped token\n     */\n    function addToken(\n        address ethTokenAddr,\n        string memory name,\n        string memory symbol\n    ) public auth returns (address) {\n        require(\n            ethTokenAddr != address(0),\n            \"TokenManager/ethToken is a zero address\"\n        );\n        require(\n            mappedTokens[ethTokenAddr] == address(0),\n            \"TokenManager/ethToken already mapped\"\n        );\n\n        BridgedNFTToken bridgedToken = new BridgedNFTToken(\n            ethTokenAddr,\n            name,\n            symbol\n        );\n        address bridgedTokenAddr = address(bridgedToken);\n\n        // store the mapping and created address\n        mappedTokens[ethTokenAddr] = bridgedTokenAddr;\n\n        // assign minter role to the caller\n        bridgedToken.addMinter(msg.sender);\n\n        emit TokenMapAck(ethTokenAddr, bridgedTokenAddr);\n        return bridgedTokenAddr;\n    }\n\n    /**\n     * @dev register an ethereum token to harmony token mapping\n     * @param ethTokenAddr address of the ethereum token\n     * @return oneToken of the mapped harmony token\n     */\n    function registerToken(address ethTokenAddr, address oneTokenAddr)\n        public\n        auth\n        returns (bool)\n    {\n        require(\n            ethTokenAddr != address(0),\n            \"TokenManager/ethTokenAddr is a zero address\"\n        );\n        require(\n            mappedTokens[ethTokenAddr] == address(0),\n            \"TokenManager/ethTokenAddr already mapped\"\n        );\n\n        // store the mapping and created address\n        mappedTokens[ethTokenAddr] = oneTokenAddr;\n    }\n\n    /**\n     * @dev remove an existing token mapping\n     * @param ethTokenAddr address of the ethereum token\n     * @param supply only allow removing mapping when supply, e.g., zero or 10**27\n     */\n    function removeToken(address ethTokenAddr, uint256 supply) public auth {\n        require(\n            mappedTokens[ethTokenAddr] != address(0),\n            \"TokenManager/ethToken mapping does not exists\"\n        );\n        require(\n            BridgedNFTToken(mappedTokens[ethTokenAddr]).checkSupply(supply),\n            \"TokenManager/remove has non-zero supply\"\n        );\n        delete mappedTokens[ethTokenAddr];\n    }\n}\n",
  "sourcePath": "/Users/yuriy/pro5/ethhmy-bridge.contract/contracts/lib/NFTTokenManager.sol",
  "compiler": {
    "name": "solc",
    "version": "0.5.17+commit.d19bba13.Emscripten.clang"
  },
  "schemaVersion": "3.2.0",
  "updatedAt": "2020-12-09T15:58:56.089Z",
  "devdoc": {
    "methods": {
      "addToken(address,string,string)": {
        "details": "map ethereum token to harmony token and emit mintAddress",
        "params": {
          "ethTokenAddr": "address of the ethereum token",
          "name": "name of the token",
          "symbol": "of the token"
        },
        "return": "mintAddress of the mapped token"
      },
      "isOwner()": {
        "details": "Returns true if the caller is the current owner."
      },
      "owner()": {
        "details": "Returns the address of the current owner."
      },
      "registerToken(address,address)": {
        "details": "register an ethereum token to harmony token mapping",
        "params": {
          "ethTokenAddr": "address of the ethereum token"
        },
        "return": "oneToken of the mapped harmony token"
      },
      "removeToken(address,uint256)": {
        "details": "remove an existing token mapping",
        "params": {
          "ethTokenAddr": "address of the ethereum token",
          "supply": "only allow removing mapping when supply, e.g., zero or 10**27"
        }
      },
      "renounceOwnership()": {
        "details": "Leaves the contract without owner. It will not be possible to call `onlyOwner` functions anymore. Can only be called by the current owner.     * NOTE: Renouncing ownership will leave the contract without an owner, thereby removing any functionality that is only available to the owner."
      },
      "transferOwnership(address)": {
        "details": "Transfers ownership of the contract to a new account (`newOwner`). Can only be called by the current owner."
      }
    }
  },
  "userdoc": {
    "methods": {}
  }
}